:020000040800F2
:1000000030140020590E0008610E0008630E00082D
:10001000650E0008670E0008690E00080000000069
:100020000000000000000000000000006B0E00084F
:100030006D0E0008000000006F0E00085906000851
:10004000730E0008730E0008730E0008E91E000806
:100050003B200008730E000873170008730E000899
:10006000730E0008730E0008730E0008D704000812
:10007000730E0008730E0008730E0008730E00085C
:1000800075170008730E0008730E0008730E000841
:10009000730E0008730E0008730E0008730E00083C
:1000A000730E0008730E0008730E0008730E00082C
:1000B000730E0008730E0008730E0008730E00081C
:1000C000730E0008730E0008730E0008730E00080C
:1000D000730E0008730E000879170008730E0008ED
:1000E000A3040008730E0008730E0008730E0008C6
:1000F000730E000800000000730E0008730E000865
:10010000730E0008730E0008730E0008730E0008CB
:10011000730E0008730E0008730E0008730E0008BB
:10012000730E000800F002F800F05AF80AA090E8F8
:10013000000C82448344AAF10107DA4501D100F0A2
:100140004FF8AFF2090EBAE80F0013F0010F18BF15
:10015000FB1A43F001031847FC7E00001C7F0000DF
:100160000A444FF0000C10F8013B13F0070408BFDD
:1001700010F8014B1D1108BF10F8015B641E05D07B
:1001800010F8016B641E01F8016BF9D113F0080F30
:100190001EBF10F8014BAD1C0C1B09D16D1E58BFC2
:1001A00001F801CBFAD505E014F8016B01F8016BF9
:1001B0006D1EF9D59142D6D370470000002300246C
:1001C00000250026103A28BF78C1FBD8520728BF67
:1001D00030C148BF0B6070471FB51FBD10B510BDC3
:1001E00007F0FFFD1146FFF7F7FF00F096F807F064
:1001F0001DFE03B4FFF7F2FF03BC07F021FE0A7BEC
:100200001AB149680160002102E00968016001211A
:100210000171704710B504798B68026844B1496870
:100220008C1A9C4201D9D11807E00160002108E036
:100230000968541A9C4202D9D11A016002E0016097
:1002400001210171006810BDF44900200870704759
:10025000012803D00721042001F0B8BB0021FAE7F0
:10026000012903D05FF0070101F0B0BB0021FBE7DB
:1002700072B601218140E94842688A43426062B611
:10028000704770B5E54C054620792840000704D535
:100290000320FFF7EDFF00F070FB20792840C00736
:1002A00004D00020FFF7E4FF00F0B1FB20792840E4
:1002B000800704D50120FFF7DBFF00F08EFB2079DB
:1002C0002840400704D50220FFF7D2FFE0688047AE
:1002D00020792840C0060AD50420FFF7C9FF00F0A6
:1002E00019F90721032001F071FB00F0B7FB207919
:1002F0002840000606D50720FFF7BAFF06F020FACF
:1003000000F0D8FA72B66068284201D101F08AFB89
:1003100062B670BDC149886070471CB5022000F00C
:100320008BFE00F068FE012000F083FE012000F04B
:100330007DFE0121FF2000F02CFE00208DF806003C
:100340008DF8050003218DF804108DF807004FF695
:10035000FF7000906946B24800F0F6FE6946B14869
:1003600000F0F2FE6946B04800F0EEFE6946AF4884
:1003700000F0EAFE6946AE4800F0E6FE6946AD4888
:1003800000F0E2FE6946AC4800F0DEFE6946AB488C
:1003900000F0DAFE0021FF2000F0FBFD012100202B
:1003A00000F00EFD9D49A64888600621022001F05C
:1003B0000DFB012000F082FD01210D07284600F011
:1003C000FCFD012000F028FEEC12204600F0C5FDE7
:1003D000012000F0DAFD002000F038FE412000F09E
:1003E0005BFD0028FAD001F024FD72B6012195488A
:1003F00000F0CFFD0121080600F0E9FD01210846CB
:1004000000F0D1FD0121204600F0D7FD012120465A
:1004100000F0E7FD0121080400F0D9FD0121284684
:1004200000F0CBFD62B600F0B0F800F02DFB062125
:10043000022001F0CBFA4FF0FF342046FFF721FFF6
:10044000FBE772B601218140744842681143416064
:1004500062B670477C48016841F0010101600168A3
:100460008907FCD578480830016841F00101016036
:100470000168C1F381010129FAD1704740B1012817
:1004800003D0022808D0032808D0002908D0084744
:100490006248C160022002E0002000E00120D0E7B5
:1004A000704710B54FF40054204600F049FF012872
:1004B00007D1204600F04DFF58488068BDE8104045
:1004C000004710BD30B40D4604462846A4461146E8
:1004D00030BC1A46604710B5022000F021FE002112
:1004E0005A4800F061FF00214FF4007000F05BFDFE
:1004F000012000F09EFDBDE810400420A1E7474820
:100500004069704745488169002902D08169491EC8
:100510008161704730B54E4A10240121084632F8F7
:10052000113002E022F81050401E28B102EB4005C5
:1005300035F8025C9D42F5D8491C22F81030A142E2
:10054000ECD3434A102400210C23042032F810502D
:10055000401C29449842F9D36008B1FBF0F12F48C0
:1005600000F11C0201615388C91A4161416901EB24
:10057000810109014161D1884269C91A92FBF1F1F7
:10058000416141693431416130BDFEB50121042032
:1005900000F0FFFC224980201A31088000218DF8EC
:1005A0000A1003268DF8096001248DF808401C4FBD
:1005B0008DF80B10019001A9384600F0C5FD254BC0
:1005C00000226946012001F067FC05219DF800002A
:1005D00001F000FB114D2C7028780128FCD0104848
:1005E0000830016821F4404101608DF8086001A9DC
:1005F000384600F0A9FD0021042000F0CAFC1321B8
:100600009DF8000001F0E6FA2C7028780128FCD053
:100610009DF8000001F056FCFEBD00000000002027
:1006200000080240000C0240001002400018024086
:10063000001C02400014024000000240000402407E
:10064000E90B0008010000010038024000240140CD
:100650007401002049020008FFF754BF364810B566
:10066000016841F480710160334908310A68334BF5
:100670001A400A600268324B1A400260026822F493
:1006800080220260086820F47D000860091D0020B7
:10069000086000F005F82B494FF00060086010BDBD
:1006A0000CB50021244801910091026842F001023A
:1006B00002604FF4A042036813F00203009302D1DA
:1006C000019B9342F7D10068800732D5012000904A
:1006D0001D48016821F001010160016821F002015B
:1006E0000160016821F004010160134824300168B1
:1006F00041F0805101608114144801604168C906CD
:10070000FCD40D480830016841F0800101600168A7
:10071000016001680160016821F003010160016866
:1007200041F0010101600168C1F381010129FAD1A1
:100730000CBD00910CBD0000003802400CC0FF88C9
:10074000FEFFFEEE08ED00E0003C024000700040BD
:100750000020FFF776BEFF4810B5007800280BD0C8
:10076000FC48FD493430FFF755FD81B2FA48BDE839
:100770001040703805F040B810BDF648C17881F0DF
:100780000101C170F448703805F051B8FEE730B58A
:100790009BB003208DF868001421684607F0BAFA70
:1007A0001AA802909DF80C00002420F00F00401CB5
:1007B00020F0F00010308DF80C009DF80D000125A0
:1007C00020F0FF008DF80D009DF80E00009420F041
:1007D000FF008DF80E009DF80F008DF8045020F0FA
:1007E0000F00401C20F0F00010308DF80F009DF835
:1007F0001000694620F0FF008DF81000D6487038D0
:1008000004F07EFF00B1FEE7142105A807F082FA8C
:100810009DF82100059420F00F00401C20F0F0000E
:1008200010308DF821009DF822008DF8185020F02E
:100830000F00401C20F0F00010308DF822009DF8D1
:100840002300079420F0FF008DF823009DF824007A
:1008500005A920F00F00401C20F0F00010308DF8AA
:10086000240064208DF82000BB48883804F0F1FC97
:1008700000B1FEE740210AA807F04CFAB7A10AA888
:1008800005F086F89DF8640020F00F00401C20F071
:10089000F00010308DF864009DF8650020F0FF0036
:1008A0008DF865000AA804F096FD002800D0FEE748
:1008B0001BB030BD00B585B01421684607F02AFA98
:1008C00000208DF8000001908DF808002820ADF878
:1008D0001000B420ADF81200684606F0AAFB00B183
:1008E000FEE701F061FC002800D0FEE705B000BD86
:1008F00010B5007800280BD196483B21808906F07E
:1009000027FD00B1FEE701F04FFC002800D0FEE714
:1009100010BDFEE7FEE70EB501F0C0FB00B1FEE73B
:1009200000200190924802908A4880788DF8020059
:10093000684605F0BAFF002800D0FEE70EBD38B5C6
:1009400000B1FEE74F20834C00908348217A2C3081
:1009500000EB8100694606F027FB00B1FEE7207A34
:10096000401C2072207A00F001002072A07A401C06
:10097000A0720320FFF765FD38BD70B5764E754C4B
:100980002C3626E0607A06EB8005284605F078FED6
:1009900071482946703804F045FE6F48294688386A
:1009A00004F078FB6C482946103004F0FAFF284622
:1009B00006F08CF9284600F0B7F9607A401C6072A6
:1009C000607A00F00100607272B6A07A401EA072D8
:1009D00062B6A07A0028D5D170BD5F495D4810B5D8
:1009E00020392430FFF716FCC1B25B48883804F088
:1009F00057FC50B1082808D0A0F54051043904D064
:100A000043F20141884200D0FEE7002010BD524968
:100A1000504810B510392C30FFF7FCFB4D4C81B21B
:100A20002069401C20614C48703804F0AEFE50B183
:100A3000082808D0A0F54051043904D043F2014100
:100A4000884200D0FEE720690321B0FBF1F201FBF0
:100A5000120000B101202070002010BD10B53D4CE7
:100A600088B0607800280DD1684600F0C6F83A4892
:100A70006946103004F0FCFF10B1082802D0FEE7F0
:100A80000120607008B010BDF0B5324D93B0002465
:100A90002C726C72AC7201F07CFB364806F022FAC4
:100AA00006F0FBF900948DF80040684605F058F810
:100AB00001F07AFB00230122291D032001F0ECF94B
:100AC00000230122691D022001F0E6F901222A4BD0
:100AD000A91D104601F0E0F90122284BE91D10463E
:100AE00001F0DAF9FFF717FF00F0F1F805F1140053
:100AF0001E210180817821F01E0141F001010C319D
:100B000021F0200181700721C1701021017100F0D6
:100B1000A5F806208DF8440019480EAB07C883E8F5
:100B200007003821684607F0F5F80EA80790022064
:100B30008DF8000003270120ADF818708DF8020031
:100B4000ADF8040011A802900021684605F04DF9A7
:100B5000C0B1FEE7240000201C02002053544D6960
:100B600063726F656C656374726F6E6963730000A6
:100B7000150900083F090008570700087B0700080F
:100B8000507E0008FFF703FE1C21684607F0C2F8FC
:100B900043F2D406CDE90046814802968DF80C70E8
:100BA0008089ADF80E007F4805907F4806908DF84B
:100BB0001040684606F032F800B1FEE746F2A8148D
:100BC0002146287901F006F83146687901F002F8EB
:100BD0002146A87900F0FEFF2146E87900F0FAFFEF
:100BE00013B0BDE8F04065E610B5704C0120A07070
:100BF000FFF791FE0020A07010BD70B500250446DF
:100C0000057001206070A070FFF779FC64214843F3
:100C1000A91E2171A060217300EBC0000521B0FB6B
:100C2000F1F000F548602061604850F81A1F6161DA
:100C30004068A061042020775C481A3081791B311C
:100C4000C9B281713B2908D93C3981714179491C6C
:100C5000C9B241713B2900D9457170BD0EB5092259
:100C60009DF8080052A120F00F00401C20F0F00079
:100C700010308DF8080002A806F06CFA00B1FEE70B
:100C800001F092FA00B1FEE740F2413006F098FA26
:100C900000B1FEE701F088FA00B1FEE700204FF452
:100CA000C87100900190ADF80400ADF800104A0042
:100CB000ADF80220ADF80610684606F0B0FA00B1B3
:100CC000FEE701F071FA002800D0FEE70EBD70B516
:100CD000334801245030512164258460C0E9001557
:100CE0000473014631482430FFF789FA2C48322139
:100CF000603000260160B4214160052181600673E7
:100D000001462A482C30FFF77AFA25484FF4FA7149
:100D100070300560C0E9011406730146BDE87040FB
:100D200022483430FFF76BBA10B501881F4C1029E8
:100D300018D011291DD0132923D019292ED180793B
:100D400000282BD1207901F0BDF8607901F0BAF8C4
:100D5000A07901F0B7F8E07901F0B4F8BDE81040EF
:100D600006F0E9BD8088A081BDE810401348FFF778
:100D7000D1BA4FF6FF70A081BDE810400720FFF701
:100D800060BB0A4A00211432A08906F07CFB00B146
:100D9000FEE701F009FA002800D0FEE710BD0000D0
:100DA000AC010020F108000813090008240000200D
:100DB00053544D33325F48524D0000005107000834
:100DC00070B5044622480E4686B050F82400012132
:100DD00000F0DFF80121084600F0E5F81C48002586
:100DE0008DF810500A388DF8135030F81400039025
:100DF000184803A950F8240000F0A6F9012E25D1C7
:100E000013480F38015D401E005D00F0E1F9104805
:100E1000083830F8140000908DF8045008208DF840
:100E2000050001258DF80650684600F053FA084881
:100E30000E38005D8DF808000F208DF809008DF840
:100E40000A008DF80B5002A800F0B8FA06B070BD89
:100E50006C7E00086400002009488047094800476C
:100E6000FEE7FEE7FEE7FEE7FEE7FEE7FEE7FEE75A
:100E7000FEE7FEE704480549054A064B70470000B7
:100E80005D06000825010008300E00203014002007
:100E90003010002030100020014600204A09012AAD
:100EA00009D0584A126801F01F0101238B401342F8
:100EB00000D001207047534A343AF3E752490860A2
:100EC0007047504A30B52C3A1168A2F1040411F071
:100ED0000C034FF4004105D0042B09D0082B09D096
:100EE0000C2B09D02368C3F342335B1C994018E0F4
:100EF000464916E0464914E01168136801F4701180
:100F0000444C03F4400304EB91410978012404EBC1
:100F10009353146814F4803F1DD03D4C6143B1FBE2
:100F2000F3F1016011680F2303EA1111394B093302
:100F30005C5C0168E14041601468072505EA1424FF
:100F40001C5D21FA04F48460126805EAD2229A5CDE
:100F5000D140C16030BD2D4CE0E7C0F30141032911
:100F600008D1284A343A116821F0C04300F0C0414A
:100F70001943116023490A6822F440320A600A6862
:100F800000F4403002430A6070471F49583108603E
:100F900070471C4A183A0029116801D0014300E04B
:100FA000814311607047174A143A0029116801D033
:100FB000014300E0814311607047124A103A002952
:100FC000116801D0014300E08143116070470D4A70
:100FD0000C3A0029116801D0014300E081431160FF
:100FE0007047084A121F0029116801D0014300E030
:100FF0008143116070470348016841F080710160CE
:101000007047000034380240800647420024F40054
:1010100000127A00680000200A4908627047094AF5
:1010200008B5A03210440090016008BD05498862EF
:10103000704704494862704703490A6842EA8000E1
:101040000860704700000E42007000401A4908B165
:10105000FF2002E0CA20086053200860704716484D
:101060001038006880B27047134A002110B51C3256
:10107000126802F00403104A1C3A1268840C20FA29
:1010800004F4024003EAD4331A430C4B1B6803EA0E
:10109000101003D00004000C00D00121084610BD40
:1010A000C0F30F1040F08000C1430448026802F012
:1010B0008002114301607047242800400C28004042
:1010C00030B5036847F6F07293430C6A8A6822438E
:1010D000D1E904452C4322438C692243CC69224345
:1010E0004C6A22438C6A22431A430260CA684260F7
:1010F0000A6882604968C16030BD0029016802D079
:1011000041F0010102E04FF6FE72114001607047AC
:10111000002A026801D00A4300E08A430260704757
:10112000C10002D40649486070470649086070470C
:10113000C10002D402494860704702490860704704
:101140000060024004640240F0B5002301244FF027
:10115000030E00BF0D6804FA03F21540954222D138
:1011600006685D000EFA05FC0F7926EA0C06AF4012
:10117000374307600E79012E01D0022E0CD186680C
:101180004F7926EA0C06AF4037438760868896433E
:101190008A799A4032438280C668CA7926EA0C0668
:1011A000AA403243C2605B1C102BD3D3F0BD4B0767
:1011B000DB0E9A40C90810B500EB8100016A0F24CC
:1011C0009C40A1430162016A1143016210BD00000D
:1011D00010B58A0721F003040649130F21440F229A
:1011E0008C689A4094438C608A68984002438A6075
:1011F00010BD0000000001407FB50446008A0D4686
:1012000020F44051E88808432082A08941F20C6113
:101210008843A9882A8911436A8902431143A1811D
:10122000A08A20F44071A8890843A0826846FFF78D
:1012300048FE2748844201D1039800E00298A18922
:10124000090400EBC00101EB0010296801D5490039
:1012500000E08900B0FBF1F06422B0FBF2F109017B
:101260000B096FF018056B4300EB8300A3891D0485
:101270004FF0320306D503EBC000B0FBF2F000F0F4
:10128000070005E003EB0010B0FBF2F000F00F00E8
:10129000084320817FBD0029818902D041F400519B
:1012A00001E021F40051818170470029818902D039
:1012B00041F4004101E0C1F30E0181817047002A31
:1012C000828A01D00A4300E08A438282704700008C
:1012D0000038014030B521498379026853B30B6867
:1012E00093430B600A1D13680468A34313600279DB
:1012F0000A441368046823431360184A08321368C9
:101300000468A3431360131D1C680568AC431C608C
:101310004479102C05D021440A68006802430A6011
:1013200030BD1168046821431160196800680143E9
:10133000196030BD0079084401689143016030BDF7
:101340000146064A0020143212680A4200D00120E9
:1013500070470249143108607047000000040140E2
:101360000E480068C00705D00C480D4908300160E0
:101370000C49016070470948016841F001010160B2
:101380007047064A0029116801D0014300E08143FB
:10139000116070470149143108607047043C0240F5
:1013A000EFCDAB89050403020029816802D041F02A
:1013B000010101E021F001018160704730B50F2289
:1013C000C47801780123FCB1144C246801F1E021B8
:1013D00004F4E064C4F5E064C4F30724C4F1040534
:1013E000E2404478AC408578154025432A0181F8D5
:1013F0000024007800F01F018B404009800000F1BC
:10140000E020C0F8003130BD01F01F0083404809E2
:10141000800000F1E020C0F8803130BD0CED00E02C
:1014200030B472B6012404FA00F2FE4805782A436B
:10143000027062B60278032A09D100220270FA48CB
:1014400064F30701C269006830BCFFF73BB830BCE9
:10145000704772B6F44908B90A69CAB90873F34902
:101460000A6842F001020A60F04B0121F04A103391
:1014700058B1012804D0022807D0032808D104E07D
:10148000108AC00704D0196002E0108AC007FAD0A1
:1014900062B670472DE9F041E64E3088E64DE24CE9
:1014A00040064FF0000809D52888400606D54FF6BB
:1014B000BF703080607BC8B3404660733088800660
:1014C00044D52888800641D5A17BDA4FD8483F1DF6
:1014D000022931D0032939D102210183012000F0F2
:1014E00073F9D54E0836308820F040003080E0692E
:1014F000E18A3A88084447464270C4F80880288840
:1015000020F0200028806068012821D00020FFF70B
:10151000A0FFA773308840F04000308000210120F8
:10152000FEF79EFEBDE8F041012079E7FFE70220CB
:10153000FFF78FFF0120C0E70122002100F038F9FA
:10154000E069E18A3A8842540320A073BDE8F08143
:10155000022000F039F9DCE710B5B3498CB008601F
:1015600000248C604C608C730C73CC730C614C73D6
:10157000AC48047000F03EF98020CDE904404FF4FF
:101580004050CDE90840AB480A94001D00900794F4
:101590001020029006946946A848FFF791FD029436
:1015A000A64C6946143C2046FFF78AFD0122022121
:1015B0002046FFF7ADFD0021102000F0E9F81020D3
:1015C00000F0DBF800F062F972B600210846FFF780
:1015D000FFFD96480830016841F001010160001DDF
:1015E000016841F00101016062B60221062000F0AD
:1015F000CFF8062000F0C1F80CB00020BDE8104084
:1016000027E770B504468848C17B29B10021C17322
:10161000BDE87040084603E70121C173C461874DEE
:101620000021143D2846FFF768FD844802218038D8
:10163000016784672846BDE870400121FFF75DBD62
:1016400070B5794C054601200E466060206100F0BF
:10165000C5F8A68278480830018841F400710180FD
:1016600001210020FEF7FCFDA561744E00213046EB
:10167000FFF743FD71488038C0F88C50A18A491E9D
:10168000C0F884106A4C208AC00706D0022000F0FF
:101690009BF8BDE870400320DBE601213046FFF7F0
:1016A0002CFD022000F090F800220321204600F0DB
:1016B0007FF82046BDE870400022114600F078B85F
:1016C000B0B500F08BF8584C207B594DA8B30027DB
:1016D00001283CD0022811D003282DD101215748E0
:1016E000FFF70BFD00221146284600F061F828465E
:1016F000BDE8B0400022032100F05AB86760022024
:101700002883012000F060F84B480830018821F45C
:1017100000710180A06820B901220021284600F054
:1017200047F80120FFF795FEA169A08A08444149C6
:1017300030F8010C091D0880B0BDFFE70120A06052
:101740000146FEF78DFD022000F03EF8CAE7276152
:1017500000210846FEF784FD0020FFF77AFE31469F
:10176000206867F30701BDE8B04033461A46FEF72C
:10177000A9BEA5E700F0E2B88CE600F01F02012147
:1017800091404009800000F1E020C0F8001170474E
:101790000907090E002806DA00F00F0000F1E0202A
:1017A00080F8141D704700F1E02080F800147047A5
:1017B00010B572B6C368490003248C40A3438A4025
:1017C0001A43C26062B610BD72B619490A6822F0A7
:1017D0000C0242EA8000086062B6704772B6134895
:1017E000016821F00101016062B601200F49143146
:1017F000086070471FB50F4C01212046FFF74BFDD5
:10180000208820F04000208001212046FFF74DFD78
:101810000B4800900020ADF80400ADF80600ADF8CC
:1018200008000FE081000020E802002000040140D1
:1018300000000240004400400C4400408060024030
:1018400040420F004FF44070ADF80C000C20ADF892
:101850000A0069462046FFF7CFFC20884006FCD5E9
:10186000208820F0400020805448018841F0400149
:10187000018001212620FFF78BFF2620FFF77DFF47
:101880000122C0212046FFF71AFD1FBD2DE9FC41B2
:101890004B4F072202213846FFF789FC072203211C
:1018A0003846FFF784FC072200213846FFF77FFC0B
:1018B000072201213846FFF77AFC00258DF80650F3
:1018C00001248DF80540022604208DF80460009064
:1018D0008DF8075069463846FFF736FC8DF80650FC
:1018E0008DF8054008208DF8046000908DF80740C1
:1018F00069463846FFF728FC8DF8065003208DF81E
:1019000005008DF804608DF807406946384600945C
:10191000FFF71AFC8DF806508DF805403E838DF8D0
:1019200004408DF80750694638460096FFF70CFCD6
:1019300000210846FFF773FBBDE8FC81D0B5214CC0
:101940000126A6607005FFF7F3FBE0690088E082DE
:10195000A27B1A4802213AB1012A04D1A17301885D
:1019600041F020010180D0BDE28A022A1AD9A67373
:10197000154F00213846FFF7C0FBE18A12486C384A
:10198000891E0167E169891C816701213846FFF7DB
:10199000B4FB2946E26966F3070120682B46FEF78F
:1019A00091FD04E0A173018841F020010180BDE8B0
:1019B000D04001210846FEF753BC00000C44004013
:1019C00000000240E80200206C60024070B5EFF3B6
:1019D000108572B6364A01238340D468082907D09F
:1019E0009C431046D46000684E0704D5984303E03A
:1019F0002343D36013E0184310602D488E074068DE
:101A000001D5984300E0184350602948C907806811
:101A100001D0984300E018439C43C2E9020485F3D7
:101A2000108870BD70B5EFF3108572B62048C1689C
:101A3000F9B9204902680B6812B123F0040301E0F0
:101A400043F004030B601C4C41680029216802D05C
:101A500021F0010101E041F001012160806821686D
:101A600010B121F0020101E041F0020121600AB150
:101A700030BF0DE078B1206840F00400206000BF66
:101A800000BF30BF206820F001002060FEF7E2FCBC
:101A900085F3108870BDAFF30080206840F004002B
:101AA000206000BF00BF30BFAFF30080F0E7000050
:101AB0008400002010ED00E00070004070B50024AC
:101AC0004FF4804503E000BFFFF7C9FA84B2FFF787
:101AD000C6FAA04204D02846FFF7C6FA0028F3D081
:101AE0002846FFF7C1FA012800D10024204670BD26
:101AF0002DE9F05F064672B6032000F001FAF64FBA
:101B000007EB0614207A02285CD1DFF8D08398F81E
:101B1000000086424AD1207BF14D4FF4804A4FF4B9
:101B2000801B082831D0FFF7C9FFE188B946081AA1
:101B300087B2286820F4806028605046FFF7B0FA2A
:101B40005846FFF706FC032000F0E5F9484605E09B
:101B500000EB0113D988C91BD980167B00EB061254
:101B6000117B0829F4D1DE49091D0A685207FCD50A
:101B7000217B09EB0110C088D949C01B0C310860DA
:101B8000286840F4806028600CE0286820F48060B9
:101B900028605046FFF784FA5846FFF7DAFB032027
:101BA00000F0B9F9217B88F800100BE0E07A217B86
:101BB00007EB00100173207B082803D0E17A07EBC4
:101BC0000010C17201202072032000F08EF962B66D
:101BD000BDE8F09F2DE9F05F0E46044672B6032083
:101BE00000F08EF9BC4F022107EB04152972DFF8D3
:101BF000EC8298F80000DFF8E8A208280AF1040B4C
:101C00000CD0FFF75BFF98F800103A4607EB011184
:101C1000C988081A87B298F800100CE088F80040CC
:101C200008202873584601684907FCD5AC480C3099
:101C3000066058E0017B02EB0110037B082B03D008
:101C4000C388DB1BB342F5DB914602EB0112D2885D
:101C5000D21BB2421FDA98F8002094420DD198F8B6
:101C6000003009EB03131B7B082B06D098F80030DB
:101C700009EB0312127B88F80020A14277D0037B86
:101C8000082B03D0037B09EB0312D472027B2A7367
:101C9000E97204736BE098F80020914233D098F811
:101CA00000704B46424609EB07173F7B8F4221D01D
:101CB0001778A7421ED1177803EB07173F7B1770E1
:101CC000C77A03EB07173C73C77AEF722973C472A4
:101CD000584601684907FCD5107809EB0010C18807
:101CE0007F480C300160DAF8001041F48061CAF8D6
:101CF00000103CE0C27A09EB02121473C27AEA7255
:101D00002973C47233E0A14201D02973C472DAF896
:101D1000001021F48061CAF800104FF48040FFF7F2
:101D2000BFF94FF48010FFF714FB032000F0F3F825
:101D3000404688F8004059460A685207FCD5684971
:101D40000C310E60DAF8002042F48062CAF80020FC
:101D50000178484606E000BF00EB0212D388DB1B87
:101D6000D380097B00EB01110A7B082AF4D1EE80B5
:101D7000AE80032000F0B9F862B629E72DE9F047FC
:101D8000574D286820F4806028604FF48010FFF7DA
:101D9000E0FA524E3378504C04EB0310017A2F14C2
:101DA000022904D03846BDE8F047FFF779B91A4652
:101DB0000AE0C18801F0FF0C04EB0211B1F80680C3
:101DC000A8EB0C0CA1F806C004EB02110A7B082A50
:101DD000EFD10021C180D0F8009090F80A80417ABC
:101DE00001290BD01846FFF783FE3846FFF758F954
:101DF00049464046BDE8F047FEF740BB818818469B
:101E0000FFF7E8FE3846FFF74BF928684005EFD4A6
:101E10003348001D01684907FCD5307804EB0010F9
:101E2000C1882F480C300160286840F48060286029
:101E3000DEE77CB52A4C206820F480602060201406
:101E4000FFF72EF94FF480152846FFF782FA03209A
:101E500000F061F8206840F4804020600024009584
:101E60008DF8044008258DF8055001208DF80600F6
:101E70006846FFF72FFA1849002000BF01EB001257
:101E80001472401CC0B20828F8D3144805701549D4
:101E9000302081F800047CBD70B5002472B60E4D70
:101EA00001E0641CE4B205EB0416367A002EF8D18A
:101EB00005EB041501262E7262B6A8726A722B60B9
:101EC0000C7070BD10B50446FFF712FE02490020E9
:101ED00001EB0411087210BD0803002094000020DB
:101EE0000828004003E000E048E700F01F0201215D
:101EF00091404009800000F1E020C0F800117047D7
:101F000000F01F02012191404009800000F1E02013
:101F1000C0F88011704700F01F0201219140400974
:101F2000800000F1E020C0F8801270473CB55748AF
:101F30004078574901EB0010816821F00302816865
:101F400013680093858901F0030100236C46042D7A
:101F500011D305780DB943681B68635084890B1F42
:101F60002344838183685B1A1B1D83604368591A6D
:101F7000091D416009E0002103E0057845B1635483
:101F8000491C85898D42F8D88381009810603CBD3A
:101F900045686D5C6554F3E73C4810B5002101705D
:101FA000417081703B4941603B49302081F8000419
:101FB000091F1020C1F80001FFF7D2F90121080420
:101FC000FFF7DFF9BDE81040FFF7D5B970B572B67D
:101FD0002F4D2E4C267805EB06163070207805EB39
:101FE00000104160207805EB00108260207805EB3E
:101FF000001083812078401C207020781E21B0FBC7
:10200000F1F201FB12002070A078401CA070A078B3
:10201000012862B607D10120FEF71AF9FFF7A0F9EF
:10202000BDE8704082E770BD10B5002302E0CC5CD3
:10203000C4545B1C9342FAD310BD10B50220FFF7C5
:10204000A9F912481249427801EB0211898911B1AC
:10205000BDE810406AE772B68178491E8170417808
:10206000491C417041781E22B1FBF2F302FB1311AF
:102070004170807808B162B6EAE7FFF77CF962B692
:102080000020BDE81040FEF7E3B8000098000020F3
:10209000880300206024080804E000E0244810B50C
:1020A0000021017023494160FFF776FF002010BD39
:1020B00030B51F4B03F108055C684C601A780A6064
:1020C000818825F812108188C088521C01FB0040CD
:1020D00058601A70002030BD10B5154C09C808347E
:1020E00034F8100001FB00305060002010BD10B526
:1020F00040681844134602460020FFF767FF00209F
:1021000010BD10B549681944FFF78EFF002010BDBF
:1021100010B5074B0268083333F812204A4393B2D4
:10212000426800210120FFF751FF002010BD000090
:10213000A00000200020080813460A4610B50146FA
:102140000020FFF7A9FE002010BD10B589B2C0B273
:10215000FFF740FD002010BD10B5C0B2FFF7B2FE82
:10216000002010BD10B5FFF7F7F9002010BD10B525
:10217000FFF766FA002010BD10B5FFF742FA002005
:1021800010BD000011494860012008700B20FEF7C7
:1021900058B910B50E4804F095FE18B10DA25D2196
:1021A000FEF7F4FA002010BD70B5084C194D02E09E
:1021B0002846FEF766F820780028F9D00020207025
:1021C0000B20FEF755F8606870BD0000B0000020DD
:1021D000852100082E2E5C2E2E5C2E2E5C4C696212
:1021E0007261726965735C53544D78785F6E5246C4
:1021F00035315F4472697665725C496E74657266EA
:10220000616365735C7372635C626C6F636B696E50
:10221000672E630000F8FFFF2DE9F0411C461646CB
:1022200060B15CB1022906D330F8025B891E4EB161
:102230002268042A04D20920BDE8F0810E20FBE7C1
:10224000121F22600027322D73D022DC162D46D0BB
:1022500010DC122D47D006DC012D38D0102D4AD0CD
:10226000112D31D14BE0132D59D0142D53D0152DF4
:102270002AD130E01A2D4AD006DC172D53D0182D64
:1022800035D0192D20D13EE0302D60D0312D1BD11D
:102290007CE0502D7ED009DCA5F13302072A13D251
:1022A000DFE802F0504B596F685E6300542D7DD01B
:1022B00006DC512D72D0522D71D0532D04D179E00E
:1022C000552D6FD0702D6CD005208EBB86E0324628
:1022D00000F08CF87DE0324600F0EFFC79E0324609
:1022E00000F0E9FA75E0324600F0D2FB71E03246C8
:1022F00000F014FC6DE0324600F04FFC69E032461D
:1023000000F0AAFC65E0324600F0E7FD61E03246ED
:1023100000F007FD5DE0324600F034FD59E0324642
:1023200000F08CFD55E0324600F0F6FA51E000E096
:1023300051E0324600F0C8FF4BE02346324601F040
:1023400085F846E02346324601F00BF941E032467B
:1023500001F0E0F93DE02346324601F05CFA38E056
:102360002346324601F076F933E02346324601F047
:10237000F6FA2EE02346324601F023FB29E009E07D
:1023800014E02346324601F0B2F822E0324601F072
:10239000A1FA1EE0324601F028FE1AE012E00DE03C
:1023A00000E013E0324601F0EFFD12E0324601F0AA
:1023B00095FD0EE0324601F029FD0AE0324601F0BB
:1023C000B2FD06E0324601F052FD02E0324602F074
:1023D00056FB1EB130B13780002171802168091D84
:1023E000216029E73580218889B2F6E72DE9F84395
:1023F0005FEA00084FF0000014461D460F460090AB
:102400000AD04DB1032F1ED303263CB12868032800
:1024100006D20C20BDE8F8830E20FBE71E6015E015
:102420000120208003206080231D6A46404602F080
:10243000C4FB04F108036A463946404602F0E3FB58
:102440000098B84201D00920E4E72E600020E1E7BF
:102450002DE9FE4F1F46DDE90C5490468946824621
:1024600025B31CB30020019072208DF8080001AB49
:10247000294602A8226802F0ACFB002814D101AE64
:1024800000962A4649465046236802F0FAFB002887
:102490000AD100962A4639464046236802F0F1FBED
:1024A000002801D101992160BDE8FE8F0E20FBE7D5
:1024B0001346722202F037BB2DE9F05F90460D0003
:1024C00007460DD0B8F1000F0AD0D8F80000022856
:1024D00074D373202870002F06D04FF0010005E060
:1024E0004FF00E00BDE8F09F4FF0000068704FF015
:1024F00002047CD0D8F80000042876D33878A8707D
:10250000786800B10120E8707868042470B1D8F8C8
:1025100000100B2969D30078287178680B2450F8D3
:10252000011FC5F805108088A5F80900D8F800102B
:10253000A01C814259D3387A2855F868641C00B130
:1025400001202855FE68641CBEB33079082802D8E3
:10255000317B082901D90720C4E7C0EBC00202EB98
:1025600001112144D8F80020891C91423DD805EB87
:102570000409002189F80000012014E0326852F8B3
:102580002120137809F800303268401C52F82130BD
:1025900009EB0002801DD3F801C0C2F800C0B3F8F7
:1025A00005309380491C32798A42E7D8327B09F89A
:1025B000002000F1010B00200DE011E015E0B168F2
:1025C00009EB0B00102251F82A1005F0EAFA0BF182
:1025D000100B0AF10100317B82465145EFD85C4473
:1025E000D8F80010201D814202D209207AE70BE0C2
:1025F0002919388A0870000A4870A41C2919788A99
:102600000870000A4870A41C0020C8F8004069E760
:102610001346732202F087BA29B122B11368022B44
:1026200003D2092070470E20704779230B7000B148
:102630000120487002201060002070472DE9FC4105
:102640001D46174606000C4611D085B10020CDE985
:1026500000500A46792301A9304602F047FA0028C3
:1026600006D1286830B10198A0420ED10FE00E20AB
:10267000BDE8FC810198801CA04206D83B4601AA17
:102680002146304602F099FAEDE70920F0E70020F4
:10269000EEE729B122B11368032B03D2092070475A
:1026A0000E20704778230B704870000A8870032052
:1026B0001060002070471346782202F034BA2DE9EA
:1026C000F0411F4615000E460ED06FB1396804293F
:1026D00019D375212970691C00F032F8401C002EB6
:1026E00006D04FF0010105E04FF00E00BDE8F0818B
:1026F0004FF00001295400F101041AD0396804F1A7
:102700000900814201D20920F0E72919308800F040
:1027100017F804442919708800F012F804442919A4
:10272000B08800F00DF804442919F08800F008F88A
:10273000044400203C60D9E71346752202F0F3B947
:102740000870000A48700220704730B552B14BB192
:102750001C68022C1BD37D241470002905D04FF077
:10276000010404E04FF00E0030BD4FF0000454703F
:102770004FF0020407D01C68042C08D30C88947016
:10278000240AD47004241D68611C8D4201D20920E2
:1027900030BD00B101201055641C00201C6030BD0C
:1027A000FFB583B01E460C9D0C46070022D00DB32A
:1027B0000020CDE900500A467D2301A9384602F0E9
:1027C00095F9002805D1286828B10198A0420FD1B9
:1027D000002007B0F0BD6EB105AB01AA2146384616
:1027E000009602F0AEFA0028F3D10199A142F0D090
:1027F0000920EEE70E20ECE770B5049D53B14DB112
:102800002C68022C32D37C241C70002805D04FF099
:10281000010404E04FF00E0070BD4FF000045C7046
:102820004FF0020405D02C68032C1FD30078987059
:1028300003241F2A01D9072070BD2E68E01C8642A0
:1028400014D31819160A0270A41C4670002902D06D
:102850004FF0010001E04FF00000185504F10104B1
:102860000AD0286804EB0206864201D9092070BD0F
:10287000181905F096F9344600202C6070BD1346F7
:102880007C2202F050B910B52AB123B11C68042C87
:1028900003D2092010BD0E2010BD76241470507094
:1028A000000A9070D17004201860002010BD1346FB
:1028B000762202F038B92DE9F8435FEA00084FF0BC
:1028C000000014461D460F4600900AD04DB1032F5C
:1028D0001DD303263CB12868032806D20C20BDE88E
:1028E000F8830E20FBE71E6014E0162020800320F2
:1028F0006080231D6A46404602F05FF9A31D6A46C8
:102900003946404602F07FF90098B84201D00920CC
:10291000E5E72E600020E2E72DE9F84305004FF0DF
:10292000000014461E460F46009009D046B14FF0F5
:1029300034083CB13068342807D20C20BDE8F88355
:102940000E20FBE7C3F80080A0E0092F7ED33420DF
:102950006080231D6A46284602F02FF90098295C02
:10296000401C04F8061F295C401C6170295C4A0960
:10297000A17862F38201A1702A5C120962F341011D
:10298000A1702A5CD20862F30001A170295C8A0858
:10299000E17862F38201E1702A5C520862F341013E
:1029A000E1702A5C401C62F30001E170295C0A09B5
:1029B000217962F3041121712A5CD20862F3C30108
:1029C00021712A5C920862F3820121712A5C52080B
:1029D00062F3410121712A5C401C62F30001217104
:1029E000295C0A09617962F3000161712A5CD208ED
:1029F00062F3410161712A5C920862F382016171A4
:102A00002A5C520862F3C30161712A5C401C62F3C4
:102A1000041161710090A31D6A463946284602F0F0
:102A2000CCF8009800F12801B9422BD829181022BF
:102A300004F1080005F0B5F800981030295C4A0848
:102A4000217E62F3470121762A5C00E01AE062F3FE
:102A500000012176401C29180090102204F11A0070
:102A600005F09FF800981030295C84F82A10401C6B
:102A70002918801D0A6844F82B2F8988A1800090AE
:102A8000B84201D0092059E7C6F80080002055E778
:102A90002DE9F8435FEA00084FF0000014461D4698
:102AA0000F4600900AD04DB1042F32D30A263CB114
:102AB00028680A2806D20C20BDE8F8830E20FBE720
:102AC0001E6029E0122020800A206080231D6A46B3
:102AD000404602F072F8A31D6A463946404602F0AD
:102AE0006CF804F108036A463946404602F065F87E
:102AF00004F10A036A463946404602F05EF804F1E2
:102B00000C036A463946404602F057F80098B8422E
:102B100001D00920D0E72E600020CDE72DE9F84351
:102B200006004FF00000144688461D4600900BD06A
:102B300055B1B8F1040F2BD304273CB12868042801
:102B400006D20C20BDE8F8830E20FBE71F6022E0D0
:102B50001820208004206080231D6A4641463046AC
:102B600002F02BF80098A179E31D325C62F30301B7
:102B7000A171325C401C120962F30711A17100902F
:102B80006A464146304602F03EF80099414501D080
:102B90000920D7E72F600020D4E72DE9F84305008E
:102BA0004FF00000144688461E4600900BD056B1E8
:102BB000B8F1120F4BD312273CB13068122806D25D
:102BC0000C20BDE8F8830E20FBE71F6042E01220D6
:102BD0006080231D6A464146284601F0EEFF0098BA
:102BE000295C04F8061F401C2918801D0A68C4F8D7
:102BF00001208988A4F805102A5CE17904F1080312
:102C000062F30001E1712A5C401C520862F3470143
:102C1000E17100906A464146284601F0CEFF04F17A
:102C20000A036A464146284601F0C7FF04F10C0337
:102C30006A464146284601F0C0FF04F10E036A4689
:102C40004146284601F0B9FF0099414501D00920CD
:102C5000B7E737600020B4E72DE9F8435FEA0008E2
:102C60004FF0000014461D460F4600900AD04DB1AB
:102C7000032F1DD303263CB12868032806D20C205D
:102C8000BDE8F8830E20FBE71E6014E011202080D1
:102C900003206080231D6A46404601F08EFFA31D7D
:102CA0006A463946404601F0AEFF0098B84201D06E
:102CB0000920E5E72E600020E2E72DE9F843070050
:102CC0004FF00000144688461D4600900BD055B1C9
:102CD000B8F1080F20D308263CB12868082806D28E
:102CE0000C20BDE8F8830E20FBE71E6017E01520DE
:102CF000208008206080231D6A464146384601F046
:102D00005CFF00983918801D0A68C4F8062089887D
:102D100061810090404501D00920E2E72E6000204B
:102D2000DFE72DE9F8435FEA00084FF000001446A2
:102D30001D460F4600900AD04DB1032F1DD3032628
:102D40003CB12868032806D20C20BDE8F8830E2089
:102D5000FBE71E6014E01A20208003206080231D02
:102D60006A46404601F029FFA31D6A46394640469F
:102D700001F054FF0098B84201D00920E5E72E6029
:102D80000020E2E72DE9F84305004FF0000014466B
:102D900088461E4600900BD056B1B8F10C0F48D3B0
:102DA0000E273CB130680E2806D20C20BDE8F8830F
:102DB0000E20FBE71F603FE0142020800E20608083
:102DC000231D6A464146284601F0F7FE00986A46F0
:102DD000295C04F8061F401C04F10803295C401C10
:102DE0006170295C401CA170295C401CE170295C69
:102DF000401C2171295C401C6171295CA171401C3F
:102E000000904146284601F0D8FE0098A17A2A5C3D
:102E100062F30001A1722A5C520862F34101A172BF
:102E20002A5C401C920862F38201A1720090404526
:102E300001D00920BAE737600020B7E72DE9F84351
:102E400005004FF00000144688461E4600900BD047
:102E500056B1B8F1070F3BD308273CB130680828BA
:102E600006D20C20BDE8F8830E20FBE71F6032E09D
:102E70001320208008206080231D6A464146284692
:102E800001F09BFEA41D23466A464146284601F0F8
:102E900094FE0099A0786A5C62F30000A0706A5CFE
:102EA000520862F34100A0706A5C920862F38400E9
:102EB000A0706A5C491C520962F34510A070685CFE
:102EC000491CE070685C491C20710091414501D0AB
:102ED0000920C7E737600020C4E72DE9F843070061
:102EE0004FF000001D461446009003D015B1032991
:102EF00021D102E00E20BDE8F883032624B1286822
:102F0000032803D20C20F6E71E6017E0192020806A
:102F10004FF00308A4F80280231D6A464146384654
:102F200001F04BFEA31D6A464146384601F06BFE98
:102F30000098032801D00920DDE72E600020DAE7A1
:102F400029B122B11368022B03D2092070470E2049
:102F500070477B230B7000B1012048700220106085
:102F6000002070472DE9FC411F4680460020CDE936
:102F7000007014460D460A467B2301A9404601F025
:102F8000B5FD060002D1386810B10020BDE8FC8113
:102F900004B301980830A8421AD8234601AA29464A
:102FA000404601F00AFEA31C01AA2946404601F052
:102FB00004FE231D01AA2946404601F0FEFDA31D83
:102FC00001AA2946404601F0F8FD0198A84203D025
:102FD0000920DBE70E20D9E73046D7E72DE9F0419D
:102FE00016460C0005460AD04EB13068022813D3AD
:102FF0007A202070002D06D04FF0010005E04FF040
:103000000E00BDE8F0814FF0000060704FF002004C
:1030100018D030680A2801D20920F2E7A11C2888BC
:1030200000F017F8871CE119688800F012F80744CF
:10303000E119A88800F00DF80744E119E88800F0CC
:1030400008F8384430600020DBE713467A2201F0AC
:103050006ABD0870000A4870022070472DE9F041EF
:103060001C00069E17460D460DD066B13168042936
:1030700036D3812121706070000AA070002D06D027
:103080004FF0010005E04FF00E00BDE8F0814FF079
:103090000000E0704FF004000ED0306817281FD3F6
:1030A00029882171090A6171A01D1022A91C04F050
:1030B00078FDA87CA07517203268411C8A420FD386
:1030C000002F02D04FF0010101E04FF00001215428
:1030D00000F101000CD0316800F11005A94201D2C5
:1030E0000920D2E720441022394604F05AFD284630
:1030F00030600020C9E71346812201F014BD30B5CD
:10310000039D73B16DB12C68052C16D37F241C7000
:103110005870000A9870D970002A05D04FF001004D
:1031200004E04FF00E0030BD4FF0000018714FF07A
:1031300005001DD028680A2801D2092030BD118859
:103140005971090A99719078C0F340114901C0F38F
:10315000820441EA8401C0F3400441EA440100F0E2
:1031600001000143D971D0781872107958720A2081
:103170002860002030BD13467F2201F0D4BC00003F
:1031800010B51C460B4601462068121A102A01D2BF
:10319000092010BD1844102204F003FD20681030EF
:1031A0002060002010BD10B5144602461846236862
:1031B000C91A102901D2092010BD9918102204F053
:1031C000F0FC206810302060002010BD08B50078A9
:1031D0008DF80000684601F0FCFC08BD38B51C46BF
:1031E000136800258B4201D1092038BD6B4601F0E0
:1031F0000AFD9DF80000217860F3030121709DF81D
:103200000000000960F307112170284638BD2DE940
:10321000F04116460F4680461C46FFF7DFFF0500CB
:1032200003D13068B84202D10920BDE8F081631CA7
:1032300032463946404601F0E6FC2846F5E7F8B547
:1032400015460F46060016D0ADB11C4601F0A6FC8F
:1032500000280FD1A31C2A463946304601F09EFCB7
:10326000002807D117480090231D2A4639463046CA
:1032700001F0B2FEF8BD0E20F8BD1CB530B12AB188
:1032800006240094019401F014FD1CBD0E201CBD09
:10329000F8B515460F46060012D08DB11C46AFF2A8
:1032A000F9000090304601F097FE002809D101B0E6
:1032B000231D2A4639463046BDE8F04001F06EBC79
:1032C0000E20F8BD9D4B00082DE9F0478AB05FEA5B
:1032D000000A4FF0000098461546894602902ED00D
:1032E000B8F1000F2BD0B9F1080F7DD306AB02AABD
:1032F0004946504601F061FC07AB02AA49465046D8
:1033000001F05BFC08AB02AA4946504601F055FCAF
:1033100001AB02AA4946504601F04FFCBDF804003B
:103320000E2100EB800001EB4007002D7ED0D8F885
:103330000000B84205D20C200AB0BDE8F0870E208C
:10334000FAE7322028806F80BDF81800A880BDF809
:103350001C00E880BDF820002881BDF80400A88189
:10336000029900EBC0000144494569D8002660E09D
:1033700006EB860005EB400404F10E0302AA494661
:10338000504601F01AFC04F1100302AA49465046C7
:1033900001F039FC04AB02AA4946504601F033FC67
:1033A0009DF81010A07C61F30000A0749DF810102F
:1033B000490861F34100A0749DF81010890861F379
:1033C0008200A0749DF81010C90861F3C300A074B6
:1033D0009DF81010090961F30410A0749DF81010F5
:1033E000490961F3451000E02AE0A0749DF810102F
:1033F00009AB890961F38610A07402AA49465046B8
:1034000001F001FC9DF8240004F1140300F0010018
:10341000E07402AA4946504601F0CFFB04F11603BE
:1034200002AA4946504601F0C8FB00E00AE0761CBB
:10343000B6B2BDF8040086429AD30299494501D03C
:10344000092079E70020C8F8007075E72DE9F04100
:1034500086B01D4614465FEA00080E4645D0EDB31F
:1034600000200190062E3CD308202F68286003AB73
:1034700001AA404601F0A1FB04AB01AA3146404637
:1034800001F09BFB05AB01AA3146404601F095FBDC
:1034900000207CB12868B84223D834202080BDF8B1
:1034A0000C00A080BDF81000E080BDF81400208161
:1034B00004F10C0029680090791A029102AB01AA6C
:1034C0003146404600F0E3FA00280BD12968029A01
:1034D0001144296004B16180019900E005E0B14226
:1034E00000D0092006B0BDE8F0810E20FAE7F8B55B
:1034F00005004FF0000014460E4600900AD04BB174
:103500000A2E2CD3E8880A3034B11968814206D2D9
:103510000C20F8BD0E20F8BD18600020F8BD186022
:1035200036202080231D6A463146284601F045FB9F
:10353000A31D6A463146284601F03FFB04F108030B
:103540006A463146284601F038FB04F10C036A460E
:103550003146284600F0FFFA0099B142DED009203A
:10356000F8BD2DE9F04786B05FEA000A4FF0000091
:103570001F461446894600902AD04FB3B9F1080F70
:1035800063D302AB6A464946504601F016FB03ABD3
:103590006A464946504601F010FB04AB6A4649466C
:1035A000504601F00AFB01AB6A464946504601F01D
:1035B00004FBBDF804000E2100EB400001EB4006C7
:1035C000ECB33868B04205D20C2006B0BDE8F087F5
:1035D0000E20FAE7332020806680BDF80800A08026
:1035E000BDF80C00E080BDF810002081BDF804009B
:1035F000A081009900EB80000144494525D80025B1
:103600001AE005EB450004EB400808F10E036A469A
:103610004946504601F0D1FA08F110036A4649467E
:10362000504601F0CAFA08F112036A46494650466C
:1036300001F0E9FA6D1CADB2BDF8040000E006E04F
:103640008542DED30099494501D00920BDE700201D
:103650003E60BAE72DE9F8435FEA00084FF000004A
:10366000144689461F4600900ED06FB1B9F10B0F7A
:103670004AD3B8F8096006F113053CB13868A8428E
:1036800006D20C20BDE8F8830E20FBE71D603EE06B
:10369000382020806580231D6A464946404601F057
:1036A0008CFAA31D6A464946404601F086FA04F1A9
:1036B00008036A464946404601F07FFA04F10C03CC
:1036C0006A464946404601F078FA04F10E036A461C
:1036D0004946404601F097FA04F110036A4649460C
:1036E000404601F06AFA009882194A450CD84EB15A
:1036F00008EB0001324604F1120004F052FA00987F
:1037000030440090484501D00920BBE73D600020CF
:10371000B8E700002DE9F04786B05FEA000A4FF0F5
:10372000000098461446894600902BD0B8F1000F4F
:1037300028D0B9F1080F68D302AB6A464946504613
:1037400001F03BFA03AB6A464946504601F035FAB0
:1037500004AB6A464946504601F02FFA01AB6A466F
:103760004946504601F029FABDF804000E2101EB4C
:10377000C006ECB3D8F80000B04205D20C2006B069
:10378000BDE8F0870E20FAE7302020806680BDF883
:103790000800A080BDF80C00E080BDF8100020817A
:1037A000BDF80400A0810099C0EBC0000144494568
:1037B0002BD8002522E000BF04EBC50707F10E035C
:1037C0006A464946504601F0F8F907F110036A4687
:1037D0004946504601F017FA07F112036A46494676
:1037E000504601F0EAF907F114036A46494600E041
:1037F0000DE0504601F0E1F96D1CADB2BDF80400DA
:103800008542D9D30099494501D00920B7E7002066
:10381000C8F80060B3E72DE9F8435FEA00084FF00D
:103820000000144689461F4600900ED06FB1B9F1D2
:103830000C0F4AD3B8F80A6006F113053CB138689A
:10384000A84206D20C20BDE8F8830E20FBE71D60DD
:103850003EE0352020806580231D6A46494640466B
:1038600001F0ABF9A31D6A464946404601F0A5F9AF
:1038700004F108036A464946404601F09EF904F106
:103880000C036A464946404601F097F904F10E03DD
:103890006A464946404601F090F904F110036A4631
:1038A0004946404601F089F9009882194A450CD8EA
:1038B0004EB108EB0001324604F1120004F071F938
:1038C000009830440090484501D00920BBE73D6096
:1038D0000020B8E7F8B506004FF0000014460D468A
:1038E00000900ED06BB1082D37D3F0880A2100EB81
:1038F000800001EB400034B11968814206D20C20EF
:10390000F8BD0E20F8BD18600020F8BD31202080E1
:10391000231D6A462946304601F040F90028F4D1BB
:10392000A31D6A462946304601F038F90028ECD13B
:1039300004F108036A462946304601F02FF90028B1
:10394000E3D104F10C036A462946304600F060F9E1
:103950000028DAD10099A942D7D00920F8BD2DE975
:10396000F8435FEA00084FF0000014461D460F467A
:1039700000900AD04DB1032F1ED30D263CB128680C
:103980000D2806D20C20BDE8F8830E20FBE71E6050
:1039900015E0392020800D206080231D6A464046B6
:1039A00001F00BF904F10C036A463946404601F078
:1039B0002AF90098B84201D00920E4E72E600020DF
:1039C000E1E72DE9F8435FEA00084FF000001446F4
:1039D00089461F4600900ED06FB1B9F10D0F51D33B
:1039E000B8F80B6006F115053CB13868A84206D25C
:1039F0000C20BDE8F8830E20FBE71D6045E0372072
:103A000020806580231D6A464946404601F0D5F86E
:103A1000A31D6A464946404601F0CFF804F1080369
:103A20006A464946404601F0C8F804F10C036A466C
:103A30004946404601F0C1F804F10E036A46494682
:103A4000404601F0E0F804F110036A46494640465A
:103A500001F0B3F804F112036A464946404601F00A
:103A6000ACF8009882194A450CD84EB108EB000119
:103A7000324604F1140004F094F8009830440090A9
:103A8000484501D00920B4E73D600020B1E72DE9A9
:103A9000FC5F834610680C9C081A1E461546884633
:103AA0004FF0000A042838D36B46584601F085F8D9
:103AB00001AB2A464146584601F07FF8BDF80000A8
:103AC000336804EBC0010A1BBDF80410121D01FB92
:103AD00000223260BCB361802080306898421CD8DC
:103AE000BDF80000002604EBC0073F1D26E004EBF4
:103AF000C60000F1040987602968A8EB01000228CC
:103B00000BD34B462A464146584601F056F82868E2
:103B10006288A8EB00018A4202D90920BDE8FC9F17
:103B200000EB0B01D9F8040004F03BF86188286829
:103B3000761C08442860BDF804000744BDF8000066
:103B40008642D4D305E0FFE72A68891C00FB0120E8
:103B500028605046E2E72DE9F04107461068154617
:103B6000081A0E461C464FF00008022807D33846B4
:103B700001F023F828682288311A8A4202D90920E4
:103B8000BDE8F081C119A01C04F00BF82188286859
:103B9000084428604046F3E72DE9F041804610686C
:103BA0000027081A15460E461C46042801D2092093
:103BB000E6E7404601F001F8A31C2A46314640469C
:103BC00000F0FBFF3846DBE72DE9F04115460E46D5
:103BD00007461C4601F0E1F80028D1D1231D2A46F2
:103BE00031463846BDE8F041D6E7C9E72DE9F04156
:103BF00015460E4607461C4600F0D0FF0028BFD1F0
:103C0000A31C2A4631463846BDE8F041DCE7B7E759
:103C10002DE9F8431C4615460E4680466B4600F0DB
:103C2000BDFF002813D1BDF8001024F8021B0027A7
:103C300009E023462A4631464046FFF7D7FF0028D1
:103C400005D10A347F1CBDF800108F42F1D3BDE8C6
:103C5000F88300002DE9FF4784B09A46DDE910742F
:103C600090468946C7B3BCB30025A22001958DF8C4
:103C70000800266801AB3246394602A800F0A9FFC9
:103C8000002826D101AB3246394604A800F075FF62
:103C900000281ED12848009001AB324639464846DC
:103CA00001F07DF9002814D12448009001AB324680
:103CB0003946404601F073F900280AD101AB32467B
:103CC00039465046009501F06AF9002801D1019962
:103CD000216008B0BDE8F087FFE70E20F9E72DE985
:103CE000FC411C46174606000D4613D094B1002037
:103CF000CDE900400A46A22301A9304600F0F6FEB5
:103D0000002805D1206838B10198A84211D10020BF
:103D1000BDE8FC810E20FBE7094800903B4601AA64
:103D20002946304601F058F90028F1D10199A942FD
:103D3000EED00920ECE70000BD430008AB440008CA
:103D400017450008FFB583B04FF000000C9C1D0024
:103D500016460F46019021D004B32068D8B1A320A5
:103D600028700120019001AB294603A8226800F0C9
:103D700004FF002810D12448009001AB29463846A2
:103D8000226801F00CF9002806D1019923680A463F
:103D9000491C8B4204D2092007B0F0BD0E20FBE77E
:103DA0000EB1012300E00023AB5401912160F3E741
:103DB0002DE9FC411D46164607000C461DD0E5B115
:103DC0000020CDE900500A46A32301A9384600F09F
:103DD0008DFE002812D1286818B10198A0420FD199
:103DE00010E00198801CA0420AD836B1334601AADF
:103DF0002146384600F0E1FEEFE70E20BDE8FC81E9
:103E00000920FBE70020F9E7AB4400082DE9F8435F
:103E10005FEA00084FF0000014461D460F46009070
:103E20000AD04DB1032F1DD304263CB128680428C5
:103E300006D20C20BDE8F8830E20FBE71E6014E0DC
:103E40005320208004206080231D6A46404600F0F5
:103E5000B4FEA31D6A463946404600F0AEFE009807
:103E6000B84201D00920E5E72E600020E2E72DE905
:103E7000FF411D461446070088462DD065B300203B
:103E8000019002202E68286003AB01AA384600F09A
:103E900085FE00281DD144B12868B04218D85120B1
:103EA0002080BDF80C00A080A01D29680090711A28
:103EB000029102AB01AA4146384600F02CFC0028D2
:103EC00007D12968029A11442960019A424500D01D
:103ED000092004B0BDE8F0810E20FAE7F8B50E46DF
:103EE00000211C46009148B144B1022E16D3022590
:103EF00032B12168022905D20C20F8BD0E20F8BD90
:103F00001D600EE05421118002215180131D6A466C
:103F1000314600F052FE0098B04201D00920F8BDB1
:103F200025600020F8BD2DE9F8435FEA00084FF056
:103F3000000014461D460F4600900AD04DB1032FD5
:103F40001DD303263CB12868032806D20C20BDE807
:103F5000F8830E20FBE71E6014E05220208003202F
:103F60006080231D6A46404600F027FEA31D6A4676
:103F70003946404600F047FE0098B84201D009207B
:103F8000E5E72E600020E2E72DE9F8435FEA00084C
:103F90004FF0000014461D460F4600900AD04DB168
:103FA000032F1DD303263CB12868032806D20C201A
:103FB000BDE8F8830E20FBE71E6014E0552020804A
:103FC00003206080231D6A46404600F0F6FDA31DD5
:103FD0006A463946404600F016FE0098B84201D0C5
:103FE0000920E5E72E600020E2E72DE9FF411C46AD
:103FF0001546070088462BD054B3002001900220BC
:104000002668206003AB01AA384600F0C7FD0028EF
:104010001BD135B12068B04216D8BDF80C00A8807D
:10402000A81D21680090711A029102AB01AA4146B5
:10403000384600F0CBFA002807D12168029A1144D3
:104040002160019A424500D0092004B0BDE8F0810A
:104050000E20FAE72DE9F0471F4615000E4605D061
:1040600027B136B1B16821B9F16811B10E20BDE8B0
:10407000F0873968052944D3A6212970691C00F00E
:1040800086F8401C002E02D04FF0010101E04FF0F5
:104090000001295400F1010445D0396804F10700FA
:1040A00081422ED32919308800F071F80444B07889
:1040B0002855641C2919B08800F069F80444B068D8
:1040C0004FF0000990B33A68211D8A4219D3008845
:1040D000B0F5007F01D90720C9E74FF0010805F8C6
:1040E0000480B068641C2919008800F050F804446A
:1040F000F068A8B1B0680188601C0844396888423B
:1041000001D90920B3E705F80480B068641CF168A0
:104110000288281903F045FDB0680088044402E0D5
:1041200005F80490641C00203C60A0E7FFE705F858
:104130000490641C05F80490F4E72DE9FC411F4647
:10414000144606000D4613D094B10020CDE900407E
:104150000A46A62301A9304600F0C8FC002805D174
:10416000206838B10198A8420FD00920BDE8FC8131
:104170000E20FBE7084800903B4601AA294630463E
:1041800000F02AFF0028F1D1ECE70020EEE70870EC
:10419000000A4870022070479D4B000830B5039C10
:1041A0005BB154B12568042D1ED3A0251D70587035
:1041B000002905D04FF0010004E04FF00E0030BDA3
:1041C0004FF0000098704FF0030009D020680628D7
:1041D0000AD30D88DD702D0A1D718878587106206C
:1041E0002568411C8D4201D2092030BD0AB1012150
:1041F00000E000211954401C2060002030BD2DE952
:10420000FC411E4680460020CDE9006017460C4662
:104210000A46A02301A9404600F068FC050005D12C
:10422000306828B10198A04210D10020BDE8FC817F
:1042300077B10198801CA04208D83B4601AA2146CC
:10424000404600F0BAFC0198A04203D00920EDE7F7
:104250000E20EBE72846E9E72DE9F0410746106814
:104260001546081A0E461C46072802D20920BDE84A
:10427000F081384600F0C7FC631C2A4631463846B8
:1042800000F0C1FCA31C2A463146384600F095FCDC
:10429000231D2A463146384600F0B5FCA31D2A46A8
:1042A0003146384600F089FC0020E0E72DE9F04176
:1042B0001D4616460F46044600F08BFC0028D6D15A
:1042C0002B4632463946601C00F083FC0028CED1D4
:1042D0002B4632463946A01C00F04FFC0028C6D1C0
:1042E0002B4632463946201D00F073FC0028BED113
:1042F0002B4632463946A01DBDE8F04100F03DBCDA
:10430000B5E72DE9F0411D4616460F460446FEF777
:104310005DFF0028ABD12B4632463946601CFEF7C4
:1043200055FF0100A3D1A078C0F34102012A00D0BB
:104330000721034662F35F03C0F3C00243EAC202EF
:10434000C0F3001042EA00122868B04201D10920EF
:104350008DE73A542868401C2860084687E72DE915
:10436000F84316460F4680461C46FEF737FF0028E6
:104370000BD1631C324639464046FEF72FFF05003D
:1043800003D13068B84202D10920BDE8F8836B46FA
:1043900032463946404600F036FC9DF80020A178B0
:1043A000500862F3000160F34201D00860F3C301DA
:1043B000100960F30411A1702846E6E72DE9FC41DD
:1043C0000446007816468846C0F34002014662F370
:1043D0005F01C0F3800241EA8201C0F3C00241EAFA
:1043E000C201C0F3001241EA0211C0F3401241EAD7
:1043F0004211C0F3801041EA80108DF804001D4680
:104400003246414601A800F0E4FB00281CD1607848
:104410002B46C0F3400161F35F008DF80400324683
:10442000414601A800F0D5FB00280DD12B463246AD
:10443000414604F1080000F0A0FB002804D1618986
:10444000B1F5007F02D90720BDE8FC810095334615
:104450004246606800F05EFC0028F5D1AFF2B31070
:1044600000902B4632464146E06800F098FD002857
:10447000EAD1AFF2711700972B46324641462069C8
:1044800000F08DFD0028DFD100972B4632464146D3
:10449000606900F084FD0028D6D100972B46324693
:1044A0004146A06900F07BFDCEE7F8B50446E04840
:1044B00000901D4616460F46206800F070FD00284B
:1044C00021D1AFF2C11000902B46324639466068C8
:1044D00000F065FD002816D12B463246394604F11E
:1044E0000A0000F04AFB00280DD12B46324639461F
:1044F00004F10C0000F041FB002804D12189B1F542
:10450000007F01D90720F8BD009533463A4620695F
:1045100000F000FCF8BD2DE9F04107461068154693
:10452000081A0E461C46082801D209209FE6384684
:1045300000F043FBA31C2A463146384600F03DFB01
:10454000231D2A463146384600F037FBA31D2A4674
:104550003146384600F031FB002088E62DE9F04175
:1045600016460F4680461C4600F017FC002815D161
:10457000231D32463946404600F00FFC00280DD17D
:1045800004F1080332463946404600F006FC0500B7
:1045900004D13068381A052801D2092067E604F1F1
:1045A0000C0332463946404600F007FB04F10E0387
:1045B00032463946404600F000FB04F11003324613
:1045C0003946404600F01FFB284650E62DE9F047EB
:1045D0008CB01C46149F15468A465FEA000850D0EE
:1045E000EDB3E4B31A20D4F80090206005AB404648
:1045F00000F0D4FA002841D103AB2A465146404688
:1046000000F0F4FA002839D107AB2A46514640465B
:10461000FFF7A4FF002831D102AB2A46514640469D
:1046200000F0BCFA002829D104AB2A465146404686
:1046300000F0B4FA060021D1BDF81000216808444A
:10464000206037B33C46484517D8BDF81400208099
:104650009DF80C00A070122207A9201D00E010E0B8
:1046600003F09FFABDF80800E082BDF81020228315
:104670002868AAEB00018A4205D909200CB0BDE8E0
:10468000F0870E20FAE700EB080104F11A0003F0AE
:1046900088FABDF810102868084428603046EDE715
:1046A0002DE9F0438BB01D46129C164689465FEA01
:1046B000000821D006B316202F68286002AB4046C0
:1046C00000F06CFA002814D104AB3246494640464B
:1046D000FFF744FF00280CD103AB32464946404661
:1046E00000F05CFA060004D19CB12868B84205D9F4
:1046F00009200BB0BDE8F0830E20FAE7BDF80800F2
:104700002080122204A9A01C03F04BFABDF80C0073
:10471000A0823046EDE72DE9FE431D460A9C164671
:104720008846070015D0A5B19EB101AB00F05EFA36
:1047300000280CD1296802200291286000208CB149
:104740009DF8040020702868884204D90920BDE83B
:10475000FE830E20FBE79DF80400012801D002280B
:1047600006D1A01C9DF80410012903D0022909D00C
:104770000B20ECE7009002AB324641463846FFF78B
:104780008FFF06E0009002AB324641463846FFF705
:104790001DFF0028DBD12968029A11442960D6E761
:1047A0002DE9FC411D4616460F46044600F0E5F98A
:1047B00000281BD1A0782B4600F001008DF80400E2
:1047C0003246394601A800F004FA00280ED12B46E3
:1047D00032463946201D00F0D0F9002806D1009558
:1047E000E18833463A46A06800F094FA2CE600F0DF
:1047F000C4B92DE9F0411D4616460F46044600F0A7
:10480000E8F9002805D12078012803D0022808D033
:1048100007202CE52B4632463946201DBDE8F041E5
:10482000BEE72B4632463946201DBDE8F041DEE7A3
:10483000734D000830B5039C6BB164B12568042D3D
:104840001ED3AA251D705870000A9870002A05D042
:104850004FF0010004E04FF00E0030BD4FF00000BB
:10486000D8704FF0040007D02068062808D31288BB
:104870001A71120A5A7106202568421C954201D20B
:10488000092030BD01B101211954401C20600020D5
:1048900030BD2DE9FE431C460A9F90460D4606009A
:1048A00034D097B30020CDE900700A46AA2301A9AD
:1048B000304600F01BF9002825D1386818B101985E
:1048C000A84235D136E00198C01CA84230D802ABCE
:1048D00001AA2946304600F070F90199705C491C24
:1048E0000191012805D0002CE9D0BDF808002080F6
:1048F000E5E7B8F1000F09D03CB12088BDF80820E9
:10490000904205D20C20BDE8FE83FFE70E20FAE7B7
:104910008818A8420CD83144404603F042F9BDF84B
:1049200008002080BDF80810019808440190C6E7EF
:104930000920E8E70020E6E770B51446049D6BB156
:1049400065B12A68042A1BD3A9221A705870000A7C
:104950009870002905D04FF0010004E04FF00E00E0
:1049600070BD4FF00000D8704FF0040012D0B4F5C5
:10497000007F01D9072070BD2A68A01D904201D98F
:10498000092070BD1C71220A5A71981D224603F03D
:1049900008F9A01D2860002070BD1346A92200F070
:1049A000C2B82DE9F04115460246DDE90604F0B132
:1049B000ECB12668052E29D3A42606704270120A8F
:1049C0008270C170090A0171216800228DB1092924
:1049D0001CD3012747712E888671360AC671F3B140
:1049E0002988B1F5007F0AD90720BDE8F0810E20A3
:1049F000FBE707290AD342718271072011E0077291
:104A00002A88266802F10901B14201D90920ECE7A0
:104A10001946093003F0C5F82888093001E0027210
:104A2000092020600020E0E72DE9FC411D461746E3
:104A300006000C4611D085B10020CDE900500A4691
:104A4000A42301A9304600F051F8002806D12868B7
:104A500030B10198A0420ED10FE00E20BDE8FC81DC
:104A60000198801CA04206D83B4601AA2146304648
:104A700000F0A3F8EDE70920F0E70020EEE72DE9CC
:104A8000FF411D461446070088462DD064B35DB330
:104A90000020019002202E68286003AB01AA38464E
:104AA00000F07CF800281CD1231D01AA414638469D
:104AB00000F074F8002814D12868A41D301A029060
:104AC00002AB01AA41460094384600F0A8F900283C
:104AD00007D12968029A11442960019A424500D001
:104AE000092004B0BDE8F0810E20FAE730B5039C40
:104AF00028B121B11CB1052A03D20C2030BD0E20F3
:104B000030BD0A68855C9D4201D00B2030BD401C41
:104B10001044C278006862F31F6020600868401D7E
:104B20000860002030BD1CB50C460021CDE90031E5
:104B30001346224601A9FFF7D9FF002803D10198A7
:104B4000A04201D00C201CBD00201CBD10B538B106
:104B500032B12BB11468091B042903D2092010BDFE
:104B60000E2010BD2044C178006861F31F601860FA
:104B70001068001D1060002010BD10B51C68121BCD
:104B8000022A01D2092010BD214400880870000AC1
:104B900048701868801C1860002010BD10B514689B
:104BA000091B022901D2092010BD20440088188069
:104BB0001068801C1060002010BD30B51468A51C62
:104BC0008D4205D82044008818801068801C106031
:104BD00030BD10B51C68944201D1092010BD007889
:104BE00008551868401C1860002010BD10B51468E6
:104BF0008C4201D1092010BD005D18701068401C66
:104C00001060002010BD30B51468651C8D4204D8BA
:104C1000005D18701068401C106030BD30B514681D
:104C2000651C8D4204D8005D18701068401C10602F
:104C300030BD2DE9F8439C46089C90460D46060081
:104C400001D0012000E000208DF8000023466246DC
:104C500041466846FFF7BDFF070006D17EB12068D8
:104C6000ACEB0001A94202D20920BDE8F883404420
:104C70002A46314602F095FF2068284420603846D5
:104C8000F3E7FFB581B01D4616460A9C074623464A
:104C90002A46314602A8FFF79CFF002807D12B4681
:104CA000324600949DF808103846FFF7C2FF05B061
:104CB000F0BD2DE9F8434FF0000C80468DF800C0A0
:104CC000DDE9089610680F461D461446B84215D017
:104CD0006B464046FFF797FF9DF80000012804D07F
:104CE0000DB1C5F800C00020BFE74DB1286838B14C
:104CF0004E4503D821687A1AB24203D20920B4E79C
:104D00000E20B2E74144324602F04BFF20683044A7
:104D10002060E8E7FFB581B01D4616460A9C0746AD
:104D200023462A46314602A8FFF727FF0028BED1B6
:104D30002B4632460094BDF808103846FFF779FF3D
:104D4000B5E72DE9FC411E46089C17468C46804677
:104D500025882346FFF722FF002808D12088334604
:104D6000CDE900503A4661464046FFF7A2FFBDE854
:104D7000FC812DE9F0411D4616460F460446FFF71B
:104D8000FCFE002807D12B4632463946A01CBDE860
:104D9000F041FFF71EBFBDE8F0812DE9F041074665
:104DA00010681546081A0E461C46032801D2092031
:104DB000F1E73846FFF701FFA31C2A463146384683
:104DC000FFF721FF0020E6E770B51C460B460146C1
:104DD00020680025121A102A01D2092070BD18443B
:104DE000102202F0DEFE206810302060284670BDE0
:104DF0002DE9F04115460F4606000ED06DB163B1A6
:104E00001C46FFF7CBFE0028C5D1A31C2A46394615
:104E10003046BDE8F041FFF7C1BE0E20BBE72DE9EB
:104E2000FC471F460A9C15468A465FEA000829D0BF
:104E300045B33FB3D7F80090286801900020ADF843
:104E400000006B4601AA4046FFF7A8FE060017D1F6
:104E5000BDF800102144081B001D3860ECB1484526
:104E60000DD823462A4651464046FFF7C1FF0600AB
:104E700006D128682288AAEB00018A4204D90920B9
:104E8000BDE8FC870E20FBE700EB0801201D02F0C7
:104E900088FE21882868084428603046F0E710B56D
:104EA0001C68944201D1092010BD007800F0010077
:104EB00008551868401C1860002010BD70B5049D8E
:104EC00053B14DB12C68022C1DD365241C700028F1
:104ED00005D04FF0010404E04FF00E0070BD4FF01C
:104EE00000045C704FF0020409D02C68052C0AD332
:104EF00006889E70360ADE708078187105242E6848
:104F0000A01C864201D2092070BD09B1012000E039
:104F100000201855641C0AB1012000E0002018553B
:104F2000641C00202C6070BD2DE9FC410746002068
:104F3000089CCDE90040164698460D460A46652372
:104F400001A93846FFF7D2FD002818D1206818B112
:104F50000198A8421FD120E001980146401CA842B8
:104F600019D87C5C0190002EF2D0B8F1000F10D05F
:104F70000119A9420FD83178A14202D20C20BDE814
:104F8000FC8139182246404602F00BFE019820446D
:104F900001903470DCE70920F1E70020EFE7F0B47E
:104FA00005461E680020049C964202D10920F0BCF0
:104FB0007047002D02D04FF0010701E04FF00007CD
:104FC0008F551E6806F101061E60F0D0002CEED051
:104FD0002846A446F0BC60472DE9F843884611688E
:104FE00081460025089E1C4617464046414502D191
:104FF0000920BDE8F88301466B464846FFF703FEEB
:105000009DF80000012803D078B10B252846F0E771
:105010004CB123683BB1002EF8D03A464146484691
:10502000B0470546F2E70E20E3E7002CEED0002063
:105030002060EBE740B139B10A683AB13122027021
:1050400001200860002070470E207047092070473B
:105050001CB514460022019229B124B12268032A0A
:1050600003D209201CBD0E201CBD60220A70012243
:105070000192074A009201AB2268FFF790FF0028D7
:10508000F2D1019921601CBD13466022FFF74BBD90
:105090009F4E000808B50A88102A17D0112A17D089
:1050A000502A18D1027D002A15D031F8062F4389E5
:1050B0009A4210D10A8B022A0DD10268002A0AD026
:1050C000897E11F0010F07D0002106E0898801E0F8
:1050D0004FF6FF71418208BD01218DF8001069462D
:1050E000904708BD2DE9F0430546007D93B00E467C
:1050F0000024A0B107949DF81C0020F00F00401C74
:1051000020F0F00010308DF81C00707B8DF81D0031
:105110009DF81E0020F00600801C8DF81E001C214A
:10512000684602F0F7FD9DF8000040F002008DF89F
:105130000000297D11B140F0100001E020F01000C6
:105140008DF80000019403940494287D00B107A811
:10515000CDE9050401278DF83E7042F61920ADF81F
:105160003C000D94B07B8DF83400F07B8DF8350059
:105170009DF83600142120F00600801C20F0190054
:105180008DF83600307B8DF8400008A802F0C2FD93
:105190000DF13C080DF13409ADF8287010A8CDE9E7
:1051A0000889ADF82A40ADF82C700C90A888AB1D8A
:1051B00008AA694602F07EFA18B15C4AC821FBF7DA
:1051C000E5FAFCF7F1FF002840D1B068D8B38DF8BC
:1051D0003E7042F60810ADF83C000D94307C8DF81E
:1051E00034009DF8350020F0FF008DF835009DF863
:1051F000360020F00600801C20F019008DF83600E3
:1052000011A8B16800F0BEFB0646142108A802F000
:1052100081FDADF8286011A8CDE90889ADF82A40D4
:10522000ADF82C600C90E88805F10E0208A902F098
:105230007FFA18B13D4AED21FBF7A8FAFCF7B4FF5D
:10524000002803D101E0FFE7EC81002013B0BDE8A6
:10525000F08338B50446086820604FF6FF7060821E
:1052600008792075FF20207401208DF8020041F696
:105270000F000D46ADF80000221D6946012002F026
:10528000E0F920B1294A40F20F11FBF77FFAFCF751
:105290008BFF002803D129462046FFF723FF38BDA6
:1052A00033B585B004469DF81810227C00208A4250
:1052B00038D00125ADF810502174E08806AB04AA5F
:1052C000002102F070FA20B1184A4FF49671FBF7F2
:1052D0005DFAFCF769FF002824D1608AA0F57F41C0
:1052E000FF3921D0207DF8B100200090019002907C
:1052F0000390ADF81050E188ADF8040004A8ADF8B3
:105300000010029006A88DF802500390608A69464A
:1053100002F05EF920B1054A40F24311FBF736FA7C
:10532000FCF742FF07B030BD0820FBE7707E0008A5
:105330002DE9F0438FB01E46DDF8589015460F005A
:10534000804604D1B54A80210020FBF71FFA25B919
:10535000B24A81210020FBF719FA1C21684602F0AD
:10536000D9FC00249DF80000039440F002008DF861
:105370000000012001948DF83600049405940694F1
:10538000ADF834800C9430788DF8300070788DF85A
:1053900031009DF83200142120F00600801C20F01E
:1053A00019008DF8320007A802F0B4FC0DA8079090
:1053B0000CA808909A48ADF82450ADF82640ADF8F6
:1053C00028500B974B4607AA6946008802F072F9ED
:1053D0000FB0BDE8F0837FB5044601208DF80600CC
:1053E00041F60A00ADF804008D4A01A9012002F03F
:1053F00028F918B1894AAE21FBF7C8F9FCF7D4FEA9
:1054000000287DD1228804F13C058AB184482B46CE
:10541000801C009042F629206168FFF789FF18B1CF
:105420007E4ABE21FBF7B2F9FCF7BEFE002867D129
:1054300022898AB17A482B460A30009042F624200D
:10544000E168FFF775FF18B1744ACC21FBF79EF9AC
:10545000FCF7AAFE002853D1228A8AB170482B4655
:105460001230009042F625206169FFF761FF18B104
:105470006A4ADA21FBF78AF9FCF796FE00283FD149
:10548000228B8AB166482B461A30009042F62720BC
:10549000E169FFF74DFF18B1604AE821FBF776F9A3
:1054A000FCF782FE002873D1228C8AB15C482B461F
:1054B0002230009042F62620616AFFF739FF18B1CA
:1054C000564AF621FBF762F9FCF76EFE00285FD121
:1054D000228D92B152482B462A30009042F6282065
:1054E000E16AFFF725FF20B14C4A4FF48271FBF7C8
:1054F0004DF9FCF759FE00284AD1216BC1B100E0FB
:1055000046E002A800F046F845482B4632300090AD
:10551000082202A942F62320FFF70AFF20B13F4AE2
:1055200040F21511FBF732F9FCF73EFE00282FD1AF
:10553000606B98B13A492B463A3100910279016883
:1055400042F62A20FFF7F4FE20B1344A40F223113C
:10555000FBF71CF9FCF728FE002819D1A16BB1B1AB
:1055600002A800F03CF82E482B464230009007225B
:1055700002A942F65020FFF7DBFE20B1274A4FF484
:105580009A71FBF703F9FCF70FFE002800D1002009
:1055900004B070BD70B50C00054604D11F4A462109
:1055A0000020FBF7F3F825B91C4A47210020FBF740
:1055B000EDF8207828702088000A68702068000CB8
:1055C000A8702068000EE87020792871207A687130
:1055D0002089000AA871A068000CE87170BD70B540
:1055E0000D00044604D10D4A5E210020FBF7CEF8E1
:1055F00024B90A4A5F210020FBF7C8F828782070F8
:1056000069886170090AA170A988E170090A21718D
:10561000E8886071000AA07170BD0000B47E0008C7
:10562000B800002008B50A88102A14D0112A14D016
:10563000502A15D131F8062F83899A4210D10A8B4E
:10564000022A0DD10268002A0AD0897E11F0010FCA
:1056500007D0002106E0898801E04FF6FF71018440
:1056600008BD01218DF800106946904708BD2DE95D
:10567000F041044640799046002500B1042594F895
:10568000220008B145F00205CAB2FF2908D9090A6B
:1056900088F8012045F0010588F80210032602E091
:1056A00088F801200226B4F84C0008B145F0100536
:1056B000002718E0B01C14280BD9B4F84C0004EBF8
:1056C0004701C01B420004F12400243102F0AEFA6D
:1056D0000DE004EB470108EB0602898C1170090A02
:1056E0005170C6B27F1CB4F84C00B842E2DC34F80A
:1056F0004C0FC01B208088F800503046BDE8F08178
:1057000038B5044608682060087960714FF6FF706C
:105710002084002084F82200A4F84C0001208DF899
:10572000020041F60D000D46ADF80000A21D6946CD
:10573000012001F086FF20B1914A4FF4AB71FBF7D5
:1057400025F8FCF731FD00281ED12946204600F03F
:1057500071F820B18A4A4FF4B071FBF717F8FCF7E3
:1057600023FD002810D1A86868B12946204600F022
:10577000C3F820B1824A40F26B11FBF707F8FCF73F
:1057800013FD002800D1002038BD30B50546008C3F
:105790008BB0A0F57F42FF3A2CD005AA2846FFF730
:1057A00066FF0446ADF800000020019002900390CF
:1057B00004902989ADF804100121ADF808008DF896
:1057C000061005A8CDF80CD00490288C01A901F092
:1057D000FFFE20B16A4A40F28F11FAF7D7FFFCF7BB
:1057E000E3FC002804D1BDF80010A14200D00C2039
:1057F0000BB030BD0820FBE770B50446B0F84C0094
:105800000D4614280AD104F126012622881E02F032
:105810000DFAB4F84C00401EA4F84C00B4F84C004B
:1058200004EB4001401CA4F84C008D8470BD80F84E
:105830002210704770B594B00024054607949DF877
:105840001C000E4620F00F00401C20F0F00010302D
:105850008DF81C00087B8DF81D009DF81E001C2192
:1058600020F00600801C8DF81E00684602F052FAF7
:105870009DF80000019440F010008DF8000007A88A
:10588000CDE9044001208DF84E00039442F6372004
:105890000694ADF84C000D94707B8DF83400B07B0D
:1058A0008DF835009DF83600142120F00600801C8C
:1058B00020F0180040F001008DF8360008A802F032
:1058C00029FA13A808900DA809900EAA00212846CD
:1058D000FFF7CDFEADF828001420ADF82C000EA87F
:1058E000ADF82A400C90E88805F1080308AA69463B
:1058F00001F0E0FE14B070BDF0B58FB00D46064665
:105900001C21684602F006FA00249DF8000003946A
:1059100040F002008DF80000012701948DF83670E8
:1059200042F63820049405940694ADF834000C94A3
:10593000E87B8DF83000287C8DF831009DF832002E
:10594000142120F00600801C20F019008DF8320090
:1059500007A802F0DFF90DA807900CA8ADF8247095
:105960000890ADF82640ADF82870A8680B90F08834
:1059700006F1100307AA694601F09CFE0FB0F0BDC6
:10598000F87E00080A78027049784170022070475A
:1059900070B504460D46084602F0E4F820806560C4
:1059A00070BD08B50A88102A0ED0112A0ED0502AD0
:1059B00010D0532A0DD1C988C288914209D1022141
:1059C0008DF80010026819E0898801E04FF6FF7138
:1059D000C18208BD31F8062F43899A42F9D10A8B5A
:1059E000022AF6D10268002AF3D0897EC1F3400171
:1059F00009B1002100E001218DF8001069469047AF
:105A000008BD30B50878002300B101234C780CB1F3
:105A100043F0020320B143F001030C7B086901E06D
:105A20000C79886864F31F605070050A9570050C46
:105A3000D570000E10714C78052084B18C8A547199
:105A4000240A94718C7DD471CC7D14720C7E5472B6
:105A50004C7E94728C7E43F00203D4720C208C78BE
:105A600024B1097F115443F00403401C137030BD6E
:105A700030B50446C08A8BB0A0F57F42FF3A26D0ED
:105A800005AA2046FFF7BDFF0546ADF8000000203F
:105A90000190029003900490E188ADF80410022177
:105AA000ADF808008DF8061005A8CDF80CD00490CC
:105AB000E08A01A901F08CFDFCF776FB002804D1F7
:105AC000BDF80010A94200D00C200BB030BD08205A
:105AD000FBE700001CB501AA0092314A0CCAFFF78F
