:020000040800F2
:10000000E0130020B10E0008B90E0008BB0E000876
:10001000BD0E0008BF0E0008C10E00080000000061
:10002000000000000000000000000000C30E0008F7
:10003000C50E000800000000C70E00088907000870
:10004000CB0E0008CB0E0008CB0E0008E120000804
:1000500033220008CB0E00086B190008CB0E0008F5
:10006000CB0E0008CB0E0008CB0E000829050008B7
:10007000CB0E0008CB0E0008CB0E0008CB0E0008FC
:100080006D190008CB0E0008CB0E0008CB0E00083F
:10009000CB0E0008CB0E0008CB0E0008CB0E0008DC
:1000A000CB0E0008CB0E0008CB0E0008CB0E0008CC
:1000B000CB0E0008CB0E0008CB0E0008CB0E0008BC
:1000C000CB0E0008CB0E0008CB0E0008CB0E0008AC
:1000D000CB0E0008CB0E000871190008CB0E0008EB
:1000E000F5040008CB0E0008CB0E0008CB0E00086C
:1000F000CB0E000800000000CB0E0008CB0E00085D
:10010000CB0E0008CB0E0008CB0E0008CB0E00086B
:10011000CB0E0008CB0E0008CB0E0008CB0E00085B
:10012000CB0E000800F002F800F03AF80AA090E8C0
:10013000000C82448344AAF10107DA4501D100F0A2
:100140002FF8AFF2090EBAE80F0013F0010F18BF35
:10015000FB1A43F001031847B0790000D079000082
:10016000103A24BF78C878C1FAD8520724BF30C8E3
:1001700030C144BF04680C607047000000230024B5
:1001800000250026103A28BF78C1FBD8520728BFA7
:1001900030C148BF0B6070471FB51FBD10B510BD03
:1001A00007F07CFB1146FFF7F7FF00F096F807F029
:1001B0009AFB03B4FFF7F2FF03BC07F09FFB0A7B37
:1001C0001AB149680160002102E00968016001215B
:1001D0000171704710B504798B68026844B14968B1
:1001E0008C1A9C4201D9D11807E00160002108E077
:1001F0000968541A9C4202D9D11A016002E00160D8
:1002000001210171006810BDFE490020087070478F
:10021000012803D00721042001F0D4BC0021FAE713
:10022000012903D05FF0070101F0CCBC0021FBE7FE
:1002300072B601218140F34842688A43426062B647
:10024000704770B5EF4C054620792840000704D56B
:100250000320FFF7EDFF00F09DFB20792840C00749
:1002600004D00020FFF7E4FF00F0DBFB20792840FA
:10027000800704D50120FFF7DBFF00F0B8FB2079F1
:100280002840400704D50220FFF7D2FFE0688047EE
:1002900020792840C0060AD50420FFF7C9FF00F0E6
:1002A0008BF90721032001F08DFC00F0E1FB2079A0
:1002B0002840000606D50720FFF7BAFF06F06AF8C7
:1002C00000F005FB72B66068284201D101F0A6FC7F
:1002D00062B670BDCB49886070478AB0022000F0DA
:1002E000DFFE00F0B4FE012000F0CFFE012000F0A0
:1002F000C9FE0121FF2000F078FE00248DF80640A1
:100300008DF8054003208DF804004FF6FF70009033
:100310008DF807406946BC4800F04AFF6946BB4873
:1003200000F046FF6946BA4800F042FF6946B94806
:1003300000F03EFF6946B84800F03AFF6946B7480A
:1003400000F036FF6946B64800F032FF6946B5480E
:1003500000F02EFF0021FF2000F047FE01210020C9
:1003600000F05AFDA748B0498160B049CA884B885F
:10037000D21A322A12DCAE4AB2F8FE30B2F8FA20B3
:100380009A1A322A02DDAA49F83107E09D4A40F262
:100390009B231C32538040F25533D3800A68C261DC
:1003A0004968016200F066F90121A24800F027FEC9
:1003B000012001F06CF84FF4003508A8089501F011
:1003C00054F802A801F045F801208DF80C000294C1
:1003D0001020994E8DF81C008DF80D400594069460
:1003E00002A9304601F014F80124E2B207231021DB
:1003F000304601F057F8641C102CF6D90621022073
:1004000001F0E0FB012000F085FD01210E073046E0
:1004100000F0FFFD012000F02BFE2C46284600F0E6
:10042000C8FD012000F0DDFD002000F043FE41206A
:1004300000F05EFD0028FAD001F0F7FD72B6012150
:100440007E4800F0D2FD0121080600F0ECFD0121FC
:10045000084600F0D4FD0121204600F0DAFD01211C
:10046000204600F0EAFD0121080400F0DCFD012136
:10047000304600F0CEFD62B600F02FF900F00EFB22
:100480000621022001F09EFB4FF0FF342046FFF7CB
:10049000D8FEFBE772B6012181405A4842681143F9
:1004A000416062B670476648016841F00101016031
:1004B00001688907FCD562480830016841F00101F4
:1004C00001600168C1F381010129FAD1704740B18F
:1004D000012803D0022808D0032808D0002908D01A
:1004E00008474848C160022002E0002000E00120E7
:1004F000D0E7704710B54FF40054204600F054FF89
:10050000012807D1204600F058FF3E488068BDE82A
:100510001040004710BD30B40D4604462846A4469E
:10052000114630BC1A46604710B5022000F02CFE80
:100530000021414800F0A1FF00214FF4007000F0BD
:100540005EFD012000F0A1FDBDE810400420A1E700
:100550002C484069704710B50121480200F04FFD5A
:10056000002000F092FD344C0121204600F085FF70
:100570004021204601F011F80028F9D00021204642
:1005800001F001F80121204600F0FDFF082000F0F5
:100590007FFD0028FAD0204600F0F0FF0021BDE8E2
:1005A0001040032001F00EBB16488169002902D0DB
:1005B0008169491E8161704730B5224A10240121AA
:1005C000084632F8113002E022F81050401E28B1DF
:1005D00002EB400535F8025C9D42F5D8491C22F833
:1005E0001030A142ECD3174A102400210C23042020
:1005F00032F81050401C29449842F9D36008B1FBEE
:10060000F0F121E00000002000080240000C024050
:100610000010024000180240001C0240001402407A
:100620000000024000040240AF0B00080000080870
:100630000000F81F0002001000240140010000012A
:100640000038024028010020484800F11C020161E6
:100650005388C91A4161416901EB81010901416176
:10066000D1884269C91A92FBF1F141614169343183
:10067000416130BD10B501218CB0080600F0B5FC19
:100680003B4800903B48019000201021CDE9020139
:100690008021CDE9040149000691890007912021BC
:1006A00008910902CDE90910334C6946204600F053
:1006B0003BFD01220221204600F05EFD0121204683
:1006C00000F04FFD2D49302081F800044FF0E0216B
:1006D000E014C1F800010CB010BDFEB501210420EA
:1006E00000F083FC26498020088000218DF80A1044
:1006F00003268DF809600124214F8DF808408DF8FC
:100700000B101A3F019001A9384600F051FD1D4B16
:1007100000226946012001F0BBFC05219DF8000084
:1007200001F054FB114D2C7028780128FCD014489E
:100730001238016821F4404101608DF8086001A978
:10074000384600F035FD0021042000F04EFC132156
:100750009DF8000001F03AFB2C7028780128FCD0AD
:100760009DF8000001F0AAFCFEBD00000000002082
:100770005824014028010020086002400BE000E0FE
:100780001A08024009020008FFF70EBF364810B5EC
:10079000016841F480710160334908310A68334BC4
:1007A0001A400A600268324B1A400260026822F462
:1007B00080220260086820F47D000860091D002086
:1007C000086000F005F82B494FF00060086010BD8C
:1007D0000CB50021244801910091026842F0010209
:1007E00002604FF4A042036813F00203009302D1A9
:1007F000019B9342F7D10068800732D50120009019
:100800001D48016821F001010160016821F0020129
:100810000160016821F0040101601348243001687F
:1008200041F0805101608114144801604168C9069B
:10083000FCD40D480830016841F080010160016876
:10084000016001680160016821F003010160016835
:1008500041F0010101600168C1F381010129FAD170
:100860000CBD00910CBD0000003802400CC0FF8898
:10087000FEFFFEEE08ED00E0003C0240007000408C
:100880007047F84810B5007800280BD0F548F649B5
:100890003430FFF79FFC81B2F348BDE81040703858
:1008A00004F097BD10BDEF48C17881F00101C1701F
:1008B000ED48703804F0A8BDFEE7087828B102289A
:1008C00002D1E849002048707047FFF744BE00B5E8
:1008D00085B01421684606F07AFF00208DF80000EC
:1008E00001908DF808002820ADF81000B420ADF874
:1008F0001200684606F055F900B1FEE701F042FD2E
:10090000002800D0FEE705B000BD10B50078002833
:100910000BD1D4483B21808906F0D2FA00B1FEE722
:1009200001F030FD002800D0FEE710BDFEE7FEE735
:100930000EB501F0AFFC00B1FEE700200190CB48FE
:100940000290C84880788DF80200684605F0D7FD0F
:10095000002800D0FEE70EBD38B500B1FEE74F20FD
:10096000C04C0090C048217A2C3000EB81006946D1
:1009700006F0D2F800B1FEE7207A401C2072207AFF
:1009800000F001002072A07A401CA0720320FFF743
:1009900081FD38BD70B5B44EB24C2C3623E0607A80
:1009A00006EB8005284605F095FCAF4829467038CF
:1009B00004F06AFCAC482946883804F0F5FBAA48E4
:1009C0002946103004F026FD284600F0E1F9607A4F
:1009D000401C6072607A00F00100607272B6A07A0A
:1009E000401EA07262B6A07A0028D8D170BD9E4980
:1009F0009C4810B520392430FFF7ECFBC1B29A486F
:100A0000883804F0F9FB50B1082808D0A0F540510F
:100A1000043904D043F20141884200D0FEE70020AF
:100A200010BD91498F4810B510392C30FFF7D2FB1B
:100A30008C4C81B22069401C20618B48703804F0D6
:100A400091FC50B1082808D0A0F54051043904D0D9
:100A500043F20141884200D0FEE720690321B0FB48
:100A6000F1F201FB120000B101202070002010BD46
:100A700010B57C4C88B0607800280DD1684600F035
:100A80009FF879486946103004F06BFD10B10828D2
:100A900002D0FEE70120607008B010BD10B57148AB
:100AA00090B0002404724472847201F060FC7048BB
:100AB00005F0D0FF05F0A9FF00948DF800406846CE
:100AC00004F078FE01F05EFC664900230122091D56
:100AD000032001F0DDFA634900230122491D0220B1
:100AE00001F0D6FA5F490122624B891D104601F0E0
:100AF000CFFA5C490122604BC91D104601F0C8FACB
:100B0000FFF716FF00F018F956481E211430018037
:100B1000817821F01E0141F001010C3121F020010A
:100B200081700721C1701021017100F07AF8062050
:100B30008DF838005148382100680F90684606F05B
:100B400046FE0FA90791012002218DF80010ADF893
:100B500018008DF80200ADF804000EA802900021E4
:100B6000684604F06CFF00B1FEE700F0ACF81C2111
:100B7000684606F02CFE43F2D400CDE90040029016
:100B800003208DF80C00384870388089ADF80E00CD
:100B90003B4805903B4806908DF81040684605F0AC
:100BA00067FE00B1FEE710B0BDE810408FE610B55B
:100BB0002C4C0120A070FFF7BBFE0020A07010BDE0
:100BC00070B500250446057001206070A070FFF725
:100BD000BFFC64214843A91E2171A060217300EB72
:100BE000C0000521B0FBF1F000F5486020611D4810
:100BF00050F81A1F61614068A061042020771948ED
:100C00001A3081791B31C9B281713B2908D93C392D
:100C100081714179491CC9B241713B2900D94571A3
:100C200070BD0EB509229DF8080017A120F00F0035
:100C3000401C20F0F00010308DF8080002A806F0EB
:100C400041F800B1FEE701F09DFB00B1FEE74FF473
:100C5000007006F06DF800B1FEE701F093FBC8B13B
:100C6000FEE7000024000020D00100202F0900082A
:100C70005909000883080008A70800080C79000833
:100C80000B0900082D09000853544D33325F4854B6
:100C90005300000000204FF4C87100900190ADF89F
:100CA0000400ADF800104A00ADF80220ADF80610BF
:100CB000684606F06CF800B1FEE701F063FB00281F
:100CC00000D0FEE70EBD0EB50020029001908DF819
:100CD000090002208DF80A009DF804004A4920F01E
:100CE0000F00401C20F0F00020308DF804009DF82B
:100CF0000500009120F0FF008DF805009DF806002A
:100D0000694620F0FF008DF806009DF8070020F0EE
:100D10000F00401C20F0F00010308DF807009DF807
:100D2000080020F0FF008DF80800384804F0D9FBD7
:100D3000002800D0FEE70EBD70B5344801243038DD
:100D4000512164258460C0E90015047301463048D0
:100D5000FFF735FA2D483221203800260160B421F2
:100D60004160052181600673014629480830FFF77C
:100D700026FA26484FF4FA7110380560C0E90114CC
:100D800006730146BDE8704021481030FFF717BADE
:100D900010B51F4C0188243C102918D011291DD0F2
:100DA000132923D019292ED1807900282BD120791D
:100DB00001F084F9607901F081F9A07901F07EF900
:100DC000E07901F07BF9BDE8104006F030BB808887
:100DD000A081BDE810400F48FFF77CBA4FF6FF70C6
:100DE000A081BDE810400720FFF754BB084A00214E
:100DF000103AA08906F0FFF800B1FEE701F0C2FA50
:100E0000002800D0FEE710BDBB080008E00100206C
:100E1000480000208108000870B5044622480E46AC
:100E200086B050F82400012100F0DFF801210846C7
:100E300000F0E5F81C4800258DF810500A388DF8B0
:100E4000135030F814000390184803A950F82400F8
:100E500000F0AEF9012E25D113480F38015D401E78
:100E6000005D00F0E9F91048083830F814000090EF
:100E70008DF8045008208DF8050001258DF80650E6
:100E8000684600F05BFA08480E38005D8DF80800EF
:100E90000F208DF809008DF80A008DF80B5002A87C
:100EA00000F088FB06B070BD2079000864000020C7
:100EB0000948804709480047FEE7FEE7FEE7FEE7EE
:100EC000FEE7FEE7FEE7FEE7FEE7FEE7044805492A
:100ED000054A064B704700008D07000825010008F1
:100EE000E00D0020E0130020E00F0020E00F0020C4
:100EF000014600204A09012A09D0584A126801F027
:100F00001F0101238B40134200D001207047534A38
:100F1000343AF3E7524908607047504A30B52C3AEA
:100F20001168A2F1040411F00C034FF4004105D044
:100F3000042B09D0082B09D00C2B09D02368C3F34C
:100F400042335B1C994018E0464916E0464914E0DC
:100F50001168136801F47011444C03F4400304EB6E
:100F600091410978012404EB9353146814F4803FF1
:100F70001DD03D4C6143B1FBF3F1016011680F23BB
:100F800003EA1111394B09335C5C0168E1404160AF
:100F90001468072505EA14241C5D21FA04F4846012
:100FA000126805EAD2229A5CD140C16030BD2D4C56
:100FB000E0E7C0F30141032908D1284A343A116817
:100FC00021F0C04300F0C0411943116023490A6871
:100FD00022F440320A600A6800F4403002430A609A
:100FE00070471F495831086070471C4A183A002959
:100FF000116801D0014300E0814311607047174A36
:10100000143A0029116801D0014300E081431160C6
:101010007047124A103A0029116801D0014300E0DC
:101020008143116070470D4A0C3A0029116801D0C4
:10103000014300E0814311607047084A121F0029F4
:10104000116801D0014300E08143116070470348FB
:10105000016841F08071016070470000343802403F
:10106000800647420024F40000127A006800002045
:101070000E49086270470D4A08B5A032104400902E
:10108000016008BD09498862704708494862704795
:10109000074A0146002052680A4200D001207047EA
:1010A00003490A6842EA80000860704700000E4267
:1010B000007000401A4908B1FF2002E0CA20086011
:1010C00053200860704716481038006880B2704797
:1010D000134A002110B51C32126802F00403104AB2
:1010E0001C3A1268840C20FA04F4024003EAD43358
:1010F0001A430C4B1B6803EA101003D00004000CC9
:1011000000D00121084610BDC0F30F1040F0800050
:10111000C1430448026802F0800211430160704735
:10112000242800400C28004030B5036847F6F072D0
:1011300093430C6A8A682243D1E904452C43224335
:101140008C692243CC6922434C6A22438C6A224335
:101150001A430260CA6842600A6882604968C160D6
:1011600030BD0029016802D041F0010102E04FF6D4
:10117000FE72114001607047002A026801D00A43E4
:1011800000E08A4302607047C10002D4064948600B
:101190007047064908607047C10002D402494860A0
:1011A00070470249086070470060024004640240D2
:1011B000F0B5002301244FF0030E00BF0D6804FAC0
:1011C00003F21540954222D106685D000EFA05FC37
:1011D0000F7926EA0C06AF40374307600E79012EDF
:1011E00001D0022E0CD186684F7926EA0C06AF405A
:1011F00037438760868896438A799A403243828053
:10120000C668CA7926EA0C06AA403243C2605B1C53
:10121000102BD3D3F0BD4B07DB0E9A40C90810B595
:1012200000EB8100016A0F249C40A1430162016A26
:101230001143016210BD000010B58A0721F00304BC
:101240000649130F21440F228C689A4094438C6006
:101250008A68984002438A6010BD00000000014087
:101260007FB50446008A0D4620F44051E8880843C3
:101270002082A08941F20C618843A9882A89114300
:101280006A8902431143A181A08A20F44071A88990
:101290000843A0826846FFF740FE2748844201D1F8
:1012A000039800E00298A189090400EBC00101EB5A
:1012B0000010296801D5490000E08900B0FBF1F079
:1012C0006422B0FBF2F109010B096FF018056B43C2
:1012D00000EB8300A3891D044FF0320306D503EB16
:1012E000C000B0FBF2F000F0070005E003EB0010D7
:1012F000B0FBF2F000F00F00084320817FBD002911
:10130000818902D041F4005101E021F40051818132
:1013100070470029818902D041F4004101E0C1F306
:101320000E0181817047002A828A01D00A4300E0C1
:101330008A438282704700000038014030B521495D
:101340008379026853B30B6893430B600A1D1368DB
:101350000468A343136002790A44136804682343B2
:101360001360184A083213680468A3431360131DFE
:101370001C680568AC431C604479102C05D02144DE
:101380000A68006802430A6030BD1168046821439E
:101390001160196800680143196030BD0079084484
:1013A00001689143016030BD0146064A00201432B5
:1013B00012680A4200D001207047024914310860C7
:1013C00070470000000401400E480068C00705D0C7
:1013D0000C480D49083001600C490160704709480C
:1013E000016841F0010101607047064A0029116857
:1013F00001D0014300E0814311607047014914317D
:1014000008607047043C0240EFCDAB89050403023D
:1014100030B54268644B0C791A400B6842EA0422EA
:10142000134343608268614B4D791A40D1E903430D
:1014300023438C6844EA4504234313438360026BCF
:10144000097D22F0F872491EC9B242EA01510163D6
:1014500030BD00210160017141714FF04072C0E95F
:101460000212016101210175704751490A68006843
:1014700022F440321043086070470029816802D08E
:1014800041F0010101E021F001018160704748490C
:101490000028086802D040F4000001E020F40000B9
:1014A0000860704770B507241D290AD9C56DA1F1E0
:1014B0001E0606EB4606B440A543B3401D43C56572
:1014C00021E013290AD9C568A1F1140606EB4606E6
:1014D000B440A543B3401D43C56014E009290AD9AF
:1014E0000569A1F10A0606EB4606B440A543B340E0
:1014F0001D43056107E0456901EB4106B440A54382
:10150000B3401D4345611F23072A09D2046C521EB4
:1015100002EB820293409C4391400C43046470BDF3
:101520000D2A09D2C46BD21F02EB820293409C4366
:1015300091400C43C46370BD132A09D2846B0D3AE9
:1015400002EB820293409C4391400C43846370BD44
:10155000192A09D2446B133A02EB820293409C434E
:1015600091400C43446370BD046B193A02EB820254
:1015700093409C4391400C43046370BD816841F0EB
:101580008041816070470029816802D041F48071F8
:1015900001E021F4807181607047024600201268EA
:1015A0000A4200D001207047FFFEFFFCFDF7FFC09C
:1015B0000427014030B50F22C47801780123FCB123
:1015C000144C246801F1E02104F4E064C4F5E06403
:1015D000C4F30724C4F10405E2404478AC408578A4
:1015E000154025432A0181F80024007800F01F01EE
:1015F0008B404009800000F1E020C0F8003130BD90
:1016000001F01F0083404809800000F1E020C0F88D
:10161000803130BD0CED00E030B472B6012404FA24
:1016200000F2FE4805782A43027062B60278032A67
:1016300009D100220270FA4864F30701C269006808
:1016400030BCFEF768BF30BC704772B6F44908B9C9
:101650000A69CAB90873F3490A6842F001020A60CC
:10166000F04B0121F04A103358B1012804D0022870
:1016700007D0032808D104E0108AC00704D01960FD
:1016800002E0108AC007FAD062B670472DE9F04137
:10169000E64E3088E64DE24C40064FF0000809D592
:1016A0002888400606D54FF6BF703080607BC8B3EF
:1016B000404660733088800644D52888800641D52E
:1016C000A17BDA4FD8483F1D022931D0032939D1F7
:1016D00002210183012000F073F9D54E08363088CD
:1016E00020F040003080E069E18A3A8808444746AB
:1016F0004270C4F80880288820F0200028806068A4
:10170000012821D00020FFF7A0FFA773308840F008
:101710004000308000210120FEF782FDBDE8F0414D
:10172000012079E7FFE70220FFF78FFF0120C0E7E4
:101730000122002100F038F9E069E18A3A88425438
:101740000320A073BDE8F081022000F039F9DCE746
:1017500010B5B3498CB0086000248C604C608C7369
:101760000C73CC730C614C73AC48047000F03EF900
:101770008020CDE904404FF44050CDE90840AB480B
:101780000A94001D00900794102002900694694668
:10179000A848FFF7C9FC0294A64C6946143C2046B1
:1017A000FFF7C2FC012202212046FFF7E5FC0021E1
:1017B000102000F0E9F8102000F0DBF800F062F9EA
:1017C00072B600210846FFF737FD964808300168D9
:1017D00041F001010160001D016841F0010101605B
:1017E00062B60221062000F0CFF8062000F0C1F812
:1017F0000CB00020BDE8104027E770B504468848CB
:10180000C17B29B10021C173BDE87040084603E7E0
:101810000121C173C461874D0021143D2846FFF7A3
:10182000A0FC844802218038016784672846BDE80F
:1018300070400121FFF795BC70B5794C0546012039
:101840000E466060206100F0C5F8A6827848083036
:10185000018841F40071018001210020FEF7E0FCC5
:10186000A561744E00213046FFF77BFC714880383B
:10187000C0F88C50A18A491EC0F884106A4C208A96
:10188000C00706D0022000F09BF8BDE8704003209E
:10189000DBE601213046FFF764FC022000F090F8FF
:1018A00000220321204600F07FF82046BDE870406A
:1018B0000022114600F078B8B0B500F08BF8584C13
:1018C000207B594DA8B3002701283CD0022811D015
:1018D00003282DD101215748FFF743FC0022114670
:1018E000284600F061F82846BDE8B04000220321F8
:1018F00000F05AB8676002202883012000F060F8E9
:101900004B480830018821F400710180A06820B99B
:1019100001220021284600F047F80120FFF795FE3C
:10192000A169A08A0844414930F8010C091D0880CA
:10193000B0BDFFE70120A0600146FEF771FC022068
:1019400000F03EF8CAE7276100210846FEF768FC70
:101950000020FFF77AFE3146206867F30701BDE8F3
:10196000B04033461A46FEF7D6BDA5E700F0E2B810
:101970008CE600F01F02012191404009800000F137
:10198000E020C0F8001170470907090E002806DAA8
:1019900000F00F0000F1E02080F8141D704700F106
:1019A000E02080F80014704710B572B6C368490093
:1019B00003248C40A3438A401A43C26062B610BD20
:1019C00072B619490A6822F00C0242EA80000860E7
:1019D00062B6704772B61348016821F001010160D8
:1019E00062B601200F491431086070471FB50F4CD3
:1019F00001212046FFF783FC208820F04000208052
:101A000001212046FFF785FC0B4800900020ADF82F
:101A10000400ADF80600ADF808000FE081000020DA
:101A20009C020020000401400000024000440040ED
:101A30000C4400408060024040420F004FF4407070
:101A4000ADF80C000C20ADF80A0069462046FFF7FF
:101A500007FC20884006FCD5208820F0400020802C
:101A60005448018841F04001018001212620FFF700
:101A70008BFF2620FFF77DFF0122C0212046FFF7C4
:101A800052FC1FBD2DE9FC414B4F07220221384675
:101A9000FFF7C1FB072203213846FFF7BCFB0722F3
:101AA00000213846FFF7B7FB072201213846FFF730
:101AB000B2FB00258DF8065001248DF80540022662
:101AC00004208DF8046000908DF807506946384670
:101AD000FFF76EFB8DF806508DF8054008208DF855
:101AE000046000908DF8074069463846FFF760FBB8
:101AF0008DF8065003208DF805008DF804608DF8F0
:101B00000740694638460094FFF752FB8DF80650AF
:101B10008DF805403E838DF804408DF807506946E6
:101B200038460096FFF744FB00210846FFF7A3FA6A
:101B3000BDE8FC81D0B5214C0126A6607005FFF7F9
:101B40002BFBE0690088E082A27B1A4802213AB1AF
:101B5000012A04D1A173018841F020010180D0BD88
:101B6000E28A022A1AD9A673154F00213846FFF7D8
:101B7000F8FAE18A12486C38891E0167E169891C0C
:101B8000816701213846FFF7ECFA2946E26966F3DE
:101B9000070120682B46FEF7BEFC04E0A173018814
:101BA00041F020010180BDE8D04001210846FEF748
:101BB00037BB00000C440040000002409C020020A3
:101BC0006C60024070B5EFF3108572B6364A01239F
:101BD0008340D468082907D09C431046D46000682D
:101BE0004E0704D5984303E02343D36013E0184322
:101BF00010602D488E07406801D5984300E01843D7
:101C000050602948C907806801D0984300E0184314
:101C10009C43C2E9020485F3108870BD70B5EFF3F0
:101C2000108572B62048C168F9B9204902680B686E
:101C300012B123F0040301E043F004030B601C4CD9
:101C400041680029216802D021F0010101E041F042
:101C5000010121608068216810B121F0020101E0DA
:101C600041F0020121600AB130BF0DE078B1206877
:101C700040F00400206000BF00BF30BF206820F0AB
:101C800001002060FEF70FFC85F3108870BDAFF3F4
:101C90000080206840F00400206000BF00BF30BF1B
:101CA000AFF30080F0E700008400002010ED00E0BA
:101CB0000070004070B500244FF4804503E000BF81
:101CC000FFF701FA84B2FFF7FEF9A04204D02846DC
:101CD000FFF7FEF90028F3D02846FFF7F9F90128AD
:101CE00000D10024204670BD2DE9F05F064672B693
:101CF000032000F001FAF64F07EB0614207A0228C1
:101D00005CD1DFF8D08398F8000086424AD1207B6E
:101D1000F14D4FF4804A4FF4801B082831D0FFF773
:101D2000C9FFE188B946081A87B2286820F48060A4
:101D300028605046FFF7E8F95846FFF73EFB0320BE
:101D400000F0E5F9484605E000EB0113D988C91B0E
:101D5000D980167B00EB0612117B0829F4D1DE49ED
:101D6000091D0A685207FCD5217B09EB0110C088C8
:101D7000D949C01B0C310860286840F48060286095
:101D80000CE0286820F4806028605046FFF7BCF91A
:101D90005846FFF712FB032000F0B9F9217B88F8C1
:101DA00000100BE0E07A217B07EB00100173207B31
:101DB000082803D0E17A07EB0010C17201202072DD
:101DC000032000F08EF962B6BDE8F09F2DE9F05FC8
:101DD0000E46044672B6032000F08EF9BC4F022175
:101DE00007EB04152972DFF8EC8298F80000DFF8A1
:101DF000E8A208280AF1040B0CD0FFF75BFF98F863
:101E000000103A4607EB0111C988081A87B298F802
:101E100000100CE088F8004008202873584601683C
:101E20004907FCD5AC480C30066058E0017B02EB5A
:101E30000110037B082B03D0C388DB1BB342F5DB07
:101E4000914602EB0112D288D21BB2421FDA98F8F7
:101E5000002094420DD198F8003009EB03131B7B4E
:101E6000082B06D098F8003009EB0312127B88F893
:101E70000020A14277D0037B082B03D0037B09EB22
:101E80000312D472027B2A73E97204736BE098F830
:101E90000020914233D098F800704B46424609EB3F
:101EA00007173F7B8F4221D01778A7421ED11778A2
:101EB00003EB07173F7B1770C77A03EB07173C73D9
:101EC000C77AEF722973C472584601684907FCD576
:101ED000107809EB0010C1887F480C300160DAF8F7
:101EE000001041F48061CAF800103CE0C27A09EBAE
:101EF00002121473C27AEA722973C47233E0A142E7
:101F000001D02973C472DAF8001021F48061CAF894
:101F100000104FF48040FFF7F7F84FF48010FFF700
:101F20004CFA032000F0F3F8404688F80040594688
:101F30000A685207FCD568490C310E60DAF80020B7
:101F400042F48062CAF800200178484606E000BFEB
:101F500000EB0212D388DB1BD380097B00EB01115D
:101F60000A7B082AF4D1EE80AE80032000F0B9F895
:101F700062B629E72DE9F047574D286820F48060C4
:101F800028604FF48010FFF718FA524E3378504C07
:101F900004EB0310017A2F14022904D03846BDE85F
:101FA000F047FFF7B1B81A460AE0C18801F0FF0C0C
:101FB00004EB0211B1F80680A8EB0C0CA1F806C0E6
:101FC00004EB02110A7B082AEFD10021C180D0F86E
:101FD000009090F80A80417A01290BD01846FFF74B
:101FE00083FE3846FFF790F849464046BDE8F04783
:101FF000FEF76DBA81881846FFF7E8FE3846FFF70E
:1020000083F828684005EFD43348001D016849076C
:10201000FCD5307804EB0010C1882F480C300160EB
:10202000286840F480602860DEE77CB52A4C206890
:1020300020F4806020602014FFF766F84FF48015CC
:102040002846FFF7BAF9032000F061F8206840F451
:1020500080402060002400958DF8044008258DF80C
:10206000055001208DF806006846FFF767F918490A
:10207000002000BF01EB00121472401CC0B20828FF
:10208000F8D3144805701549302081F800047CBD50
:1020900070B5002472B60E4D01E0641CE4B205EB8D
:1020A0000416367A002EF8D105EB041501262E729F
:1020B00062B6A8726A722B600C7070BD10B50446CF
:1020C000FFF712FE0249002001EB0411087210BD57
:1020D000BC020020940000200828004003E000E03B
:1020E00048E700F01F02012191404009800000F103
:1020F000E020C0F80011704700F01F02012191405C
:102100004009800000F1E020C0F88011704700F025
:102110001F02012191404009800000F1E020C0F839
:10212000801270473CB557484078574901EB001082
:10213000816821F00302816813680093858901F0AA
:10214000030100236C46042D11D305780DB94368B3
:102150001B68635084890B1F2344838183685B1A47
:102160001B1D83604368591A091D416009E0002165
:1021700003E0057845B16354491C85898D42F8D840
:102180008381009810603CBD45686D5C6554F3E741
:102190003C4810B500210170417081703B4941609D
:1021A0003B49302081F80004091F1020C1F80001CC
:1021B000FFF70AF901210804FFF717F9BDE81040FD
:1021C000FFF70DB970B572B62F4D2E4C267805EB82
:1021D00006163070207805EB00104160207805EB82
:1021E00000108260207805EB001083812078401C6D
:1021F000207020781E21B0FBF1F201FB120020704C
:10220000A078401CA070A078012862B607D10120F8
:10221000FDF7FEFFFFF7D8F8BDE8704082E770BD1C
:1022200010B5002302E0CC5CC4545B1C9342FAD38B
:1022300010BD10B50220FFF7E1F8124812494278AC
:1022400001EB0211898911B1BDE810406AE772B64D
:102250008178491E81704178491C417041781E2265
:10226000B1FBF2F302FB13114170807808B162B642
:10227000EAE7FFF7B4F862B60020BDE81040FDF7CA
:10228000C7BF0000980000203C030020602408081D
:1022900004E000E0244810B50021017023494160AA
:1022A000FFF776FF002010BD30B51F4B03F1080586
:1022B0005C684C601A780A60818825F81210818861
:1022C000C088521C01FB004058601A70002030BDCD
:1022D00010B5154C09C8083434F8100001FB003063
:1022E0005060002010BD10B54068184413460246E7
:1022F0000020FFF767FF002010BD10B549681944A2
:10230000FFF78EFF002010BD10B5074B02680833A1
:1023100033F812204A4393B2426800210120FFF7AC
:1023200051FF002010BD0000A00000200020080880
:1023300013460A4610B501460020FFF7A9FE00200B
:1023400010BD10B5FFF704FA002010BD10B5FFF75F
:1023500073FA002010BD10B5FFF74FFA002010BD32
:1023600011494860012008700B20FEF793B810B5A2
:102370000E4804F05FFB18B10DA25D21FEF79CFA38
:10238000002010BD70B5084C194D02E02846FDF73D
:1023900058FF20780028F9D0002020700B20FDF78E
:1023A00047FF606870BD0000B00000206123000896
:1023B0002E2E5C2E2E5C2E2E5C4C69627261726930
:1023C00065735C53544D78785F6E524635315F4487
:1023D00072697665725C496E746572666163657375
:1023E0005C7372635C626C6F636B696E672E630013
:1023F00000F8FFFF2DE9F0411C46164660B15CB1C4
:10240000022906D330F8025B891E4EB12268042AE5
:1024100004D20920BDE8F0810E20FBE7121F2260E4
:102420000027322D73D022DC162D46D010DC122D61
:1024300047D006DC012D38D0102D4AD0112D31D1D6
:102440004BE0132D59D0142D53D0152D2AD130E047
:102450001A2D4AD006DC172D53D0182D35D0192D42
:1024600020D13EE0302D60D0312D1BD17CE0502DAD
:102470007ED009DCA5F13302072A13D2DFE802F08F
:10248000504B596F685E6300542D7DD006DC512D92
:1024900072D0522D71D0532D04D179E0552D6FD0CB
:1024A000702D6CD005208EBB86E0324600F08CF893
:1024B0007DE0324600F0EFFC79E0324600F0E9FAC8
:1024C00075E0324600F0D2FB71E0324600F014FCB9
:1024D0006DE0324600F04FFC69E0324600F0AAFCA5
:1024E00065E0324600F0E7FD61E0324600F007FDAE
:1024F0005DE0324600F034FD59E0324600F08CFDDC
:1025000055E0324600F0F6FA51E000E051E0324684
:1025100000F0C8FF4BE02346324601F085F846E064
:102520002346324601F00BF941E0324601F0E0F972
:102530003DE02346324601F05CFA38E0234632465D
:1025400001F076F933E02346324601F0F6FA2EE048
:102550002346324601F023FB29E009E014E023463C
:10256000324601F0B2F822E0324601F0A1FA1EE054
:10257000324601F0C4FD1AE012E00DE000E013E085
:10258000324601F08BFD12E0324601F031FD0EE0E3
:10259000324601F0C5FC0AE0324601F04EFD06E08D
:1025A000324601F0EEFC02E0324602F0F2FA1EB1D1
:1025B00030B13780002171802168091D216029E731
:1025C0003580218889B2F6E72DE9F8435FEA0008F3
:1025D0004FF0000014461D460F4600900AD04DB142
:1025E000032F1ED303263CB12868032806D20C20F3
:1025F000BDE8F8830E20FBE71E6015E00120208077
:1026000003206080231D6A46404602F060FB04F10F
:1026100008036A463946404602F07FFB0098B842FC
:1026200001D00920E4E72E600020E1E72DE9FE4F0C
:102630001F46DDE90C5490468946824625B31CB3FB
:102640000020019072208DF8080001AB294602A8F5
:10265000226802F048FB002814D101AE00962A46F9
:1026600049465046236802F096FB00280AD100969E
:102670002A4639464046236802F08DFB002801D1E6
:1026800001992160BDE8FE8F0E20FBE71346722200
:1026900002F0D3BA2DE9F05F90460D0007460DD049
:1026A000B8F1000F0AD0D8F80000022874D37320C4
:1026B0002870002F06D04FF0010005E04FF00E000B
:1026C000BDE8F09F4FF0000068704FF002047CD02E
:1026D000D8F80000042876D33878A870786800B15C
:1026E0000120E8707868042470B1D8F800100B2934
:1026F00069D30078287178680B2450F8011FC5F859
:1027000005108088A5F80900D8F80010A01C8142A7
:1027100059D3387A2855F868641C00B1012028552F
:10272000FE68641CBEB33079082802D8317B0829C2
:1027300001D90720C4E7C0EBC00202EB011121441C
:10274000D8F80020891C91423DD805EB04090021EE
:1027500089F80000012014E0326852F82120137833
:1027600009F800303268401C52F8213009EB0002B1
:10277000801DD3F801C0C2F800C0B3F805309380C3
:10278000491C32798A42E7D8327B09F8002000F1EF
:10279000010B00200DE011E015E0B16809EB0B0022
:1027A000102251F82A1004F059FF0BF1100B0AF116
:1027B0000100317B82465145EFD85C44D8F80010C7
:1027C000201D814202D209207AE70BE02919388ABC
:1027D0000870000A4870A41C2919788A0870000A39
:1027E0004870A41C0020C8F8004069E71346732213
:1027F00002F023BA29B122B11368022B03D20920B7
:1028000070470E20704779230B7000B1012048708B
:1028100002201060002070472DE9FC411D4617463C
:1028200006000C4611D085B10020CDE900500A46C3
:10283000792301A9304602F0E3F9002806D128687F
:1028400030B10198A0420ED10FE00E20BDE8FC810E
:102850000198801CA04206D83B4601AA214630467A
:1028600002F035FAEDE70920F0E70020EEE729B1A4
:1028700022B11368032B03D2092070470E20704742
:1028800078230B704870000A8870032010600020C5
:1028900070471346782202F0D0B92DE9F0411F4667
:1028A00015000E460ED06FB13968042919D3752171
:1028B0002970691C00F032F8401C002E06D04FF041
:1028C000010105E04FF00E00BDE8F0814FF000017E
:1028D000295400F101041AD0396804F10900814239
:1028E00001D20920F0E72919308800F017F80444D4
:1028F0002919708800F012F804442919B08800F0F2
:102900000DF804442919F08800F008F80444002068
:102910003C60D9E71346752202F08FB90870000AAF
:1029200048700220704730B552B14BB11C68022C80
:102930001BD37D241470002905D04FF0010404E05E
:102940004FF00E0030BD4FF0000454704FF0020401
:1029500007D01C68042C08D30C889470240AD47007
:1029600004241D68611C8D4201D2092030BD00B1D4
:1029700001201055641C00201C6030BDFFB583B0E1
:102980001E460C9D0C46070022D00DB30020CDE959
:1029900000500A467D2301A9384602F031F900288B
:1029A00005D1286828B10198A0420FD1002007B0B6
:1029B000F0BD6EB105AB01AA21463846009602F083
:1029C0004AFA0028F3D10199A142F0D00920EEE79C
:1029D0000E20ECE770B5049D53B14DB12C68022C6C
:1029E00032D37C241C70002805D04FF0010404E091
:1029F0004FF00E0070BD4FF000045C704FF0020409
:102A000005D02C68032C1FD30078987003241F2A4C
:102A100001D9072070BD2E68E01C864214D3181916
:102A2000160A0270A41C4670002902D04FF0010063
:102A300001E04FF00000185504F101040AD02868A5
:102A400004EB0206864201D9092070BD181904F072
:102A500005FE344600202C6070BD13467C2202F037
:102A6000ECB810B52AB123B11C68042C03D209209C
:102A700010BD0E2010BD762414705070000A9070A6
:102A8000D17004201860002010BD1346762202F099
:102A9000D4B82DE9F8435FEA00084FF0000014466F
:102AA0001D460F4600900AD04DB1032F1DD30326BB
:102AB0003CB12868032806D20C20BDE8F8830E201C
:102AC000FBE71E6014E01620208003206080231D99
:102AD0006A46404602F0FBF8A31D6A463946404666
:102AE00002F01BF90098B84201D00920E5E72E60FA
:102AF0000020E2E72DE9F84305004FF000001446FE
:102B00001E460F46009009D046B14FF034083CB144
:102B10003068342807D20C20BDE8F8830E20FBE78C
:102B2000C3F80080A0E0092F7ED334206080231DED
:102B30006A46284602F0CBF80098295C401C04F84D
:102B4000061F295C401C6170295C4A09A17862F368
:102B50008201A1702A5C120962F34101A1702A5C12
:102B6000D20862F30001A170295C8A08E17862F35F
:102B70008201E1702A5C520862F34101E1702A5C33
:102B8000401C62F30001E170295C0A09217962F3BB
:102B9000041121712A5CD20862F3C30121712A5CFD
:102BA000920862F3820121712A5C520862F34101AA
:102BB00021712A5C401C62F300012171295C0A0921
:102BC000617962F3000161712A5CD20862F341010C
:102BD00061712A5C920862F3820161712A5C520879
:102BE00062F3C30161712A5C401C62F304116171DC
:102BF0000090A31D6A463946284602F068F80098FE
:102C000000F12801B9422BD82918102204F108003C
:102C100004F024FD00981030295C4A08217E62F3FC
:102C2000470121762A5C00E01AE062F30001217678
:102C3000401C29180090102204F11A0004F00EFD27
:102C400000981030295C84F82A10401C2918801D37
:102C50000A6844F82B2F8988A1800090B84201D0DF
:102C6000092059E7C6F80080002055E72DE9F84310
:102C70005FEA00084FF0000014461D460F46009022
:102C80000AD04DB1042F32D30A263CB128680A2855
:102C900006D20C20BDE8F8830E20FBE71E6029E079
:102CA000122020800A206080231D6A46404602F0E0
:102CB0000EF8A31D6A463946404602F008F804F1B2
:102CC00008036A463946404602F001F804F10A0357
:102CD0006A463946404601F0FAFF04F10C036A46A1
:102CE0003946404601F0F3FF0098B84201D0092070
:102CF000D0E72E600020CDE72DE9F84306004FF025
:102D00000000144688461D4600900BD055B1B8F11E
:102D1000040F2BD304273CB12868042806D20C20CA
:102D2000BDE8F8830E20FBE71F6022E0182020801A
:102D300004206080231D6A464146304601F0C7FFEB
:102D40000098A179E31D325C62F30301A171325C4A
:102D5000401C120962F30711A17100906A464146B6
:102D6000304601F0DAFF0099414501D00920D7E74C
:102D70002F600020D4E72DE9F84305004FF0000054
:102D8000144688461E4600900BD056B1B8F1120F7B
:102D90004BD312273CB13068122806D20C20BDE874
:102DA000F8830E20FBE71F6042E012206080231DA5
:102DB0006A464146284601F08AFF0098295C04F8DB
:102DC000061F401C2918801D0A68C4F80120898844
:102DD000A4F805102A5CE17904F1080362F300010C
:102DE000E1712A5C401C520862F34701E1710090D6
:102DF0006A464146284601F06AFF04F10A036A4622
:102E00004146284601F063FF04F10C036A4641463F
:102E1000284601F05CFF04F10E036A46414628464D
:102E200001F055FF0099414501D00920B7E737600F
:102E30000020B4E72DE9F8435FEA00084FF00000F6
:102E400014461D460F4600900AD04DB1032F1DD3E6
:102E500003263CB12868032806D20C20BDE8F8837D
:102E60000E20FBE71E6014E011202080032060800C
:102E7000231D6A46404601F02AFFA31D6A463946D3
:102E8000404601F04AFF0098B84201D00920E5E72A
:102E90002E600020E2E72DE9F84307004FF0000024
:102EA000144688461D4600900BD055B1B8F1080F66
:102EB00020D308263CB12868082806D20C20BDE89B
:102EC000F8830E20FBE71E6017E015202080082005
:102ED0006080231D6A464146384601F0F8FE00989E
:102EE0003918801D0A68C4F806208988618100901D
:102EF000404501D00920E2E72E600020DFE72DE900
:102F0000F8435FEA00084FF0000014461D460F46E4
:102F100000900AD04DB1032F1DD303263CB1286881
:102F2000032806D20C20BDE8F8830E20FBE71E60C4
:102F300014E01A20208003206080231D6A4640464A
:102F400001F0C5FEA31D6A463946404601F0F0FE79
:102F50000098B84201D00920E5E72E600020E2E7A2
:102F60002DE9F84305004FF00000144688461E4640
:102F700000900BD056B1B8F10C0F48D30E273CB1DE
:102F800030680E2806D20C20BDE8F8830E20FBE73F
:102F90001F603FE0142020800E206080231D6A46C1
:102FA0004146284601F093FE00986A46295C04F8E1
:102FB000061F401C04F10803295C401C6170295C59
:102FC000401CA170295C401CE170295C401C2171EF
:102FD000295C401C6171295CA171401C0090414634
:102FE000284601F074FE0098A17A2A5C62F3000181
:102FF000A1722A5C520862F34101A1722A5C401C52
:10300000920862F38201A1720090404501D009202C
:10301000BAE737600020B7E72DE9F84305004FF025
:103020000000144688461E4600900BD056B1B8F1F9
:10303000070F3BD308273CB13068082806D20C2084
:10304000BDE8F8830E20FBE71F6032E013202080EC
:1030500008206080231D6A464146284601F037FE5D
:10306000A41D23466A464146284601F030FE0099D9
:10307000A0786A5C62F30000A0706A5C520862F398
:103080004100A0706A5C920862F38400A0706A5CE0
:10309000491C520962F34510A070685C491CE0703D
:1030A000685C491C20710091414501D00920C7E7A7
:1030B00037600020C4E72DE9F84307004FF0000017
:1030C0001D461446009003D015B1032921D102E01A
:1030D0000E20BDE8F883032624B12868032803D214
:1030E0000C20F6E71E6017E0192020804FF003083F
:1030F000A4F80280231D6A464146384601F0E7FDE8
:10310000A31D6A464146384601F007FE0098032891
:1031100001D00920DDE72E600020DAE729B122B1D5
:103120001368022B03D2092070470E2070477B23BF
:103130000B7000B101204870022010600020704721
:103140002DE9FC411F4680460020CDE90070144661
:103150000D460A467B2301A9404601F051FD0600B9
:1031600002D1386810B10020BDE8FC8104B3019899
:103170000830A8421AD8234601AA2946404601F041
:10318000A6FDA31C01AA2946404601F0A0FD231D6F
:1031900001AA2946404601F09AFDA31D01AA29462D
:1031A000404601F094FD0198A84203D00920DBE7D6
:1031B0000E20D9E73046D7E72DE9F04116460C003E
:1031C00005460AD04EB13068022813D37A20207009
:1031D000002D06D04FF0010005E04FF00E00BDE8D5
:1031E000F0814FF0000060704FF0020018D030689E
:1031F0000A2801D20920F2E7A11C288800F017F85C
:10320000871CE119688800F012F80744E119A888C2
:1032100000F00DF80744E119E88800F008F8384498
:1032200030600020DBE713467A2201F006BD08700B
:10323000000A4870022070472DE9F0411C00069EEC
:1032400017460D460DD066B13168042936D3812169
:1032500021706070000AA070002D06D04FF00100B0
:1032600005E04FF00E00BDE8F0814FF00000E07087
:103270004FF004000ED0306817281FD32988217121
:10328000090A6171A01D1022A91C04F0E7F9A87CAD
:10329000A07517203268411C8A420FD3002F02D03C
:1032A0004FF0010101E04FF00001215400F1010055
:1032B0000CD0316800F11005A94201D20920D2E7F3
:1032C00020441022394604F0C9F928463060002015
:1032D000C9E71346812201F0B0BC30B5039D73B13C
:1032E0006DB12C68052C16D37F241C705870000A11
:1032F0009870D970002A05D04FF0010004E04FF01B
:103300000E0030BD4FF0000018714FF005001DD0C9
:1033100028680A2801D2092030BD11885971090A8C
:1033200099719078C0F340114901C0F3820441EAD9
:103330008401C0F3400441EA440100F0010001436C
:10334000D971D0781872107958720A20286000203C
:1033500030BD13467F2201F070BC000010B51C4642
:103360000B4601462068121A102A01D2092010BD0E
:103370001844102204F072F92068103020600020F8
:1033800010BD10B51446024618462368C91A102904
:1033900001D2092010BD9918102204F05FF92068AD
:1033A00010302060002010BD08B500788DF80000B6
:1033B000684601F098FC08BD38B51C461368002526
:1033C0008B4201D1092038BD6B4601F0A6FC9DF867
:1033D0000000217860F3030121709DF800000009CE
:1033E00060F307112170284638BD2DE9F0411646DB
:1033F0000F4680461C46FFF7DFFF050003D130680B
:10340000B84202D10920BDE8F081631C324639463A
:10341000404601F082FC2846F5E7F8B515460F4610
:10342000060016D0ADB11C4601F042FC00280FD1B9
:10343000A31C2A463946304601F03AFC002807D141
:1034400017480090231D2A463946304601F04EFEAB
:10345000F8BD0E20F8BD1CB530B12AB10624009489
:10346000019401F0B0FC1CBD0E201CBDF8B5154642
:103470000F46060012D08DB11C46AFF2F900009045
:10348000304601F033FE002809D101B0231D2A4641
:1034900039463046BDE8F04001F00ABC0E20F8BDC8
:1034A000B14C00082DE9F0478AB05FEA000A4FF0FE
:1034B000000098461546894602902ED0B8F1000FBC
:1034C0002BD0B9F1080F7DD306AB02AA494650466E
:1034D00001F0FDFB07AB02AA4946504601F0F7FB9D
:1034E00008AB02AA4946504601F0F1FB01AB02AA23
:1034F0004946504601F0EBFBBDF804000E2100EBFD
:10350000800001EB4007002D7ED0D8F80000B842C3
:1035100005D20C200AB0BDE8F0870E20FAE7322071
:1035200028806F80BDF81800A880BDF81C00E880D6
:10353000BDF820002881BDF80400A881029900EBA5
:10354000C0000144494569D8002660E006EB8600CA
:1035500005EB400404F10E0302AA4946504601F06F
:10356000B6FB04F1100302AA4946504601F0D5FB10
:1035700004AB02AA4946504601F0CFFB9DF810105B
:10358000A07C61F30000A0749DF81010490861F35D
:103590004100A0749DF81010890861F38200A074A6
:1035A0009DF81010C90861F3C300A0749DF81010B5
:1035B000090961F30410A0749DF81010490961F322
:1035C000451000E02AE0A0749DF8101009AB8909AD
:1035D00061F38610A07402AA4946504601F09DFB93
:1035E0009DF8240004F1140300F00100E07402AA25
:1035F0004946504601F06BFB04F1160302AA494606
:10360000504601F064FB00E00AE0761CB6B2BDF85B
:10361000040086429AD30299494501D0092079E7EE
:103620000020C8F8007075E72DE9F04186B01D460E
:1036300014465FEA00080E4645D0EDB30020019025
:10364000062E3CD308202F68286003AB01AA404611
:1036500001F03DFB04AB01AA3146404601F037FBC7
:1036600005AB01AA3146404601F031FB00207CB198
:103670002868B84223D834202080BDF80C00A080F0
:10368000BDF81000E080BDF81400208104F10C00AA
:1036900029680090791A029102AB01AA314640468E
:1036A00000F0E3FA00280BD12968029A114429603E
:1036B00004B16180019900E005E0B14200D0092029
:1036C00006B0BDE8F0810E20FAE7F8B505004FF02E
:1036D000000014460E4600900AD04BB10A2E2CD39F
:1036E000E8880A3034B11968814206D20C20F8BD4E
:1036F0000E20F8BD18600020F8BD1860362020802C
:10370000231D6A463146284601F0E1FAA31D6A46A8
:103710003146284601F0DBFA04F108036A463146D7
:10372000284601F0D4FA04F10C036A4631462846D3
:1037300000F0FFFA0099B142DED00920F8BD2DE972
:10374000F04786B05FEA000A4FF000001F461446BB
:10375000894600902AD04FB3B9F1080F63D302AB6A
:103760006A464946504601F0B2FA03AB6A464946FA
:10377000504601F0ACFA04AB6A464946504601F0A7
:10378000A6FA01AB6A464946504601F0A0FABDF8D8
:1037900004000E2100EB400001EB4006ECB338685A
:1037A000B04205D20C2006B0BDE8F0870E20FAE743
:1037B000332020806680BDF80800A080BDF80C0092
:1037C000E080BDF810002081BDF80400A0810099C0
:1037D00000EB80000144494525D800251AE005EB9F
:1037E000450004EB400808F10E036A46494650467E
:1037F00001F06DFA08F110036A464946504601F09F
:1038000066FA08F112036A464946504601F085FA05
:103810006D1CADB2BDF8040000E006E08542DED3C9
:103820000099494501D00920BDE700203E60BAE774
:103830002DE9F8435FEA00084FF00000144689467E
:103840001F4600900ED06FB1B9F10B0F4AD3B8F8F4
:10385000096006F113053CB13868A84206D20C2075
:10386000BDE8F8830E20FBE71D603EE03820208095
:103870006580231D6A464946404601F028FAA31D8B
:103880006A464946404601F022FA04F108036A46B6
:103890004946404601F01BFA04F10C036A464946CA
:1038A000404601F014FA04F10E036A4649464046C8
:1038B00001F033FA04F110036A464946404601F02C
:1038C00006FA009882194A450CD84EB108EB00015F
:1038D000324604F1120003F0C1FE0098304400901B
:1038E000484501D00920BBE73D600020B8E7000053
:1038F0002DE9F04786B05FEA000A4FF000009846D5
:103900001446894600902BD0B8F1000F28D0B9F1A9
:10391000080F68D302AB6A464946504601F0D7F912
:1039200003AB6A464946504601F0D1F904AB6A46FA
:103930004946504601F0CBF901AB6A46494650462C
:1039400001F0C5F9BDF804000E2101EBC006ECB38F
:10395000D8F80000B04205D20C2006B0BDE8F087D0
:103960000E20FAE7302020806680BDF80800A08095
:10397000BDF80C00E080BDF810002081BDF8040007
:10398000A0810099C0EBC000014449452BD8002517
:1039900022E000BF04EBC50707F10E036A46494663
:1039A000504601F094F907F110036A464946504623
:1039B00001F0B3F907F112036A464946504601F097
:1039C00086F907F114036A46494600E00DE05046C7
:1039D00001F07DF96D1CADB2BDF804008542D9D36C
:1039E0000099494501D00920B7E70020C8F80060D8
:1039F000B3E72DE9F8435FEA00084FF000001446F2
:103A000089461F4600900ED06FB1B9F10C0F4AD312
:103A1000B8F80A6006F113053CB13868A84206D22E
:103A20000C20BDE8F8830E20FBE71D603EE035204A
:103A300020806580231D6A464946404601F047F9CB
:103A4000A31D6A464946404601F041F904F10803C6
:103A50006A464946404601F03AF904F10C036A46C9
:103A60004946404601F033F904F10E036A464946DF
:103A7000404601F02CF904F110036A4649464046DD
:103A800001F025F9009882194A450CD84EB108EB8F
:103A90000001324604F1120003F0E0FD00983044CA
:103AA0000090484501D00920BBE73D600020B8E701
:103AB000F8B506004FF0000014460D4600900ED0F9
:103AC0006BB1082D37D3F0880A2100EB800001EBA1
:103AD000400034B11968814206D20C20F8BD0E2096
:103AE000F8BD18600020F8BD31202080231D6A46F3
:103AF0002946304601F0DCF80028F4D1A31D6A46BF
:103B00002946304601F0D4F80028ECD104F108032E
:103B10006A462946304601F0CBF80028E3D104F18B
:103B20000C036A462946304600F060F90028DAD1D5
:103B30000099A942D7D00920F8BD2DE9F8435FEAE2
:103B400000084FF0000014461D460F4600900AD0B2
:103B50004DB1032F1ED30D263CB128680D2806D287
:103B60000C20BDE8F8830E20FBE71E6015E039202D
:103B700020800D206080231D6A46404601F0A7F892
:103B800004F10C036A463946404601F0C6F8009835
:103B9000B84201D00920E4E72E600020E1E72DE9DA
:103BA000F8435FEA00084FF00000144689461F46BC
:103BB00000900ED06FB1B9F10D0F51D3B8F80B6072
:103BC00006F115053CB13868A84206D20C20BDE8C4
:103BD000F8830E20FBE71D6045E0372020806580DC
:103BE000231D6A464946404601F071F8A31D6A4606
:103BF0004946404601F06BF804F108036A4649461D
:103C0000404601F064F804F10C036A464946404618
:103C100001F05DF804F10E036A464946404601F0A2
:103C20007CF804F110036A464946404601F04FF81B
:103C300004F112036A464946404601F048F80098EC
:103C400082194A450CD84EB108EB0001324604F106
:103C5000140003F003FD009830440090484501D063
:103C60000920B4E73D600020B1E72DE9FC5F834601
:103C700010680C9C081A1E46154688464FF0000A2C
:103C8000042838D36B46584601F021F801AB2A4688
:103C90004146584601F01BF8BDF80000336804EBBC
:103CA000C0010A1BBDF80410121D01FB0022326086
:103CB000BCB361802080306898421CD8BDF80000F9
:103CC000002604EBC0073F1D26E004EBC60000F110
:103CD000040987602968A8EB010002280BD34B4632
:103CE0002A464146584600F0F2FF28686288A8EB51
:103CF00000018A4202D90920BDE8FC9F00EB0B01BC
:103D0000D9F8040003F0AAFC61882868761C0844EE
:103D10002860BDF804000744BDF800008642D4D3F3
:103D200005E0FFE72A68891C00FB01202860504657
:103D3000E2E72DE9F041074610681546081A0E46DD
:103D40001C464FF00008022807D3384600F0BFFF9A
:103D500028682288311A8A4202D90920BDE8F081F8
:103D6000C119A01C03F07AFC218828680844286047
:103D70004046F3E72DE9F041804610680027081A15
:103D800015460E461C46042801D20920E6E74046A7
:103D900000F09DFFA31C2A463146404600F097FFE5
:103DA0003846DBE72DE9F04115460E4607461C462E
:103DB00001F07DF80028D1D1231D2A46314638462E
:103DC000BDE8F041D6E7C9E72DE9F04115460E46BA
:103DD00007461C4600F06CFF0028BFD1A31C2A46F2
:103DE00031463846BDE8F041DCE7B7E72DE9F84356
:103DF0001C4615460E4680466B4600F059FF0028CB
:103E000013D1BDF8001024F8021B002709E0234657
:103E10002A4631464046FFF7D7FF002805D10A342D
:103E20007F1CBDF800108F42F1D3BDE8F88300007D
:103E30002DE9FF4784B09A46DDE910749046894623
:103E4000C7B3BCB30025A22001958DF808002668F1
:103E500001AB3246394602A800F045FF002826D1C2
:103E600001AB3246394604A800F011FF00281ED1EC
:103E70002848009001AB32463946484601F019F90E
:103E8000002814D12448009001AB32463946404600
:103E900001F00FF900280AD101AB324639465046ED
:103EA000009501F006F9002801D10199216008B0C0
:103EB000BDE8F087FFE70E20F9E72DE9FC411C463D
:103EC000174606000D4613D094B10020CDE90040FE
:103ED0000A46A22301A9304600F092FE002805D12F
:103EE000206838B10198A84211D10020BDE8FC81BA
:103EF0000E20FBE7094800903B4601AA29463046C0
:103F000001F0F4F80028F1D10199A942EED009207E
:103F1000ECE70000D1440008BF4500082B4600082C
:103F20002DE9F8435FEA00084FF0000014461D46F3
:103F30000F4600900AD04DB1032F1DD304263CB18B
:103F40002868042806D20C20BDE8F8830E20FBE781
:103F50001E6014E05320208004206080231D6A46E8
:103F6000404600F0B4FEA31D6A463946404600F0C4
:103F7000AEFE0098B84201D00920E5E72E6000208F
:103F8000E2E72DE9FF411D461446070088462DD083
:103F900065B30020019002202E68286003AB01AABF
:103FA000384600F085FE00281DD144B12868B04293
:103FB00018D851202080BDF80C00A080A01D2968D1
:103FC0000090711A029102AB01AA4146384600F0F6
:103FD0002CFC002807D12968029A11442960019A13
:103FE000424500D0092004B0BDE8F0810E20FAE778
:103FF000F8B50E4600211C46009148B144B1022E8E
:1040000016D3022532B12168022905D20C20F8BD51
:104010000E20F8BD1D600EE0542111800221518058
:10402000131D6A46314600F052FE0098B04201D09E
:104030000920F8BD25600020F8BD2DE9F8435FEAAE
:1040400000084FF0000014461D460F4600900AD0AD
:104050004DB1032F1DD303263CB12868032806D297
:104060000C20BDE8F8830E20FBE71E6014E0522010
:10407000208003206080231D6A46404600F027FE12
:10408000A31D6A463946404600F047FE0098B842F4
:1040900001D00920E5E72E600020E2E72DE9F84392
:1040A0005FEA00084FF0000014461D460F460090DE
:1040B0000AD04DB1032F1DD303263CB12868032835
:1040C00006D20C20BDE8F8830E20FBE71E6014E04A
:1040D0005520208003206080231D6A46404600F062
:1040E000F6FDA31D6A463946404600F016FE0098CC
:1040F000B84201D00920E5E72E600020E2E72DE973
:10410000FF411C461546070088462BD054B30020BB
:10411000019002202668206003AB01AA384600F017
:10412000C7FD00281BD135B12068B04216D8BDF8B4
:104130000C00A880A81D21680090711A029102ABA2
:1041400001AA4146384600F0CBFA002807D1216881
:10415000029A11442160019A424500D0092004B01E
:10416000BDE8F0810E20FAE72DE9F0471F46150063
:104170000E4605D027B136B1B16821B9F16811B149
:104180000E20BDE8F0873968052944D3A62129709F
:10419000691C00F086F8401C002E02D04FF001018F
:1041A00001E04FF00001295400F1010445D03968C5
:1041B00004F1070081422ED32919308800F071F8EC
:1041C0000444B0782855641C2919B08800F069F8B7
:1041D0000444B0684FF0000990B33A68211D8A4248
:1041E00019D30088B0F5007F01D90720C9E74FF047
:1041F000010805F80480B068641C2919008800F0E3
:1042000050F80444F068A8B1B0680188601C084404
:104210003968884201D90920B3E705F80480B068FD
:10422000641CF1680288281903F018FAB068008845
:10423000044402E005F80490641C00203C60A0E700
:10424000FFE705F80490641C05F80490F4E72DE9F5
:10425000FC411F46144606000D4613D094B10020C1
:10426000CDE900400A46A62301A9304600F0C8FC6B
:10427000002805D1206838B10198A8420FD0092044
:10428000BDE8FC810E20FBE7084800903B4601AAF0
:104290002946304600F02AFF0028F1D1ECE7002043
:1042A000EEE70870000A487002207047B14C000821
:1042B00030B5039C5BB154B12568042D1ED3A025F5
:1042C0001D705870002905D04FF0010004E04FF038
:1042D0000E0030BD4FF0000098704FF0030009D081
:1042E000206806280AD30D88DD702D0A1D71887894
:1042F000587106202568411C8D4201D2092030BD2D
:104300000AB1012100E000211954401C2060002066
:1043100030BD2DE9FC411E4680460020CDE90060FD
:1043200017460C460A46A02301A9404600F068FC47
:10433000050005D1306828B10198A04210D10020B5
:10434000BDE8FC8177B10198801CA04208D83B46AB
:1043500001AA2146404600F0BAFC0198A04203D0D1
:104360000920EDE70E20EBE72846E9E72DE9F041CB
:10437000074610681546081A0E461C46072802D242
:104380000920BDE8F081384600F0C7FC631C2A46CE
:104390003146384600F0C1FCA31C2A463146384657
:1043A00000F095FC231D2A463146384600F0B5FC46
:1043B000A31D2A463146384600F089FC0020E0E77C
:1043C0002DE9F0411D4616460F46044600F08BFCD1
:1043D0000028D6D12B4632463946601C00F083FCBB
:1043E0000028CED12B4632463946A01C00F04FFCA7
:1043F0000028C6D12B4632463946201D00F073FCFA
:104400000028BED12B4632463946A01DBDE8F041FA
:1044100000F03DBCB5E72DE9F0411D4616460F46BC
:104420000446FEF7C1FF0028ABD12B463246394681
:10443000601CFEF7B9FF0100A3D1A078C0F34102D0
:10444000012A00D00721034662F35F03C0F3C002D4
:1044500043EAC202C0F3001042EA00122868B042E8
:1044600001D109208DE73A542868401C286008468D
:1044700087E72DE9F84316460F4680461C46FEF7AF
:104480009BFF00280BD1631C324639464046FEF79D
:1044900093FF050003D13068B84202D10920BDE87E
:1044A000F8836B4632463946404600F036FC9DF8AC
:1044B0000020A178500862F3000160F34201D008A7
:1044C00060F3C301100960F30411A1702846E6E708
:1044D0002DE9FC410446007816468846C0F34002A8
:1044E000014662F35F01C0F3800241EA8201C0F33A
:1044F000C00241EAC201C0F3001241EA0211C0F356
:10450000401241EA4211C0F3801041EA80108DF858
:1045100004001D463246414601A800F0E4FB002895
:104520001CD160782B46C0F3400161F35F008DF829
:1045300004003246414601A800F0D5FB00280DD109
:104540002B463246414604F1080000F0A0FB00284B
:1045500004D16189B1F5007F02D90720BDE8FC8153
:10456000009533464246606800F05EFC0028F5D1B5
:10457000AFF2B31000902B4632464146E06800F09F
:1045800098FD0028EAD1AFF2711700972B4632460A
:104590004146206900F08DFD0028DFD100972B46B1
:1045A00032464146606900F084FD0028D6D100976C
:1045B0002B4632464146A06900F07BFDCEE7F8B5B8
:1045C0000446E04800901D4616460F46206800F05D
:1045D00070FD002821D1AFF2C11000902B46324669
:1045E0003946606800F065FD002816D12B4632463A
:1045F000394604F10A0000F04AFB00280DD12B4691
:104600003246394604F10C0000F041FB002804D189
:104610002189B1F5007F01D90720F8BD0095334607
:104620003A46206900F000FCF8BD2DE9F04107464C
:1046300010681546081A0E461C46082801D20920A3
:104640009FE6384600F043FBA31C2A463146384615
:1046500000F03DFB231D2A463146384600F037FB6B
:10466000A31D2A463146384600F031FB002088E67B
:104670002DE9F04116460F4680461C4600F017FC17
:10468000002815D1231D32463946404600F00FFC64
:1046900000280DD104F1080332463946404600F0A7
:1046A00006FC050004D13068381A052801D209201B
:1046B00067E604F10C0332463946404600F007FB3A
:1046C00004F10E0332463946404600F000FB04F187
:1046D000100332463946404600F01FFB284650E69C
:1046E0002DE9F0478CB01C46149F15468A465FEAB8
:1046F000000850D0EDB3E4B31A20D4F80090206045
:1047000005AB404600F0D4FA002841D103AB2A465D
:104710005146404600F0F4FA002839D107AB2A464A
:1047200051464046FFF7A4FF002831D102AB2A468C
:104730005146404600F0BCFA002829D104AB2A4675
:104740005146404600F0B4FA060021D1BDF81000F1
:1047500021680844206037B33C46484517D8BDF867
:10476000140020809DF80C00A070122207A9201DC3
:1047700000E010E002F072FFBDF80800E082BDF832
:10478000102022832868AAEB00018A4205D909205B
:104790000CB0BDE8F0870E20FAE700EB080104F149
:1047A0001A0002F05BFFBDF810102868084428606A
:1047B0003046EDE72DE9F0438BB01D46129C1646BE
:1047C00089465FEA000821D006B316202F682860CA
:1047D00002AB404600F06CFA002814D104AB32461C
:1047E00049464046FFF744FF00280CD103AB324650
:1047F0004946404600F05CFA060004D19CB12868A6
:10480000B84205D909200BB0BDE8F0830E20FAE7C5
:10481000BDF808002080122204A9A01C02F01EFF8F
:10482000BDF80C00A0823046EDE72DE9FE431D46A1
:104830000A9C16468846070015D0A5B19EB101AB6B
:1048400000F05EFA00280CD129680220029128604D
:1048500000208CB19DF8040020702868884204D99B
:104860000920BDE8FE830E20FBE79DF80400012827
:1048700001D0022806D1A01C9DF80410012903D004
:10488000022909D00B20ECE7009002AB32464146EA
:104890003846FFF78FFF06E0009002AB32464146F4
:1048A0003846FFF71DFF0028DBD12968029A114422
:1048B0002960D6E72DE9FC411D4616460F46044601
:1048C00000F0E5F900281BD1A0782B4600F001008C
:1048D0008DF804003246394601A800F004FA002899
:1048E0000ED12B4632463946201D00F0D0F9002863
:1048F00006D10095E18833463A46A06800F094FA64
:104900002CE600F0C4B92DE9F0411D4616460F46CD
:10491000044600F0E8F9002805D12078012803D0EA
:10492000022808D007202CE52B4632463946201DA8
:10493000BDE8F041BEE72B4632463946201DBDE8B2
:10494000F041DEE7874E000830B5039C6BB164B1DF
:104950002568042D1ED3AA251D705870000A987072
:10496000002A05D04FF0010004E04FF00E0030BDEA
:104970004FF00000D8704FF0040007D020680628E0
:1049800008D312881A71120A5A7106202568421C2F
:10499000954201D2092030BD01B101211954401CBA
:1049A0002060002030BD2DE9FE431C460A9F904642
:1049B0000D46060034D097B30020CDE900700A46BA
:1049C000AA2301A9304600F01BF9002825D1386838
:1049D00018B10198A84235D136E00198C01CA84210
:1049E00030D802AB01AA2946304600F070F901998F
:1049F000705C491C0191012805D0002CE9D0BDF85C
:104A000008002080E5E7B8F1000F09D03CB120880C
:104A1000BDF80820904205D20C20BDE8FE83FFE7D8
:104A20000E20FAE78818A8420CD83144404602F01C
:104A300015FEBDF808002080BDF808100198084454
:104A40000190C6E70920E8E70020E6E770B51446C4
:104A5000049D6BB165B12A68042A1BD3A9221A7080
:104A60005870000A9870002905D04FF0010004E04A
:104A70004FF00E0070BD4FF00000D8704FF00400F2
:104A800012D0B4F5007F01D9072070BD2A68A01D9F
:104A9000904201D9092070BD1C71220A5A71981DDB
:104AA000224602F0DBFDA01D2860002070BD1346E9
:104AB000A92200F0C2B82DE9F04115460246DDE911
:104AC0000604F0B1ECB12668052E29D3A4260670A1
:104AD0004270120A8270C170090A017121680022B5
:104AE0008DB109291CD3012747712E888671360A9A
:104AF000C671F3B12988B1F5007F0AD90720BDE856
:104B0000F0810E20FBE707290AD34271827107204A
:104B100011E007722A88266802F10901B14201D921
:104B20000920ECE71946093002F098FD2888093081
:104B300001E00272092020600020E0E72DE9FC413D
:104B40001D46174606000C4611D085B10020CDE960
:104B500000500A46A42301A9304600F051F800286D
:104B600006D1286830B10198A0420ED10FE00E2086
:104B7000BDE8FC810198801CA04206D83B4601AAF2
:104B80002146304600F0A3F8EDE70920F0E70020C9
:104B9000EEE72DE9FF411D461446070088462DD05B
:104BA00064B35DB30020019002202E68286003AB3F
:104BB00001AA384600F07CF800281CD1231D01AA68
:104BC0004146384600F074F8002814D12868A41D26
:104BD000301A029002AB01AA41460094384600F018
:104BE000A8F9002807D12968029A11442960019A7E
:104BF000424500D0092004B0BDE8F0810E20FAE75C
:104C000030B5039C28B121B11CB1052A03D20C2078
:104C100030BD0E2030BD0A68855C9D4201D00B205E
:104C200030BD401C1044C278006862F31F602060F1
:104C30000868401D0860002030BD1CB50C460021EE
:104C4000CDE900311346224601A9FFF7D9FF00281C
:104C500003D10198A04201D00C201CBD00201CBD36
:104C600010B538B132B12BB11468091B042903D235
:104C7000092010BD0E2010BD2044C178006861F3EA
:104C80001F6018601068001D1060002010BD10B576
:104C90001C68121B022A01D2092010BD2144008881
:104CA0000870000A48701868801C1860002010BD49
:104CB00010B51468091B022901D2092010BD204437
:104CC000008818801068801C1060002010BD30B56E
:104CD0001468A51C8D4205D82044008818801068EF
:104CE000801C106030BD10B51C68944201D10920B1
:104CF00010BD007808551868401C1860002010BDD1
:104D000010B514688C4201D1092010BD005D1870E7
:104D10001068401C1060002010BD30B51468651C80
:104D20008D4204D8005D18701068401C106030BDC2
:104D300030B51468651C8D4204D8005D1870106889
:104D4000401C106030BD2DE9F8439C46089C9046FD
:104D50000D46060001D0012000E000208DF8000083
:104D60002346624641466846FFF7BDFF070006D16D
:104D70007EB12068ACEB0001A94202D20920BDE857
:104D8000F88340442A46314602F068FC20682844F3
:104D900020603846F3E7FFB581B01D4616460A9CF1
:104DA000074623462A46314602A8FFF79CFF002803
:104DB00007D12B46324600949DF808103846FFF77D
:104DC000C2FF05B0F0BD2DE9F8434FF0000C80465E
:104DD0008DF800C0DDE9089610680F461D461446A0
:104DE000B84215D06B464046FFF797FF9DF800008C
:104DF000012804D00DB1C5F800C00020BFE74DB1B7
:104E0000286838B14E4503D821687A1AB24203D2D5
:104E10000920B4E70E20B2E74144324602F01EFCFE
:104E2000206830442060E8E7FFB581B01D46164693
:104E30000A9C074623462A46314602A8FFF727FF69
:104E40000028BED12B4632460094BDF808103846E3
:104E5000FFF779FFB5E72DE9FC411E46089C174690
:104E60008C46804625882346FFF722FF002808D17C
:104E700020883346CDE900503A4661464046FFF768
:104E8000A2FFBDE8FC812DE9F0411D4616460F4604
:104E90000446FFF7FCFE002807D12B463246394670
:104EA000A01CBDE8F041FFF71EBFBDE8F0812DE971
:104EB000F041074610681546081A0E461C4603289E
:104EC00001D20920F1E73846FFF701FFA31C2A466B
:104ED00031463846FFF721FF0020E6E770B51C4653
:104EE0000B46014620680025121A102A01D209201B
:104EF00070BD1844102202F0B1FB20681030206011
:104F0000284670BD2DE9F04115460F4606000ED02B
:104F10006DB163B11C46FFF7CBFE0028C5D1A31CC1
:104F20002A4639463046BDE8F041FFF7C1BE0E20A3
:104F3000BBE72DE9FC471F460A9C15468A465FEAF7
:104F4000000829D045B33FB3D7F8009028680190F6
:104F50000020ADF800006B4601AA4046FFF7A8FE0E
:104F6000060017D1BDF800102144081B001D386051
:104F7000ECB148450DD823462A4651464046FFF736
:104F8000C1FF060006D128682288AAEB00018A42E8
:104F900004D90920BDE8FC870E20FBE700EB0801DF
:104FA000201D02F05BFB21882868084428603046F9
:104FB000F0E710B51C68944201D1092010BD0078BB
:104FC00000F0010008551868401C1860002010BD52
:104FD00070B5049D53B14DB12C68022C1DD36524CE
:104FE0001C70002805D04FF0010404E04FF00E00C3
:104FF00070BD4FF000045C704FF0020409D02C68C3
:10500000052C0AD306889E70360ADE7080781871E7
:1050100005242E68A01C864201D2092070BD09B16A
:10502000012000E000201855641C0AB1012000E0B6
:1050300000201855641C00202C6070BD2DE9FC4137
:1050400007460020089CCDE90040164698460D46CC
:105050000A46652301A93846FFF7D2FD002818D17A
:10506000206818B10198A8421FD120E0019801469C
:10507000401CA84219D87C5C0190002EF2D0B8F1F7
:10508000000F10D00119A9420FD83178A14202D2E5
:105090000C20BDE8FC8139182246404602F0DEFAB9
:1050A0000198204401903470DCE70920F1E70020EA
:1050B000EFE7F0B405461E680020049C964202D13A
:1050C0000920F0BC7047002D02D04FF0010701E02D
:1050D0004FF000078F551E6806F101061E60F0D0E4
:1050E000002CEED02846A446F0BC60472DE9F843DA
:1050F0008846116881460025089E1C461746404692
:10510000414502D10920BDE8F88301466B46484677
:10511000FFF703FE9DF80000012803D078B10B25AE
:105120002846F0E74CB123683BB1002EF8D03A4650
:1051300041464846B0470546F2E70E20E3E7002C1B
:10514000EED000202060EBE740B139B10A683AB1F7
:105150003122027001200860002070470E20704745
:10516000092070471CB514460022019229B124B1D0
:105170002268032A03D209201CBD0E201CBD602218
:105180000A7001220192074A009201AB2268FFF7E0
:1051900090FF0028F2D1019921601CBD13466022C6
:1051A000FFF74BBDB34F000808B50A88102A17D087
:1051B000112A17D0502A18D1027D002A15D031F8B3
:1051C000062F43899A4210D10A8B022A0DD1026818
:1051D000002A0AD0897E11F0010F07D0002106E0D5
:1051E000898801E04FF6FF71418208BD01218DF8E9
:1051F00000106946904708BD33B585B004469DF858
:105200001810227C00208A4238D00125ADF81050B9
:105210002174E08806AB04AA002102F042F820B114
:10522000184A4FF49671FBF747FBFDF7ABF80028DF
:1052300024D1608AA0F57F41FF3921D0207DF8B1CB
:1052400000200090019002900390ADF81050E1888A
:10525000ADF8040004A8ADF80010029006A88DF87F
:1052600002500390608A694601F06AFF20B1054A46
:1052700040F24311FBF720FBFDF784F807B030BD87
:105280000820FBE72479000808B50A88102A14D002
:10529000112A14D0502A15D131F8062F83899A4249
:1052A00010D10A8B022A0DD10268002A0AD0897E09
:1052B00011F0010F07D0002106E0898801E04FF6C8
:1052C000FF71018408BD01218DF8001069469047E7
:1052D00008BD2DE9F041044640799046002500B113
:1052E000042594F8220008B145F00205CAB2FF294E
:1052F00008D9090A88F8012045F0010588F802104C
:10530000032602E088F801200226B4F84C0008B118
:1053100045F01005002718E0B01C14280BD9B4F88C
:105320004C0004EB4701C01B420004F1240024316F
:1053300002F0D9F90DE004EB470108EB0602898C75
:105340001170090A5170C6B27F1CB4F84C00B84203
:10535000E2DC34F84C0FC01B208088F80050304647
:10536000BDE8F08130B50546008C8BB0A0F57F42DA
:10537000FF3A2CD005AA2846FFF7ABFF0446ADF84C
:105380000000002001900290039004902989ADF85C
:1053900004100121ADF808008DF8061005A8CDF81D
:1053A0000CD00490288C01A901F0CAFE20B1184A43
:1053B00040F28F11FBF780FAFCF7E4FF002804D1DC
:1053C000BDF80010A14200D00C200BB030BD082069
:1053D000FBE770B50446B0F84C000D4614280AD11E
:1053E00004F126012622881E02F07DF9B4F84C0053
:1053F000401EA4F84C00B4F84C0004EB4001401CE3
:10540000A4F84C008D8470BD80F822107047000015
:105410006879000808B50A88102A0ED0112A0ED023
:10542000502A10D0532A0DD1C988C288914209D17F
:1054300002218DF80010026819E0898801E04FF61A
:10544000FF71C18208BD31F8062F43899A42F9D114
:105450000A8B022AF6D10268002AF3D0897EC1F3B2
:10546000400109B1002100E001218DF800106946DA
:10547000904708BD30B50878002300B101234C786F
:105480000CB143F0020320B143F001030C7B086927
:1054900001E00C79886864F31F605070050A95700C
:1054A000050CD570000E10714C78052084B18C8AE3
:1054B0005471240A94718C7DD471CC7D14720C7E4D
:1054C00054724C7E94728C7E43F00203D4720C2092
:1054D0008C7824B1097F115443F00403401C1370ED
:1054E00030BD38B50446086820604FF6FF70E08292
:1054F000887A207601208DF8020041F609000D46D9
:10550000ADF80000221D6946012001F052FE20B1D5
:10551000844A40F25911FBF7CFF9FCF733FF00281A
:105520001ED12946204600F04DF820B17D4A40F2B8
:105530006311FBF7C1F9FCF725FF002810D1687A49
:1055400068B12946204600F0A4F820B1754A40F21F
:105550006F11FBF7B1F9FCF715FF002800D100200F
:1055600038BD30B50446C08A8BB0A0F57F42FF3A03
:1055700026D005AA2046FFF77DFF0546ADF80000BE
:1055800000200190029003900490E188ADF804108F
:105590000221ADF808008DF8061005A8CDF80CD052
:1055A0000490E08A01A901F0CBFDFCF7EBFE002896
:1055B00004D1BDF80010A94200D00C200BB030BDC2
:1055C0000820FBE770B59CB00024064608949DF8BF
:1055D00020000D4620F00F00401C20F0F00010309D
:1055E0008DF820009DF8220020F00600801C8DF828
:1055F000220008798DF821001C2101A802F0E7F8AB
:105600009DF80400029440F020008DF8040008A8E2
:105610000494CDE90540012007948DF86E0042F610
:105620001C20ADF86C0000949DF8020020F00600EC
:10563000801C8DF8020069798DF80010A9798DF829
:10564000011020F0180040F001008DF80200142134
:1056500009A802F0BCF820210EA802F0B8F81BA897
:105660000990CDF828D016AA0EA93046FFF702FF00
:10567000ADF82C001420ADF8300016A8ADF82E407F
:105680000D90B088B31D09AA01A901F0CBFD1CB093
:1056900070BDF0B58FB00D4606461C2101A802F082
:1056A00096F89DF80400002440F002008DF80400F4
:1056B000012705948DF8367042F61D20ADF83400B0
:1056C00000949DF80200029420F00600801C8DF8E2
:1056D0000200049406940794E9798DF80010297A61
:1056E0008DF8011020F019008DF80200142108A88F
:1056F00002F06DF8A87A8DF838000DA80890ADF882
:1057000028700EA8CDF824D0ADF82A40ADF82C7042
:105710000C90B08806F10E0308AA01A901F082FDE1
:105720000FB0F0BDAC7900081CB501AA0092314A57
:105730000CCAFFF783FC18B12FA25721FBF7BCF866
:1057400001F097F901981CBD2DE9FC410746294855
:1057500015460E46C0E9001201F083F90446002008
:10576000207040F2FD10019001A80090631C2A46B1
:1057700031463846FFF72CFC18B11FA27321FBF706
:105780009BF801992A4B491C00222046019101F007
:105790007DF90020BDE8FC8108B56A46FFF7FEFCF4
:1057A00020B115A240F25B11FBF786F801F061F918
:1057B000009808BD38B5054601F053F904460020AD
:1057C000207040F2FD1000906A46611C2846FFF7E9
:1057D000C9FC20B108A240F26F11FBF76DF80099E7
:1057E000144B491C00222046009101F04FF9002083
:1057F00038BD0000B80000202E2E5C2E2E5C2E2E10
:105800005C4C69627261726965735C53544D78785F
:105810005F6E524635315F4472697665725C4C69E1
:10582000625C626C655C7372635C626C652E6300C3
:1058300029570008995700082DE9FC5F4FF0000830
:105840000C9C994692468B4607462678454645E08D
:105850007868002200EB850069460068019001A885
:10586000FFF772FF18B1FEA2D921FBF725F8FCF76C
:1058700089FD00280FD19DF8001051452DD1B8F1B8
:10588000000F01D0002200E00222207811440144E0
:105890001F2902D90C20BDE8FC9FB8F1000F07D1E9
:1058A000401CC0B2411C217009F800B04FF0010843
:1058B000217801A801EB09026946FFF745FF18B1FD
:1058C000E7A2F621FAF7F8FFFCF75CFD0028E2D129
:1058D00020789DF80010084420706D1C3888A8427C
:1058E000B6DCB8F1000F04D02078801B401E09F808
:1058F00006000020CFE7F8B51546069C1E46074671
:1059000002220094FFF798FF002806D133461022A8
:10591000294638460094FFF78FFFF8BD2DE9F8437C
:10592000002605461670007814460F4620B128461A
:1059300000F0C0F8060015D1A87828B121463846F5
:1059400000F0F6F806000DD1A8884FF00C0900B35E
:10595000A9684FF0010839B122781118891C1F2954
:1059600004D94846BDE8F8830720FBE7511C2170A5
:10597000401CB8542078411C217007F8008023781F
:10598000AA88D819A96801F069FE20782979084405
:105990002070E86898B1217890F90080C81C1F2811
:1059A000DFD8481C022320707B5421780A23481C2E
:1059B00020707B542078411C217007F80080288AD1
:1059C00048B13B460622022105F110000094FFF782
:1059D00092FF0600C6D1288B48B13B46072203211F
:1059E00005F118000094FFF786FF0600BAD1288C55
:1059F00048B13B461522142105F120000094FFF721
:105A00007AFF0600AED1A86A28B12246394600F0D6
:105A1000B9F80600A6D1E86A28B12246394600F056
:105A2000F3F806009ED195F8340030B1224639468D
:105A3000284600F05BF9060094D1304692E770B535
:105A40000D4692B000218DF800108DF80410072447
:105A500088B1818821B1816811B10978490702D4E0
:105A6000204612B070BD6A4602A9FFF757FF002812
:105A7000F7D102AE00E000265DB1A8880028EFD182
:105A800001AA0AA92846FFF749FF0028E9D10AAA76
:105A900000E000229DF804309DF80010304601F02F
:105AA000A5F920B16EA24FF42471FAF705FFFCF7B7
:105AB00069FCD6E72DE9F84314780746A01C154683
:105AC0000E461F2803D87878801C1F2801D90C2087
:105AD00048E7C4F11D001FFA80F83019ADF80080C6
