:020000040001F9
:10600000F83F0020596201006B6201006D620100DF
:106010000000000000000000000000000000000080
:106020000000000000000000000000006F6201009E
:1060300000000000000000007162010073620100B6
:10604000756201007562010073C70100756201008D
:1060500075620100000000008D660100756201009C
:1060600075620100756201007562010075620100D0
:1060700075620100756201007562010075620100C0
:1060800075620100756201007562010075620100B0
:106090007562010075620100996901007562010075
:1060A0007562010075620100000000000000000040
:1060B00000000000000000000000000000000000E0
:1060C00000F002F800F040F80CA030C8083824189E
:1060D0002D18A246671EAB4654465D46AC4201D120
:1060E00000F032F87E460F3E0FCCB6460126334212
:1060F00000D0FB1AA246AB4633431847846E00001B
:10610000A46E0000103A02D378C878C1FAD85207BA
:1061100001D330C830C101D504680C60704700005D
:106120000023002400250026103A01D378C1FBD8B3
:10613000520700D330C100D50B6070471FB5C04671
:10614000C0461FBD10B510BD06F0EDFC1146FFF7AF
:10615000F5FF00F0A3F806F005FD03B4FFF7F2FF2A
:1061600003BC06F009FD0000401E00BF00BF00BFD9
:1061700000BF00BF00BF00BF00BF00BF00BF00BF27
:1061800000BFF1D17047000070B505460C461646B9
:1061900002E00FCC0FC5103E102EFAD2082E02D30B
:1061A00003CC03C5083E042E07D301CC01C5361F1E
:1061B00003E021782970641C6D1C761EF9D270BD35
:1061C00010B500F01DF8002805D01F491D48486093
:1061D000C8131E4988611E48018CC9B201290ED11D
:1061E000818C09070BD1018D0906090F042906D1FD
:1061F000808D0006000F02D116490120886010BD75
:106200001348018CC9B2012917D1818C090714D117
:10621000018D09060A0F03D1828D1206120F0ED0CE
:10622000090F012903D1828D1206120F07D003290D
:1062300003D1808D0006000F01D00020704701209F
:1062400070470000DFFF07C000050040006C004001
:10625000C00F00F0000600400A48026803210A430C
:1062600002600948804709480047FEE7FEE7FEE76D
:10627000FEE7FEE7FEE7000005480649044A064B34
:106280007047000024050040C1610100C1600100A9
:10629000102C0020F83F0020102C0020254A10214F
:1062A000502000F0C7FB002803D023A2262100F0D5
:1062B00073F9244B502224490E2000F051FB002892
:1062C00003D01DA22C2100F067F9204800F05CFBF0
:1062D000002803D018A2302100F05EF91C4800F01D
:1062E0007AFD002802D014A234210EE000F068FCF0
:1062F00000F08AF9002803D00FA2412100F04CF9E8
:1063000040DF0028F2D00CA2452100F045F9EDE76E
:1063100010B500210F4A084600F0A0FB10BD10B5D3
:10632000002904D00CA29921002000F035F900F0DA
:10633000D9FA10BD242100202E2E5C6D61696E2ECD
:106340006300000011630100FC2600201F660100AD
:10635000C96501001F6301002E2E5C2E2E5C2E2EBF
:106360005C2E2E5C2E2E5C496E636C7564655C73CE
:10637000645F636F6D6D6F6E5C736F66746465767A
:106380006963655F68616E646C65722E6800000009
:1063900010B504001DD02268A188501C491E127837
:1063A00089B2002A07D0032A08D00B480B4A3521AE
:1063B00000F0F2F806E000F013F801E000F058F801
:1063C000002804D1206800F02EFD002800D0032012
:1063D00010BD0E2010BD0000FECADDBA78CD010050
:1063E0007FB50E4604000FD0002E10D00020029082
:1063F00001902578039001A902A800F03DFD042832
:10640000F9D0002805D02DE00E2004B070BD092081
:10641000FBE7029A01201070019801AB401E019029
:1064200031462046521C05F009FF062802D00028FC
:106430000FD017E00C480D4A382100F0ADF803A842
:10644000029A009001AB06212846521C04F01CFE63
:10645000DBE70198401C81B20190029800F026FD14
:106460000028D2D00320D0E7FECADDBAC0CD01009B
:106470007CB50D46040018D00020019000906946BC
:1064800001A800F0F9FC0428F9D000280ED10199E8
:10649000042008700098174A401E009029462046A4
:1064A00000F0D8FF002802D015E00E207CBD019935
:1064B0006A460020491C00F0F5FF00280BD1009827
:1064C0000D4A401C01210090117081B2019800F02A
:1064D000EDFC0028EAD003207CBD10B5064800780A
:1064E000002806D011DF00F093FC024807C800F036
:1064F00019FF10BD4C270020042000201CB504000B
:1065000004D1234A1C210E2000F046F800200190FF
:106510000090694601A800F0AFFC0428F9D00028DB
:1065200003D01B4A2C2100F037F8019A022010708A
:1065300000986B46401E009000212046521C00F03F
:10654000C7FF062815D0002803D0114A372100F0D4
:1065500023F80098401C81B20090019800F0A6FC3E
:10656000002803D00A4A3A2100F016F800F0D4FAC5
:106570001CBD019800F060FB002803D0044A4721AD
:1065800000F00AF80348024A482100F005F81CBD53
:1065900008CE0100FECADDBA074A032111600121BD
:1065A000064A890291600649884200D0FEE770479A
:1065B0000A4601460348EFE728070050000500504F
:1065C000FECADDBAEFBEADDE10B5030006F0DBFAA1
:1065D0000504090C1216080000F0C8FAFFF77DFF49
:1065E00010BD00F099FA10BD14488260416001218D
:1065F000017010BD1248134A502102E0114A562181
:106600000F20FFF7C9FF10BD10B50C4900200A7814
:10661000002A03D00870081DFFF7BAFE10BD10B5A0
:106620004188094A091D89B200F018FA002803D0F0
:10663000044A7E21FFF7B0FF10BD000008200020B3
:10664000FECADDBA54CE0100FD640100F0B500229F
:106650000123032636041F469740394212D0C568ED
:106660003D4203D1012464043D4301E03446BD436F
:10667000C560914D97007D192F68B7432F602F6833
:1066800027432F60521C202AE5D3F0BDF8B58B4874
:1066900005698B490020C863074632E014213A4659
:1066A0004A434168806854180121B940014226D00C
:1066B000E068C64320686E40064031462046FFF73A
:1066C000C5FF7E48006968400CD00543E06821683A
:1066D000C04368400840014600902046FFF7B6FFDF
:1066E000009806433046A168A84301402A466068E6
:1066F0003240104002460A4301D0226990477F1C75
:10670000FFB2704841788F42C8D3F8BDF0B56D4AEA
:1067100000215368142250430124674D03273F048E
:106720001E5822468A40164206D08A005219166820
:10673000BE43166016681660491C2029F0D3F0BDD0
:1067400010B5002903D08A070024002A01D00720B1
:1067500010BD5C4A0B4651601070142154704143C7
:106760001846946006F0C9F900205749C043886074
:10677000564840210160564A1068FF231B04984385
:106780000B041843106053480160002010BDF8B599
:106790004C4F84467D68002D07D0002B07D07878B9
:1067A0003C78A04205D30420F8BD0820F8BD07209E
:1067B000F8BD0E461424164344432E516419236138
:1067C000A260616061460870411C7970FFF79EFF0E
:1067D0000020F8BDF0B53B4A5168002904D0537839
:1067E000984203D30720F0BD0820F0BD344B0025AC
:1067F000DD63324B1C699768002F02D1324EDB05F6
:106800007360012686403E4396601422504342182E
:10681000D560002201230D5893401D4215D01C4223
:1068200002D003252D0405E001256D044618F76804
:106830001F43F760204B9600F3181E6803273F04A0
:10684000BE431E601E682E431E60521C202AE1D3E8
:106850000020F0BD70B51B4C05466068002804D0D0
:106860006078854203D3072070BD082070BD28469C
:10687000FFF74CFF0121A068A9408843A06003D125
:1068800001201149C0078860002070BD0D4B5A6877
:10689000002A04D05B78984203D307207047082071
:1068A0007047142358438018044A12690068024054
:1068B00000200A60704700000007005000050050EB
:1068C00040610040142000200063004080E200E0AE
:1068D00004E400E000E100E010B508461146FFF7CF
:1068E00067FE10BDF8B5354C2078002837D02069F8
:1068F000002807D00026E068002805D00025002EDB
:1069000004D013E00126F6E70125F8E7684651DFD9
:10691000052806D0002806D029A26921FFF73CFEF1
:1069200004E0012602E0216900988847002D12D179
:10693000608869460880A06861DF052806D00028C5
:1069400006D01FA28021FFF727FE04E0012502E008
:10695000E168A0688847002ED8D0002DCFD0F8BDC0
:1069600070B5002901D08C0701D0072070BD134CF1
:106970000125A16062802049636010DF0028F5D105
:106980002570162026DF70BD002803D00B49C86093
:10699000002070470E20704710B508484068002856
:1069A00008D08047002804D0FF2105A23331FFF72B
:1069B000F3FD10BDFFF796FF10BD00002020002062
:1069C0002E2E5C2E2E5C2E2E5C2E2E5C2E2E5C53DC
:1069D0006F757263655C73645F636F6D6D6F6E5C22
:1069E000736F66746465766963655F68616E646C15
:1069F00065722E6300000000D9680100894948686B
:106A0000C005C00D14D0103807D50207120F083A80
:106A1000920892005118C96904E08108824A8900ED
:106A2000891809688007C00EC1400806800F7047AA
:106A30000420704730B5CB0008339DB29307002483
:106A4000002B01D0072030BD784BDA6052191A6153
:106A50005C701C7058809980002030BDF7B5734C75
:106A600082B060880E46814254D800206946704D3D
:106A70000870FFF7C3FF0746012809D068462EDFDC
:106A800002280BD0002803D06A4A5C21FFF784FD5E
:106A90006078A188884203D2401C02E072B6F7E712
:106AA00000202278C0B2904207D065786078884292
:106AB00001DA401C00E000206070012F0BD062B6AC
:106AC000684600782FDF022805D0002803D0594AF5
:106AD0006421FFF761FD5648854219D0E068EF0058
:106AE0000499C151029900290CD0002E0AD0608867
:106AF000324645432069281805F097FFE0683818AA
:106B0000868002E0002138188180002005B0F0BDA9
:106B10000420FBE70920F9E738B500206946087032
:106B2000FFF76CFF0446012809D068462EDF0228D3
:106B30001AD0002803D03F4AAE21FFF72DFD3B4875
:106B400081684A1C01D0491C8160012C0BD062B6BF
:106B5000684600782FDF022805D0002803D0354A88
:106B6000B421FFF719FD38BD72B6E8E738B500204B
:106B700069460870FFF742FF0446012809D06846BD
:106B80002EDF02281AD0002803D02A4ABA21FFF7A4
:106B900003FD26488168002901D0491E8160012C2F
:106BA0000BD062B6684600782FDF022805D0002897
:106BB00003D0204AC021FFF7EFFC38BD72B6E8E7EA
:106BC0003EB51A4C04E068468188029A00989047C6
:106BD000A068002806D102AA01A9684600F003F8BF
:106BE0000028F0D03EBD70B5104B05245D781E78AE
:106BF000B54215D01D781C789E88B44201DA641C19
:106C000000E000241C705C881E696C43A4190460B9
:106C1000DB68E800C418A4880C80185800241060B1
:106C2000204670BD00ED00E000E400E034200020CC
:106C3000FFFF00009CCE010001460020002904D087
:106C4000B14A914203D0102070470E207047AF49DF
:106C50004A68022A03D0042A01D008207047012282
:106C60004A607047F7B584B0052000250090A7481A
:106C700001950295049A042402268768016813008E
:106C800005F081FF0705216C7C93989EA600416862
:106C9000032906D09E4A64210020FFF77DFC07B03F
:106CA000F0BD064644609848FFF7C6FF002803D0B1
:106CB000974A5C21FFF770FC28460095B3680246AE
:106CC00001469847EBE7012200926A46928A012327
:106CD0005B029A4204461BD8012904D0042911D032
:106CE0008B4A8221D8E72A4601990098B8478948FB
:106CF00005F02DFE002803D0854A7521FFF74CFCD6
:106D00002660CCE72A4601990098B847052014E090
:106D1000012904D0042912D07D4A9921BCE72A46D2
:106D200001990098B847002005F011FE002803D013
:106D3000774A8C21FFF730FC03202060AFE72A461A
:106D400001990098B847002005F001FE002803D003
:106D50006F4A9321FFF720FC0620EEE7022902D0BC
:106D60006B4AB02198E70460009605990191694645
:106D70000A8B0A813046029A019927E005460329C9
:106D800004D006290AD0624AC82185E70320009072
:106D9000029A0199B8470120286080E703200090FB
:106DA000029A0199B8472C6079E7294620460A469D
:106DB00000940BE0012120462A460094019105E051
:106DC0000094059A2046314601960292B84766E73C
:106DD0004F4AEF2160E710B54C4C06CC083C1143FC
:106DE00001D0082010BD002810D001212160616071
:106DF000A060494805F0E8FC0028F3D0002121609C
:106E00006160A1600728EDD0032010BD0E2010BDE9
:106E100010B505F0AFFD3D48002101604160816083
:106E200005F02DFD10BD70B50546002405F0A2FD4E
:106E3000002D04D03748854203D010240AE00E24E8
:106E400008E0324D2868042808D0062808D0052814
:106E500008D0082405F08AFD204670BD012009E015
:106E6000032007E02B4805F072FD040001D0032445
:106E7000F0E702202860EDE7024610B50020002A66
:106E800009D0002907D0214B5C68002C05D0012CCB
:106E900005D0042010BD0E2010BD082010BD022416
:106EA0005C60194B136022020A8010BD70B50C465D
:106EB000050006D0002C06D01348854205D01024CA
:106EC0000EE00E240CE007240AE001204002844278
:106ED00001D90C2404E00D4E7068022802D0082469
:106EE000204670BD05F046FD2146284605F0DDFC34
:106EF000040005D0112C00D0032405F037FDEFE786
:106F000003207060F9E70000582700204820002087
:106F1000E0CE010058290020656C0100F2490320F1
:106F20008860F24900200860F1490861F14A0123B4
:106F300013610B69002BFCD0086150601060EE49B2
:106F40004881704710B5EC4CFC22A0690146914382
:106F500008D140B2042805DC2821C84202DBA07910
:106F6000032801D9042010BDFFF7D8FFE348A16929
:106F7000C160A1790161416A090A09024162426A5C
:106F8000216B0B0E1A4342620902C16101210163A8
:106F90000021C162E1786279090211434163A1785D
:106FA0006278090412021143227811434161A18DD4
:106FB000228D490612061143A28C12041143227934
:106FC0001202114325318161002010BD70B5CB49FB
:106FD000002340310B60C84AC849546B8C63946BE2
:106FE000CC63546C6400A41C8C60C54C4C60C04CD9
:106FF0002360BE4E03253560002804D0E360BD4900
:107000000120486070BD9069C86070BDBA490A69C6
:10701000012A05D8002805D0012807D0022809D068
:1070200000207047B748C861082006E0B648C8612C
:10703000092002E0B548C8610A20086201207047B3
:10704000AD4942B20B69012B04D828322D2A01D256
:10705000820701D00020704788610120704710B579
:1070600000F017F9002803D1FFF76CFF002801D0CA
:10707000042010BDA0480021C17101210161A44874
:107080000169102211430161002010BDF8B5A0482C
:107090000169102211430161954F0125964C00268C
:1070A000F868002817D0FE609A4802210160206924
:1070B000042810D18F48456097480068012806D100
:1070C00000F0B2F8002802D06089401C60812721BE
:1070D0008B4805F010FDE069FF300130016C00299C
:1070E00001D00664DCE7406C0028D9D0E069FF30AD
:1070F00001304664208CC006C00E8540854805607E
:107100006069401C6061F8BDF8B516467A4CD2B291
:107110002272236401256164E5710027A781276934
:10712000002F08D0002808D0032809D0012F0FD045
:10713000A5810220F8BD0520F8BD00F09BF869E0AC
:10714000012FF5D060890121C9030843A081F4E72C
:10715000272902D9A5810120F8BD002767810128D0
:1071600002D0022809D055E02721654805F0C3FC6C
:107170000120FFF72BFF04202CE0252A02D9A5814E
:107180000320F8BD1F073F0F5D485B1C0770594F78
:10719000427021D0012B05D0022B09D0032B09D03E
:1071A000A58131E032465D49801C05F03EFC06E0D9
:1071B0000F2200E055223146801C05F077FC0020AC
:1071C000FFF704FFE1694848FF3141310161476140
:1071D0004560022020611DE00846002E06D0012EE9
:1071E00004D0022E0DD0032E14D10FE00020FFF7A3
:1071F000EDFE42490320403108603C490D603D608E
:10720000E8E7FFF71DFF03E00420F8BDFFF7FEFEEF
:107210000028F9D00020F8BD37490023CA79CB7186
:10722000898901601046704710B535480178427869
:107230000907090F022910D8252A0ED8002904D0E1
:1072400001290CD05523002111E03449801C05F0A0
:10725000BFFB002801D1012010BD002010BD0F236D
:10726000F1E74418A4789C42F7D1491CC9B2914275
:10727000F7D3F0E7214910B50020403108601A49E2
:1072800001248C6008614861FFF748FE1A480461D8
:1072900010BD70B5224800210160012382051360F2
:1072A0000268002AFCD0144DE8694360C3600522DF
:1072B000120284186160C21DF93211645164916434
:1072C000D164012203261204360286197260D2119B
:1072D000135004222261EA6B2264FF2205326264A9
:1072E00003600020696170BD00F50140001200409C
:1072F0000011004000100040542000200015004004
:10730000582B0020008000400090004000A000406A
:1073100000ED00E080E200E000140040A0CB01009E
:1073200000010040F7B5002682B03746344602A877
:1073300000F044F8002804D1FFF791FE002802D0A5
:10734000032005B0F0BD3B4DFFF7A0FEA968002962
:10735000FAD00021A96038498969002FC9B207D045
:10736000364A1268B218824204D20C020646EBE793
:107370000127FAE70C43A1042206A3070027A00B6C
:10738000890E920E9B0F032B00D11B1FFFF7BCFE33
:107390006846FFF741FF0028D6D000990804020E86
:1073A0002548C261EA69012AFCD10022EA61C9B21A
:1073B000C161E8690128FCD1EA61C5E7F0B58168DF
:1073C0000A2901D90720F0BD01271D4904220A60BE
:1073D0001C490A601C4C4B17A3608168174D89003B
:1073E00030356958303D29604178184D03268900B1
:1073F00049190E6006780021B600751929600E4DF6
:107400004678EE6006786E612B61AB6080680B4B4E
:1074100080001B1D1858686207484030C16205484B
:107420008160C16141622A606160094887600760CC
:107430000020F0BD00210040002500409C200020DD
:1074400080E100E080E200E00023004000070050FF
:1074500000200040F8B5144606000D4620D0002C50
:107460001ED000200090631C6A46304603F0D7FC13
:10747000002814D123466A462946304603F0CFFC43
:1074800000280CD1234608336A462946304603F0CB
:10749000C6FC002803D10099A94200D00920F8BDFC
:1074A0000E20F8BD17B581B0144600290ED0002C6F
:1074B0000CD0002000906B4601A8226803F03DFC30
:1074C000002801D10099216004B010BD0E20FBE717
:1074D00070B51C46002A14D0002C12D0002810D001
:1074E0000588322D67D024DC162D52D012DC122DE7
:1074F00040D008DC012D3AD0102D59D0112D32D1B9
:1075000053E00E2070BD132D37D0142D38D0152D1B
:1075100029D13BE01A2D42D006DC172D33D0182D8F
:107520003AD0192D1FD13DE0302D4FD0312D1AD139
:107530005FE0502D6DD008DC333D2B0005F023FBC0
:10754000073E424D5C5549511300542D5ED006DC78
:10755000512D61D0522D62D0532D04D150E0552DC4
:1075600051D0702D5ED006200021216070BD00F04A
:107570005CF870BD00F0B3FC70BD00F0CBFD70BDD9
:1075800000F09CFD70BD00F07DFC70BD00F059FD69
:1075900070BD00F04BFC70BD00F0CFFC70BD00F082
:1075A00071FD70BD00F0E2FD70BD00F01EFD70BD0C
:1075B00000F0EFFC70BD01F0C0F870BD234601F093
:1075C000BBF970BD234601F03EF970BD01F052FADF
:1075D00070BD234601F007FA70BD234601F0A6FAFC
:1075E00070BD234601F02AFB70BD234601F042FB2B
:1075F00070BD01F0E4FA70BD234601F05FF970BD83
:1076000001F092FD70BD01F00BFE70BD01F0D3FDE5
:1076100070BD01F021FE70BD01F0A4FD70BD01F050
:10762000E3FD70BD02F088F970BD10B5002808D0E8
:10763000002A06D0002B04D01968052903D209209E
:1076400010BD0E2010BD01211170002151708488E1
:107650009470240AD470007A1071052018600846CE
:1076600010BD002808D0002A06D002290CD30378C8
:10767000712B03D0072070470E20704740780028F8
:1076800000D11060022901D0092070470020704706
:10769000FFB581B01E4615460F0018D0002D16D03C
:1076A00013460A462C687120019903F02FFB00282D
:1076B00004D101992868002902D0002005B0F0BD4E
:1076C000002E04D0C11DA14203D90920F6E70E20E7
:1076D000F4E731783954441C38190622711C05F03E
:1076E000A4F9A41D2C60E8E77CB5064601201C46E1
:1076F0000D460190002E1AD0002A18D0002C16D06A
:107700002068002813D0134601AA304603F094FBEA
:107710000E480090234601AA2946304603F01AFD80
:10772000002803D10199A94200D009207CBD0E2078
:107730007CBD1CB50023019301AB009313460A46A0
:107740000146702003F0A0FC1CBD0000E79E010074
:10775000FEB5089F099C0D4606001BD0002B19D0D2
:10776000002C17D0012000930190134601AA304647
:1077700003F0C9FB00280CD13B4601AA294630463C
:10778000009403F0C0FB002803D10198A84203D065
:107790000920FEBD0E20FEBD0020FEBD13460A4698
:1077A00010B50146722003F0B1FA10BDF8B50546D8
:1077B00000200E46144601460090002D26D0002CD5
:1077C00024D02268002A21D05368002B1ED0D26812
:1077D000002A1BD01368002B18D09268002A15D0FD
:1077E0008F00DF59002F11D0491C0829F8D3002140
:1077F0008B00D358002B09D0491C0829F8D3022E3E
:1078000011D3295C732903D00720F8BD0E20F8BDE1
:10781000401C295C401C0090012906D000202060FB
:107820000098B0427BD00920F8BD811CB142FAD843
:107830002168285C08700098401C295C401C00905E
:10784000012925D02168002048600098811CB142A0
:10785000E9D8295C2268401C1172295C401C009008
:1078600001292AD021680020C8600098001DB0427C
:10787000D9D123686A4631462846103303F0B3FA5B
:1078800023686A4631462846123303F0ACFAC7E74C
:10789000C11DB142C7D82168285C4968062208701A
:1078A0000098401C2918009020684068401C05F092
:1078B000BCF80098801D0090C8E7411CB142B2D8C6
:1078C0002268285CD268107100912068C268107923
:1078D0000828A8D8002823D0C200101A4018B042A7
:1078E000A1D8002715E002680099B8001258695C19
:1078F00011700099491C009122686918D2681268B9
:1079000010580622401C05F090F80098801D7F1C3E
:1079100000902068C0680179B942E4D802E02DE007
:107920000020106000980146401CB04290D82268A8
:10793000695CD268117300902168CA68117B0829BC
:1079400086D8002917D009010818B042A2D800270C
:107950000BE08068B900405800991022691805F0C2
:1079600064F8009810307F1C00902068C068017B8C
:10797000B942EED879E70020906076E70020F8BDA4
:1079800013460A4610B50146732003F0BFF910BD37
:1079900013460A4610B50146742003F0B7F910BD2E
:1079A000002808D0002A06D01368002B03D0022933
:1079B00003D0092070470E2070470178792901D043
:1079C000072070474078002800D1106000207047E1
:1079D000FFB581B01E4614460D0018D0002C16D0FD
:1079E00013460A4627687920019903F08FF9002889
:1079F00003D10198002802D0002005B0F0BD002E70
:107A000005D02068811CB94203D90920F5E70E2072
:107A1000F3E731882A181170090A5170801C206020
:107A2000EAE7002A05D0002803D0032903D0092063
:107A300070470E2070470178782901D007207047E1
:107A4000817843780802184310800020704713465D
:107A50000A4610B50146782003F058F910BDFEB56E
:107A6000089E1F460C4605001FD0002A1DD0002F7F
:107A70001BD001200290601E02282AD3134602AABE
:107A8000284603F0B0F90298844222D03B4602AA6D
:107A90002146284603F0D0F93878002807D001287D
:107AA00007D0022807D00720FEBD0E20FEBD002112
:107AB00002E0062100E0102100910191334602AA64
:107AC0002146284603F0ECF90028EFD10299A142A3
:107AD000ECD00920FEBD13460A4610B501468020B1
:107AE00003F014F910BD00007CB5064601201C46C9
:107AF0000D460190002E1CD0002A1AD0002C18D060
:107B00002068002815D0134601AA304603F059F921
:107B100000280DD10C480090234601AA2946304682
:107B200003F018FB002803D10199A94200D00920D5
:107B30007CBD0E207CBD13460A4610B501467E2052
:107B400003F0E4F810BD00009BA20100F8B5002787
:107B50001C460D460646009700280DD0002A0BD083
:107B6000002C09D02068002806D0042D3CD33078A2
:107B7000752803D00720F8BD0E20F8BD012013465C
:107B800000906A46304603F02EF90098315C0129D6
:107B900003D0002922D00B20F8BD401C00900830F3
:107BA000A84221D86A4629463046236803F01BF9CB
:107BB00023686A46294630469B1C03F014F9236863
:107BC0006A46294630461B1D03F00DF923686A46B4
:107BD000294630469B1D03F006F902E0401C009048
:107BE00027600098A84201D00920F8BD0020F8BD08
:107BF00013460A4610B50146752003F087F810BDFC
:107C0000FFB583B016460C46070010D0002E0ED0EC
:107C100000250195002C22D002AB01AA03F00CF93B
:107C20006846007A822804D0072007B0F0BD0E20F5
:107C3000FBE70198201A022811D3334601AA2146F6
:107C4000384603F0D0F8009501AA21463846069B35
:107C500003F080FA0028E8D10199A142E5D009207B
:107C6000E3E7FFB583B01C46150006460ED0002C96
:107C70000CD001468220276803F048F80028D4D1B0
:107C800020680190002E03D00020CEE70E20CCE724
:107C90000648009001AB3A462946049803F041FAA1
:107CA0000028C2D101992160BFE7000051A1010065
:107CB000F0B5002B0AD01E68002E07D001290FD383
:107CC0004778012F04D0002F1AD101E00E20F0BD1B
:107CD00002240025012F05D01D60631C8B420AD9A8
:107CE0000920F0BD0429FBD3C478877823023B43E5
:107CF00033800424F1E7005D012804D0002801D07E
:107D00000720F0BD15600020F0BDFFB583B00C9CCE
:107D10001D00064610D0002C0ED0014623462A46F0
:107D20007D20276802F0F2FF21680191002801D12F
:107D3000002E03D007B0F0BD0E20FBE701A8009095
:107D40003B462A460599049803F0F5F8019921600D
:107D5000F0E70000FEB5089D1E460C46070021D046
:107D6000002A1FD0002E1DD0002D1BD00120019015
:107D7000601E042814D310481346009001AA384608
:107D800003F0E8F900280CD1334601AA2146384611
:107D9000009503F0E7F8002803D10199A14200D033
:107DA0000920FEBD0E20FEBD13460A4610B5014651
:107DB0007C2002F0ABFF10BD15A10100FEB51D46F1
:107DC000144607000E4612D0002C10D0002D0ED005
:107DD0000020009001AB6A46384603F020F80028E6
:107DE00004D168460079762803D00720FEBD0E2016
:107DF000FEBD23466A463146384602F0E2FF0028BF
:107E0000F6D12B466A463146384603F008F800287A
:107E1000EED10099B142EBD00920FEBD13460A46CF
:107E200010B50146762002F071FF10BDFEB51C466C
:107E30001646050024D0002E22D0002C20D0002091
:107E4000009027681620694688806B463A4631467E
:107E500001A802F0A5FF002811D16B463A46314631
:107E6000281D02F09DFF002809D16B463A46314695
:107E7000A81D02F0C7FF002801D100992160FEBDB6
:107E80000E20FEBDFEB50546002000901720694675
:107E90001C4616468880002D1FD0002E1DD0002CB9
:107EA0001BD027680B463A46314601A802F078FFFE
:107EB000002811D16B463A463146281D02F070FF6A
:107EC000002809D16B463A463146A81D02F0BFF89A
:107ED000002801D100992160FEBD0E20FEBDF8B53D
:107EE0001D461646040008D0002E06D0002D04D0F2
:107EF0002088122803D00720F8BD0E20F8BD0020EE
:107F000000902F686B463A463146204602F048FF03
:107F10000028F3D16B463A463146201D02F040FF5F
:107F20000028EBD16B463A463146A01D02F0FEF91F
:107F30000028E3D100992960F8BDFEB51C4616461D
:107F4000050024D0002E22D0002C20D0002000904C
:107F500027681820694688806B463A46314601A852
:107F600002F01EFF002811D16B463A463146281D0B
:107F700002F016FF002809D16B463A463146A81D8B
:107F800002F0F6F8002801D100992160FEBD0E2014
:107F9000FEBDFEB51C461646050024D0002E22D09C
:107FA000002C20D00020009027681020694688808F
:107FB0006B463A46314601A802F0F2FE002811D184
:107FC0006B463A463146281D02F0EAFE002809D1E8
:107FD0006B463A463146A81D02F010F9002801D13F
:107FE00000992160FEBD0E20FEBDFEB51C46164662
:107FF000050024D0002E22D0002C20D0002000909C
:1080000027681120694688806B463A46314601A8A8
:1080100002F0C6FE002811D16B463A463146281DB3
:1080200002F0BEFE002809D16B463A463146A81D33
:1080300002F07DF9002801D100992160FEBD0E20DB
:10804000FEBD10B51C46002808D0002A06D0002C22
:1080500004D021680A2903D2092010BD0E2010BDCA
:108060001521117000215170838893701B0AD37001
:10807000131D811D0622184604F0D7FC0A2020603B
:10808000002010BD10B5002808D0002A06D0002B13
:1080900004D01968052903D2092010BD0E2010BD97
:1080A0001A2111700021517084889470240AD470B0
:1080B0008079107105201860084610BDFEB51C4679
:1080C0001646050024D0002E22D0002C20D00020FF
:1080D000009027681420694688806B463A463146EE
:1080E00001A802F05DFE002811D16B463A463146E8
:1080F000281D02F055FE002809D16B463A4631464C
:10810000A81D02F036F8002801D100992160FEBDBB
:108110000E20FEBDFEB51C461646050024D0002EDE
:1081200022D0002C20D00020009027681320694620
:1081300088806B463A46314601A802F031FE00289D
:1081400011D16B463A463146281D02F029FE00281F
:1081500009D16B463A463146A81D02F0E6F80028E0
:1081600001D100992160FEBD0E20FEBD10B5002892
:1081700008D0002A06D0002B04D01968052903D2A4
:10818000092010BD0E2010BD192111700021517061
:1081900084889470240AD470807910710520186046
:1081A000084610BD00280BD0002A09D01368002B08
:1081B00006D002290CD303787B2B03D0072070470D
:1081C0000E2070474078002800D11060022901D0AD
:1081D0000920704700207047F8B51D46074616462F
:1081E0000C0019D0002E17D0306813460A460090B4
:1081F00039467B2002F08AFD002802D1002F01D0F1
:108200000020F8BD002D07D03768009938460830A7
:10821000884203D90920F8BD0E20F8BDE11928884D
:1082200000F012F8C719E119688800F00DF8C719B5
:10823000E119A88800F008F8C719E119E88800F0EA
:1082400003F8C0193060DBE70870000A48700220AC
:108250007047F8B50546002014460E460090002DE4
:1082600037D0002C35D0022E31D329787A2901D08D
:108270000720F8BD697802220092002903D0012965
:1082800003D00B20F8BD20601EE00A2E1FD3236808
:10829000002B1ED06A463146284602F0A4FD236812
:1082A0006A46314628469B1C02F09DFD23686A46BB
:1082B000314628461B1D02F096FD23686A4631466A
:1082C00028469B1D02F08FFD0098B04203D0092084
:1082D000F8BD0E20F8BD0020F8BD13460A4610B5C3
:1082E00001467A2002F012FD10BD38B50C46002878
:1082F0000FD0002A0DD00121134600916A46214675
:1083000002F05FFD002803D10099A14200D00920AE
:1083100038BD0E2038BD13460A4610B501468320ED
:1083200002F0F4FC10BD38B50C4600280FD0002A2E
:108330000DD00121134600916A46214602F041FD0D
:10834000002803D10098A04203D0092038BD0E2098
:1083500038BD002038BD13460A4610B501468420BA
:1083600002F0D4FC10BD0000FEB5089D1C460E4670
:10837000070012D0002A10D0002C0ED0002D0CD0F7
:108380002068002809D02868002806D00120019024
:10839000701E022803D20920FEBD0E20FEBD13462A
:1083A00001AA384602F01FFD0D480090234601AA9D
:1083B0003146384602F0CEFE0028EFD10948009041
:1083C0002B4601AA3146384602F0C4FEFEBD1346D4
:1083D0000A4610B50146812002F098FC10BD00004D
:1083E000C79F010029A00100F8B505460120069CA1
:1083F0001F460E460090002D1DD0002A1BD0002FD6
:1084000019D0002C17D02068002814D0052E60D376
:1084100013466A46284602F0E6FC3B466A46314669
:10842000284602F009FD0098295C012905D00029A1
:1084300048D00B20F8BD0E20F8BD401C0090401D18
:10844000B04246D86A4631462846236802F0CBFC43
:10845000206881784A0800995200695CC907C90FF1
:108460000A438270FD210A4000992068695C8907EF
:10847000C90F49000A438270E3210A40009920682D
:10848000695CC906490F89000A438270DF210A40EE
:1084900000992068695C8906C90F49010A43827006
:1084A00000986A46401C0090236831462846DB1C31
:1084B00002F0C2FC23686A46314628461B1D02F0C2
:1084C000BBFC03E0401C0090002020600098B042FC
:1084D00001D00920F8BD0020F8BD13460A4610B5AA
:1084E00001467F2002F012FC10BD38B50C46002872
:1084F0000FD0002A0DD00121134600916A46214673
:1085000002F08DFC002803D10098A04203D009207E
:1085100038BD0E2038BD002038BD13460A4610B5C0
:108520000146772002F0F2FB10BD0000FEB5089D69
:108530001C460E46070014D0002A12D0002C10D082
:10854000206800280DD0002D0BD02868002808D006
:1085500000200190032E24D33878942803D00B20D8
:10856000FEBD0E20FEBD01201346019001AA384633
:1085700002F039FC10480090234601AA31463846E3
:1085800002F0E8FD0028EDD10C4800902B4601AA2E
:108590003146384602F0DEFD0028E3D10199B142B0
:1085A000E0D00920FEBD13460A4610B501469420CE
:1085B00002F0ACFB10BD0000FDAB010021A50100E5
:1085C000FEB5089E1D460C46070020D0002A1ED08E
:1085D000002D1CD02868002819D0002E17D00120AB
:1085E0000190601E052810D3134601AA384602F0F8
:1085F000FAFB2B4601AA21463846009602F0C9FC38
:10860000002803D10199A14200D00920FEBD0E200F
:10861000FEBD1CB50023019301AB009313460A462F
:108620000146962002F030FD1CBDF8B5064601203B
:108630001C460D460090002E17D0002A15D0002CA5
:1086400013D02068002810D0042D26D313466A4684
:10865000304602F0C8FB009AB05C521C0092002821
:1086600005D0012806D00B20F8BD0E20F8BD002053
:1086700020600FE0121DAA420FD86A4629463046F4
:10868000236802F0B0FB23686A46294630469B1CEB
:1086900002F0A9FB0098A84201D00920F8BD0020F3
:1086A000F8BD13460A4610B50146922002F02EFB93
:1086B00010BDF8B5064601201C460D460090002E60
:1086C00017D0002A15D0002C13D02068002810D015
:1086D000042D26D313466A46304602F084FB009AE6
:1086E000B05C521C0092002805D0012806D00B2057
:1086F000F8BD0E20F8BD002020600FE0121DAA4238
:108700000FD86A4629463046236802F06CFB23687E
:108710006A46294630469B1C02F065FB0098A84239
:1087200001D00920F8BD0020F8BD13460A4610B557
:108730000146932002F0EAFA10BDFFB587B0144657
:1087400005002ED0002C2CD00A98002829D00068D3
:108750000A2823D31146322000F070F80646A119EA
:10876000A88800F06BF88619A119E88800F066F86F
:108770008619A119288900F061F88619A119A8891C
:1087800000F05CF880190090A8890290C10041189F
:10879000009809180A980068814204D909200BB092
:1087A000F0BD0E20FBE7002640E021180A207043B0
:1087B0004719F88900F042F800994018397C215493
:1087C000B97C401C8B07CA07DB0FD20F5B001A4332
:1087D0004B07DB0F9B001A430B07DB0FDB001A4331
:1087E000CB06DB0F1B011A438B06DB0F49065B012F
:1087F000C90F1A4389010A432254F97C401CC90756
:10880000C90F2154401C21180090B88A00F016F8B6
:1088100001460098081821180090F88A00F00EF818
:10882000014600980818761CB6B20090029886425D
:108830000098BAD30A9908600020B0E70870000ACF
:10884000487002207047F8B51D461646040033D024
:10885000002E31D0002D2FD0002000902F686B46C5
:108860003A463146204602F09BFA002823D16B4657
:108870003A463146201D02F093FA00281BD16B4680
:108880003A463146A01D02F08BFA002813D120464B
:108890006B463A463146083002F082FA00280AD187
:1088A00020466B463A4631460C3001F0D7FD002891
:1088B00001D100992960F8BD0E20F8BDFEB51D4616
:1088C0001646040036D0002E34D0002D32D00020C1
:1088D00000902F683620694688806B463A463146BC
:1088E00001A802F05DFA002823D16B463A463146D2
:1088F000201D02F055FA00281BD16B463A4631463E
:10890000A01D02F04DFA002813D120466B463A46CE
:108910003146083002F044FA00280AD120466B465E
:108920003A4631460C3001F0CFFD002801D10099C4
:108930002960FEBD0E20FEBDFFB583B014460600C3
:108940002CD0002C2AD00698002827D000680A28AE
:1089500021D31146332000F041F805466119B08853
:1089600000F03CF845196119F08800F037F8451916
:108970006119308900F032F845196119B08900F0A9
:108980002DF84519B08901908100401841190698C9
:108990000068814204D9092007B0F0BD0E20FBE732
:1089A000002714E006207843801900906119C089DF
:1089B00000F014F8451900986119008A00F00EF8CB
:1089C000451900987F1C807C6055BFB26D1C0198D2
:1089D0008742E7D3069805600020DDE70870000AAB
:1089E000487002207047F8B51F46144605002ED087
:1089F000002C2CD0002F2AD038680D2825D3114602
:108A0000382000F032F80646A119A88800F02DF8A9
:108A10008619A119E88800F028F88619A119288973
:108A200000F023F88619A119A88900F01EF886190C
:108A3000A87BA055761CA119288A00F016F82A8A6E
:108A4000861939689019884203D90920F8BD0E208B
:108A5000F8BD002A06D02946A019123103F0E5FF1F
:108A6000288A861900203E60F8BD0870000A487008
:108A700002207047FFB583B0144605002CD0002CAF
:108A80002AD00698002827D000680A2821D311464A
:108A9000302000F046F80646A119A88800F041F8F9
:108AA0008619A119E88800F03CF88619A1192889CF
:108AB00000F037F88619A119A88900F032F8861954
:108AC000A8890190C100081A81190698006881429E
:108AD00004D9092007B0F0BD0E20FBE7002719E0FC
:108AE000F80040190090A119C08900F01AF8861901
:108AF0000098007CA0550098761CA119408A00F0CF
:108B000010F886190098A119808A00F00AF88619D1
:108B10007F1CBFB201988742E2D30698066000200E
:108B2000D8E70870000A487002207047F8B51F4661
:108B30001446050030D0002C2ED0002F2CD03868E1
:108B40000E2827D31146352000F034F80646A11927
:108B5000A88800F02FF88619A119E88800F02AF8F3
:108B60008619A119288900F025F88619A119A88964
:108B700000F020F88619A119E88900F01BF8861981
:108B8000A119288A00F016F82A8A861939689019DE
:108B9000884203D90920F8BD0E20F8BD002A06D06E
:108BA0002946A019123103F040FF288A86190020B7
:108BB0003E60F8BD0870000A487002207047FEB59C
:108BC000044600200090312069461D4616468880E4
:108BD000002C31D0002E2FD0002D2DD02F680B4629
:108BE0003A46314601A802F0DBF8002823D16B4653
:108BF0003A463146201D02F0D3F800281BD16B46BF
:108C00003A463146A01D02F0CBF8002813D1204689
:108C10006B463A463146083002F0C2F800280AD1C5
:108C200020466B463A4631460C3001F0B0FC002835
:108C300001D100992960FEBD0E20FEBD10B50028AF
:108C400008D0002A06D0002B04D01968052903D2C9
:108C5000092010BD0E2010BD392111700021517066
:108C600084889470240AD470007B107105201860E9
:108C7000084610BDF8B51F461446050033D0002C39
:108C800031D0002F2FD038680F282AD31146372033
:108C900000F037F80646A119A88800F032F88619C6
:108CA000A119E88800F02DF88619A119288900F08B
:108CB00028F88619A119A88900F023F88619A87B3D
:108CC000A055761CA119288A00F01BF88619A11955
:108CD000688A00F016F86A8A8619396890198842FD
:108CE00003D90920F8BD0E20F8BD002A06D0294678
:108CF000A019143103F099FE688A861900203E609D
:108D0000F8BD0870000A487002207047F8B51C468C
:108D10000D46060019D0002A17D0002C15D00120CE
:108D2000134600906A46304602F04BF800280BD1FB
:108D300023466A462946304602F043F8002803D10C
:108D40000099A94200D00920F8BD0E20F8BD1346B5
:108D50000A4610B50146982001F0D8FF10BDF8B5BD
:108D600006460120069C1F460D460090002E1FD08F
:108D7000002A1DD0002F1BD0002C19D020680028FD
:108D800016D0062D2CD313466A46304602F02BF837
:108D90003B466A462946304602F025F8009AB05C08
:108DA000521C0092002805D0012806D00B20F8BDE7
:108DB0000E20F8BD002020600FE0D21CAA420FD880
:108DC0006A4629463046236802F00DF823686A4651
:108DD000294630469B1C02F02FF80098A84201D08B
:108DE0000920F8BD0020F8BD13460A4610B501461B
:108DF000902001F08BFF10BDF8B5069C1D460E4675
:108E0000070023D0002A21D0002D1FD0002C1DD018
:108E10000120134600906A46384601F0D2FF002830
:108E200013D12B466A463146384601F0CAFF002866
:108E30000BD123466A463146384601F0C2FF00286E
:108E400003D10099B14200D00920F8BD0E20F8BD31
:108E500013460A4610B50146952001F057FF10BD94
:108E6000F8B5064601201C460D460090002E17D08E
:108E7000002A15D0002C13D02068002810D0042D13
:108E800026D313466A46304601F0ADFF009AB05C27
:108E9000521C0092002805D0012806D00B20F8BDF6
:108EA0000E20F8BD002020600FE0121DAA420FD84E
:108EB0006A4629463046236801F095FF23686A46D2
:108EC000294630469B1C01F08EFF0098A84201D035
:108ED0000920F8BD0020F8BD13460A4610B501462A
:108EE000912001F013FF10BDFEB51C46154607008A
:108EF0000E4615D0002D13D0002C11D0206800286C
:108F00000ED00020019002AB01AA384601F087FF85
:108F1000002804D16846007A972803D00720FEBDB8
:108F20000E20FEBD2B4601AA3146384601F049FF0E
:108F30000028F6D10B480090234601AA3146384656
:108F400002F008F90028ECD10199B142E9D00920DA
:108F5000FEBD13460A4610B50146972001F0D6FE25
:108F600010BD0000C5A50100FFB583B003980C9F9C
:108F70000D9E1D460C4600283FD0002A3DD0002DF6
:108F80003BD0002F39D0002E37D02868002834D0AD
:108F90003868002831D0306800282ED00120019098
:108FA000002C27D0601E022824D3134601AA039860
:108FB00001F019FF234800902B4601AA214603988F
:108FC00002F0C8F8002816D11F4800903B4601AABD
:108FD0002146039802F0BEF800280CD100903346D9
:108FE00001AA2146039802F0B5F8002803D101999F
:108FF000A14200D0092007B0F0BD0E20FBE7FFB56D
:1090000081B014460E00074607D0002C05D0256815
:10901000052D04D2092005B0F0BD0E20FBE7134654
:109020000A460146A22001F071FE0028F3D1002F6C
:10903000F1D10648009023462A463146049802F0B2
:1090400070F8E8E799A70100ABA8010015A9010095
:10905000FEB5089D1C460E46070014D0002A12D00B
:10906000002C10D0206800280DD0002D0BD02868CF
:10907000002808D000200190042E23D33878A3289C
:1090800003D00720FEBD0E20FEBD01201346019037
:1090900001AA384601F0A7FE22480090234601AA03
:1090A0003146384602F056F80028EDD100902B46A4
:1090B00001AA3146384602F04DF80028E4D1019863
:1090C000B04201D00920FEBD0020FEBDFFB581B039
:1090D00014460E00074610D0002C0ED02568052D32
:1090E00012D313460A460146A32001F00FFE0028C2
:1090F00001D1002F03D005B0F0BD0E20FBE72068A2
:109100000090801CA84201D90920F4E76B462A464A
:10911000314604A801F044FE0028ECD100992160FA
:10912000E9E70000ABA8010010B5002808D0002A2C
:1091300006D0002B04D01968062903D2092010BDDF
:109140000E2010BD5321117000215170848894703D
:10915000240AD470C0881071000A5071062018606B
:10916000084610BDF8B51C461600054621D0002C57
:109170001FD0002D1DD00020009027686B463A4676
:109180003146284601F00CFE002811D16B463A46C4
:109190003146281D01F004FE002809D16B463A46ED
:1091A0003146A81D01F094FC002801D100992160EE
:1091B000F8BD0E20F8BD002808D0002A06D0002BEC
:1091C00004D01968042903D2092070470E20704783
:1091D000542111700021517080889070000AD07065
:1091E000042018600846704710B5002808D0002AEF
:1091F00006D0002B04D01968052903D2092010BD20
:109200000E2010BD5221117000215170848894707D
:10921000240AD4708079107105201860084610BDAA
:1092200010B5002808D0002A06D0002B04D01968F9
:10923000052903D2092010BD0E2010BD5521117043
:109240000021517084889470240AD4708079107140
:1092500005201860084610BDFEB51C4616460500E0
:1092600024D0002E22D0002C20D00020009027688F
:109270005020694688806B463A46314601A801F085
:109280008FFD002811D16B463A463146281D01F06A
:1092900087FD002809D16B463A463146A81D01F0EA
:1092A000B4FB002801D100992160FEBD0E20FEBD57
:1092B0007CB5054600201C460E460190002D0DD0C1
:1092C000002A0BD0002C09D02068002806D0042EDC
:1092D0001AD32878A62803D007207CBD0E207CBD99
:1092E00001201346019001AA284601F07CFD1B488D
:1092F0000090234601AA3146284601F02BFF0028A2
:10930000EDD10198B04201D009207CBD00207CBD88
:10931000FFB583B014460D0006460ED0002C0CD0CD
:1093200013460A460146A620276801F0EFFC0028F4
:1093300001D1002E03D007B0F0BD0E20FBE720685E
:1093400001900748009001AB3A462946069801F083
:10935000E8FE0028EFD101992160ECE755A9010052
:10936000A1AD0100F8B504460020069D1E460F463B
:109370000090002C08D0002A06D0002E04D0002D2A
:1093800002D0062F1DD101E00E20F8BD2078A128C3
:1093900001D00720F8BD0120134600906A46204600
:1093A00001F021FD33466A463946204601F01BFD97
:1093B0000099605C491C0091002800D128600629B2
:1093C00001D00920F8BD0020F8BDFEB51D460746B6
:1093D00014460E001FD0002C1DD0206802900020E3
:1093E000019001A813460A4600903946A12001F0D9
:1093F0004BFE002801D1002F00D0FEBD002D0AD069
:1094000001AB31462846029A01F0CAFC0028F4D18B
:1094100001992160FEBD0E20FEBD00007CB51E46F8
:109420000C4605001AD0002A18D001200190601EB9
:10943000022811D3134601AA284601F0D4FC0C4897
:109440000090334601AA2146284601F083FE0028F9
:1094500003D10199A14200D009207CBD0E207CBD22
:1094600013460A4610B50146A82001F04FFC10BD76
:109470008DAB0100FEB5089D1E460C4607002FD09F
:10948000002A2DD0002E2BD03068002828D0002DA7
:1094900026D02868002823D001200190601E0328D0
:1094A0001CD3134601AA384601F0B9FC002816D196
:1094B00020480090334601AA2146384601F04AFE72
:1094C00000280CD100902B4601AA2146384601F015
:1094D00041FE002803D10199A14200D00920FEBD20
:1094E0000E20FEBDFEB51D46074614460E001FD0D9
:1094F000002C1DD0206802900020019001A8134686
:109500000A4600903946A02001F0BEFD002801D196
:10951000002F00D0FEBD002D0AD001AB31462846F9
:10952000029A01F03DFC0028F4D101992160FEBDB2
:109530000E20FEBDFDAB0100F8B504460020069DDF
:109540001E460F460090002C08D0002A06D0002EA0
:1095500004D0002D02D0072F1DD101E00E20F8BD50
:109560002078A72801D00720F8BD012013460090DD
:109570006A46204601F037FC33466A4639462046A3
:1095800001F031FC2B466A463946204601F02BFC9F
:109590000098072801D00920F8BD0020F8BD134627
:1095A0000A4610B50146A72001F0B0FB10BDF0B58A
:1095B000059D00282BD0002B29D0002D27D0042971
:1095C0002AD30478AA2C01D00720F0BD002A1ED08F
:1095D0008678477834023C431480C67804220024FD
:1095E000012E08D02C60551C8D4215D8805C521C71
:1095F00000280ED00EE006290ED32D68002D06D0CF
:109600004679077932023A432A800622EBE70E2098
:10961000F0BD1C608A4201D00920F0BD0020F0BDE1
:10962000FFB581B00A9F14460D002DD0002C2BD021
:109630002668052E26D313460A46AA20019901F072
:1096400065FB002803D10198002802D0002005B056
:10965000F0BD0498002817D0002F15D02068811C79
:10966000B1420FD839882A181170090A5170C11CEB
:109670003A88801CB14205D801212954401C871822
:10968000B74203D90920E2E70E20E0E72818049941
:1096900003F0CBF92760D9E7FEB50746012000901B
:1096A000089D01A81C460E460290002F19D0002AE2
:1096B00017D0002C15D02068002812D0002D10D013
:1096C000042E26D313466A46384601F08CFB0098D8
:1096D000395C401C0090002905D0012909D00B20DD
:1096E000FEBD0E20FEBD00212160B04211D12980B7
:1096F00015E06A4631463846029B01F074FB684625
:1097000082882888824204D82A8000981118B142A1
:1097100001D00920FEBD3918206803F086F9002029
:10972000FEBD13460A4610B50146A92001F0EEFA27
:1097300010BD0000FFB581B000250A9E0F4604460B
:109740000095002804D0072F04D2092005B0F0BDF1
:109750000E20FBE72078A52801D00720F6E701209E
:10976000134600906A46204601F03DFB6A463946A2
:109770002046049B01F037FB0098215C401C0090C0
:10978000012907D035600098215C401C0090002919
:1097900007D008E06A4639462046336801F023FBCB
:1097A000F1E70B9805600020D0E7FFB583B00C9E71
:1097B00014460F0007D0002C05D02568052D04D2D3
:1097C000092007B0F0BD0E20FBE713460A46A5208E
:1097D000039901F09BFA0028F3D1206801900398C7
:1097E000002817D10D48009001AB2A463946304673
:1097F00001F097FC0028E4D1002E01D0318800E070
:10980000002101A800902B463A46069801F01FFB64
:109810000028D6D1019820600020D2E7A1AD010038
:10982000FFB583B003980C9E0D9D1F460C46002883
:1098300026D0002A24D0002F22D0002E20D0002DA8
:109840001ED001200190601E062816D3134601AADF
:10985000039801F0C8FA3B4601AA2146039801F09B
:10986000C2FA2B4601AA21460096039801F0D7FBC5
:10987000002803D10199A14200D0092007B0F0BD12
:109880000E20FBE73EB51C460023029302AB01937A
:109890000B46009201462246A42001F016FC3EBD74
:1098A00008B500230093002A04D0002802D0032921
:1098B00012D101E00E2008BD0378B02B01D00720A3
:1098C00008BD0123009313466A4601F07AFA002886
:1098D000F6D100990329F3D0092008BD13460A46A2
:1098E00010B50146B02001F011FA10BD08B50023F3
:1098F0000093002A04D0002802D0032912D101E0ED
:109900000E2008BD0378B12B01D0072008BD01232C
:10991000009313466A4601F054FA0028F6D10099E4
:109920000329F3D0092008BD13460A4610B50146A5
:10993000B12001F0EBF910BDFEB51C46164605003E
:1099400024D0002E22D0002C20D0002000902768A8
:109950007020694688806B463A46314601A801F07E
:109960001FFA002811D16B463A463146281D01F0F6
:1099700017FA002809D16B463A463146A81D01F076
:1099800095F9002801D100992160FEBD0E20FEBD91
:10999000FEB5089D1C460F46060027D0002A25D09C
:1099A000002C23D02068002820D0002D1ED00120BC
:1099B0001346019001AA304601F003FA002816D19F
:1099C00014480090234601AA3946304601F0C2FBF4
:1099D00000280CD1216800290AD001997218521C64
:1099E0002A602268491C1288511805E00E20FEBD2D
:1099F000002129600199491C0191B942F7D0092041
:109A0000FEBD13460A4610B50146B22001F07EF9AC
:109A100010BD00007FAC0100FEB517460D460600E4
:109A20000DD0002402AB01AA019401F0F8F900283E
:109A300004D16846007A622803D00720FEBD0E20BC
:109A4000FEBD3B4601AA29463046009401F082FB48
:109A50000028F5D10199A942F2D00920FEBDFFB539
:109A600081B014460D0006460ED0002C0CD01346D3
:109A70000A4601466220276801F048F9002801D112
:109A8000002E03D005B0F0BD0E20FBE70448009087
:109A900023463A462946049801F043FBF2E70000CA
:109AA00005AE0100FFB583B014460D46070015D082
:109AB000002C13D000266420694601960872002D00
:109AC00023D002AB01AA2946384601F0B5F9684611
:109AD000007A642804D00B2007B0F0BD0E20FBE70D
:109AE000009401AA29463846069B01F00CFA00288A
:109AF000F2D1009601AA294638460C9B01F02AFBB8
:109B00000028E9D10199A942E6D00920E4E7FFB590
:109B100083B014460D00064610D0002C0ED013461C
:109B20000A4601466420276801F0F0F80028D3D1E6
:109B300020680190002E03D00020CDE70E20CBE757
:109B40000648009001AB3A462946069801F0E9FA2A
:109B50000028C1D101982060EEE70000DDAB0100D4
:109B6000F8B5044601201E4617460D460090002C0D
:109B700019D0002F17D0002E15D00698002812D02B
:109B80003B68002B0FD0306800280CD00698006886
:109B9000002808D0042D33D361780220002904D096
:109BA000012906D024E00E20F8BD009000201060AE
:109BB0000EE0072D24D300906A462946204601F086
:109BC00012F900983968205C88700098401C009059
:109BD000009AA05C002802D0012809D101E00020F1
:109BE0003060521C0092A05C002803D0012804D0F1
:109BF0000B20F8BD069900200860521CAA4201D033
:109C00000920F8BD0020F8BDFFB581B015460E0053
:109C100004460ED0002D0CD013460A46014665209E
:109C20002F6801F073F80100286804D0084605B0D9
:109C3000F0BD0E20FBE7002C01D00020F7E7411C0F
:109C4000B94209D8049931540A99401C00290BD013
:109C500004994418BC4201D90920E8E70A463018A3
:109C60000A9902F0E2FE20462860E6E77CB5064647
:109C700001201C460D460190002E20D0002A1ED047
:109C8000002C1CD01068002819D02068002816D09D
:109C90001F481346009001AA304601F05BFA0028E5
:109CA0000CD10090234601AA2946304601F052FA11
:109CB000002803D10199A94200D009207CBD0E20C3
:109CC0007CBDFFB583B014460D00064611D0002CB4
:109CD0000FD013460A4601466320276801F016F8A4
:109CE000002804D120680190002E04D0002007B085
:109CF000F0BD0E20FBE70748009001AB3A4629462D
:109D0000069801F00EFA0028F1D101992160EEE7E2
:109D100029AC010005AE0100002808D0002A06D0B9
:109D20001368002B03D0022903D0092070470E20AE
:109D300070470178662901D00720704740780028D5
:109D400000D1106000207047FFB581B01E46144658
:109D50000D0018D0002C16D013460A46276866203E
:109D6000019900F0D3FF002803D10198002802D008
:109D7000002005B0F0BD002E05D02068411DB9427D
:109D800003D90920F5E70E20F3E731782954401C68
:109D90002A1871881170090A5170801CB1882A181C
:109DA0001170090A5170801C2060E1E7002806D07C
:109DB000002908D00078342803D0072070470E20EF
:109DC0007047012901D009207047002070471CB559
:109DD0000C4600280DD0002A0BD01168002908D0AD
:109DE00000210191002C13D00378522B03D00720BF
:109DF0001CBD0E201CBD012301930091134601AA36
:109E0000214601F0A7F90028F4D10199A142F1D02F
:109E100009201CBDFEB51D46074614460E0016D08F
:109E2000002D14D0002C12D0002000902068134682
:109E30000A4601903946522000F068FF002807D1F9
:109E40002168009A89180091002F02D009E00E20A5
:109E5000FEBD6B4631462846019A00F06EFF002891
:109E6000F6D100992160FEBD10B51C460B46014697
:109E70002068121A102A01D2092010BDC018102221
:109E800002F0D3FD206810302060002010BD10B516
:109E90001446024618462368C91A102901D209201F
:109EA00010BD9918102202F0C0FD2068103020600B
:109EB000002010BD10B51C460B4601462068121A42
:109EC000072A01D2092010BD0A781A5420680622F8
:109ED000401C2060C018491C02F0A7FD2068801DAE
:109EE0002060002010BD10B51446024618462368B5
:109EF000C91A072901D2092010BD9918072202F0BA
:109F000094FD2068C01D2060002010BD30B51C6885
:109F1000944201D1092030BD00788507C207ED0FBA
:109F20004007D20F6D00C00F2A43800002430A553C
:109F30001868401C1860002030BD30B51C68944281
:109F400001D1092030BD00788507C207ED0FD20F7F
:109F50006D002A434507ED0FAD002A430507ED0FBD
:109F6000C006ED00C00F2A43000102430A551868DD
:109F7000401C1860002030BDF8B5054618681C4626
:109F8000101A0E46132801D20920F8BD284600F009
:109F900007FF0700F9D1206810228019A91C02F0E0
:109FA00044FD206810302060A97CC907C90F3154D6
:109FB000AA7C206852085200114331542068401C8A
:109FC00020603846F8BDF8B5074610681446081AF0
:109FD0000E461D46022810D3384600F004FF2068C4
:109FE000311A102909D3C1191022A81C02F01DFD35
:109FF000206810302060B04201D10920F8BDA97C52
:10A00000385C4908C0074900C00F0143A974C8075C
:10A010002168C00F795C490849000843A87420688A
:10A02000401C20600020F8BD10B514460246206890
:10A03000091A102901D2092010BD811810221846D2
:10A0400002F0F3FC206810302060002010BDF8B54D
:10A05000044618681E46101A17460D46022801D2FB
:10A060000920F8BD204600F0CDFE0028F9D1334686
:10A070003A462946601C00F0C5FE0028F1D1306840
:10A0800000906B463A462946A01CFFF73FFF002888
:10A09000E7D130683346285C00903A462946E01CF8
:10A0A000FFF734FF3168681E009B0A5CDB001A432F
:10A0B0000A5433463A462946201DFFF73EFF002842
:10A0C000CFD133463A462946601DFFF736FF0028B8
:10A0D000C7D133463A462946A01DFFF74DFF002859
:10A0E000BFD1204633463A4629461A30FFF7BCFE18
:10A0F0000028B6D1204633463A4629462A30FFF793
:10A10000D9FEF8BD38B500786C462070684600F07E
:10A1100079FE38BD38B51C46136800258B4201D145
:10A12000092038BD6B4600F087FE69462078097823
:10A13000000909070001090F0843207069460978E2
:10A140000007000F0909090108432070284638BD9F
:10A15000F8B51D4616460F460446FFF7D3FF002804
:10A1600005D12B4632463946601C00F04BFEF8BD47
:10A17000EEE7F8B51D4616460F460446FFF79AFE71
:10A1800000281AD120462B4632463946083000F0C6
:10A1900007FE002811D1A07A2B468207C107D20FF3
:10A1A000C90F520040071143C00F800001436846A9
:10A1B00001703246394600F025FEF8BDF8B51D465F
:10A1C00016460F46044600F0EBFD002815D12B463D
:10A1D00032463946A01C00F0E3FD00280DD12B4685
:10A1E00032463946201D00F0DBFD002805D12B4604
:10A1F00032463946A01D00F0D3FDF8BDF8B51D4626
:10A2000017460E460446FFF755FE002814D1E079A4
:10A210002968C007C00F7054E279296852085200BB
:10A220001043705428682B46401C286020463A464C
:10A2300031460830FFF7C2FFF8BDF8B51D46164697
:10A240000F46044600F0ACFD002825D1A0782B462F
:10A250008207C107D20FC90F52001143C206520F25
:10A26000920080061143C00F40010143684601700F
:10A270003246394600F0C6FD00280DD12B46324645
:10A280003946E01C00F0BEFD002805D12B463246C1
:10A290003946201D00F0B6FDF8BDFFB51068002757
:10A2A000081A81B015460E461C46022832D3019882
:10A2B00000F099FD2868B0422CD06B462A46314602
:10A2C000019800F0B9FD6946A07809784008CA07EE
:10A2D0004000D20F1043FD2210408A07D20F5200D7
:10A2E0001043E3221040CA06520F92001043890621
:10A2F000DF22C90F104049010843A0702868B0420E
:10A3000008D0E31C2A463146019800F095FD2868E4
:10A31000B04202D1092005B0F0BD231D2A463146C6
:10A32000019800F089FD3846F5E786E746E710B565
:10A3300000F068FD10BDF8B51D4617460E0017D099
:10A34000002D15D0044600F02BFD00280FD12B4620
:10A350003A463146A01C00F023FD002807D13B48B7
:10A3600000902B463A463146606800F0DAFEF8BDB0
:10A370000E20F8BDF8B515460F46060017D0002D83
:10A3800015D01C4600F01DFD00280FD1A31C2A4645
:10A390003946304600F015FD002807D12C480090C2
:10A3A000231D2A463946304600F0D4FEF8BD0E2063
:10A3B000F8BD38B500290AD0002B08D00093134609
:10A3C00006240A460068214600F041FD38BD0E20F3
:10A3D00038BD1CB5002807D0002A05D006240094FB
:10A3E000019400F05DFD1CBD0E201CBDF8B51D469E
:10A3F00017460E0010D0002D0ED0044615480090D0
:10A40000206800F08EFE002805D12B463A463146E2
:10A41000201D00F0C5FCF8BD0E20F8BDF8B51546AE
:10A420000F46060010D0002D0ED00B4800901C46A1
:10A43000304600F08FFE002805D1231D2A463946FC
:10A44000304600F0BEFCF8BD0E20F8BDA1AD010005
:10A45000C3AD0100699E01008F9E0100FFB581B070
:10A4600002AD0ECD044600F09BFC002818D102ADD1
:10A470000ECDA01C00F094FC060011D1251D002774
:10A480001DE002AE0ECE284600F08AFC060007D181
:10A490000498039900686288091A8A4202D909203F
:10A4A00005B0F0BD029B6968C01802F0BEFA0498BE
:10A4B000618800680835411804987F1C0160208875
:10A4C000B842DED83046EBE7FFB581B01D461746EF
:10A4D0000446029900F064FC0600E1D12868228855
:10A4E000391A8A4201D90920DAE702994018A11CD9
:10A4F00002F09BFA21882868401828603046CFE790
:10A50000F8B51D4616460F46044600F049FC0028E3
:10A5100005D12B4632463946A01C00F041FCF8BD5F
:10A52000FFB510680027081A81B015460E461C4674
:10A53000042801D20920B3E7019800F054FCA31CC1
:10A540002A463146019800F04EFC3846A8E7F8B597
:10A550001D4616460F46044600F040FB002805D174
:10A560002B4632463946201DFFF7CAFFF8BDF8B525
:10A570001D4616460F46044600F012FC002805D181
:10A580002B4632463946A01CFFF7E1FFF8BDFFB568
:10A5900081B01F460446039A029900F001FC00288E
:10A5A0000FD1A51C002609E03B462846039A0299D4
:10A5B000FFF7DDFF002804D10A35761C2188B1425F
:10A5C000F2D86DE7F8B515460F4606002AD0002DE3
:10A5D00028D0002B26D01C4600F021FC002820D1DA
:10A5E00023460C332A463946304600F018FC002832
:10A5F00017D1A31C2A463946304600F0E2FB00285A
:10A600000FD1231D2A463946304600F0DAFB0028D8
:10A6100007D1A01D831C00902A463946304600F021
:10A62000A1FCF8BD0E20F8BDF8B507461068154628
:10A63000081A0E461C46072801D20920F8BD3846E4
:10A6400000F0FAFB631C2A463146384600F0F4FB62
:10A65000A31C2A463146384600F0C5FB231D2A4676
:10A660003146384600F0E8FBA31D2A4631463846FD
:10A6700000F0B9FB0020F8BDF8B51D4616460F46A0
:10A68000044600F0BFFB00281DD12B463246394658
:10A69000601C00F0B7FB002815D12B463246394626
:10A6A000A01C00F07DFB00280DD12B463246394618
:10A6B000201D00F0A7FB002805D12B463246394665
:10A6C000A01D00F06DFBF8BDF8B51D4616460F46FF
:10A6D0000446FFF717FD00281DD12B4632463946A8
:10A6E000601CFFF70FFD002815D1A1784A07930FD2
:10A6F000012B00D00720CA07D20F5B001A430B07BB
:10A70000DB0FC906DB00C90F1A4309010A43296898
:10A71000B14201D10920F8BD7A542968491C296049
:10A72000F8BDFFB581B016460F461C460198FFF7ED
:10A73000F1FC00280BD1631C324639460198FFF723
:10A74000E9FC050003D13068B84202D1092005B008
:10A75000F0BD6B4632463946019800F06DFBA0789B
:10A760004108684600784900C207D20F1143F92218
:10A7700011404207920F52001143F7221140020785
:10A78000D20FD2001143C006EF22C00F11400001CA
:10A790000143A1702846DAE7F8B5064610680F466F
:10A7A000091A15461C46022940D3315C2078CA0795
:10A7B00040084000D20F10438B07FD22DB0F1040F2
:10A7C0005B001843FB2318404B07DB0F9B0018432B
:10A7D000F72318400B07DB0FDB001843EF2318406B
:10A7E000CB06DB0F1B011843DF2318408B06DB0F62
:10A7F0005B0118434906BF23C90F1840890108436C
:10A8000020702968701C095C6078CB074008400004
:10A81000DB0F89071843C90F1040490008436070D7
:10A820002868801C2860381A022801D20920F8BD47
:10A83000234608332A463946304600F0D4FA2046EB
:10A840000A300090231D2A463946304600F08AFB24
:10A850000028ECD1DE48234600900C332A463946C6
:10A86000304600F077FC0028E1D1DA48234600901A
:10A8700010332A463946304600F06CFC0028D6D109
:10A88000D4482346009014332A463946304600F017
:10A8900061FC0028CBD1CF482346009018332A46CC
:10A8A0003946304600F056FCF8BDF8B50746CA48B0
:10A8B000009015460E461C46384600F04BFC00281A
:10A8C0000ED1C4480090231D2A463146384600F078
:10A8D00041FC002804D12868301A042801D209203C
:10A8E000F8BD23460A332A463146384600F07BFA43
:10A8F00023460C332A463146384600F074FA204687
:10A9000008302346009010332A463146384600F07E
:10A9100029FBF8BDF8B51D4616460F46044600F063
:10A920003FFA002815D12B4632463946A01C00F0CC
:10A9300037FA00280DD12B4632463946201D00F04B
:10A940002FFA002805D12B4632463946A01D00F0CB
:10A9500027FAF8BDF8B5074610681546081A0E46DE
:10A960001C46052801D20920F8BD384600F03BFA04
:10A97000A31C2A463146384600F05EFA231D2A46BB
:10A980003146384600F02FFA2046083007D0031D24
:10A9900000902A463146384600F041FBF8BD0E20B3
:10A9A000F8BDF8B51D4616460F46044600F016F9E8
:10A9B000002829D12B4632463946201D00F00EF9D9
:10A9C000002821D120462B4632463946083000F077
:10A9D00005F9002818D120462B46324639460C305E
:10A9E00000F0DEF900280FD120462B4632463946CA
:10A9F0000E3000F0D5F9002806D120462B4632460D
:10AA00003946103000F0FEF9F8BDFFB581B01D46A3
:10AA100017460446029900F0C3F900282AD12B46B4
:10AA20003A46A01C029900F0EDF9002822D12B46ED
:10AA30003A46201D0299FFF7B4FF00281AD120469C
:10AA40002B463A461630029900F0AAF9002811D197
:10AA5000208B694608802B463A466846029900F0EA
:10AA60009FF9060006D128686A461288391A914271
:10AA700001D209206BE60299401821461A3101F0F3
:10AA8000D4FF6946098828684018286030465EE689
:10AA9000F8B51D4617460E0018D0002D16D0002818
:10AAA00014D0044600F07CF900280ED12B463A461B
:10AAB0003146A01CFFF775FF002806D120462B4623
:10AAC0003A463146143000F06BF9F8BD0E20F8BD5F
:10AAD000F8B51D4617460E000FD0002D0DD00028EA
:10AAE0000BD0044600F08EF9002805D1207801280B
:10AAF00005D002280AD00720F8BD0E20F8BD2B464D
:10AB00003A463146A01CFFF7C3FFF8BD2B463A4634
:10AB10003146A01CFFF779FFF8BDFEB50746106867
:10AB20001546081A0E461C46022812D3384600F075
:10AB30005AF92868B0420CD001AB2A463146384653
:10AB400000F07AF968460079A0702868301A022867
:10AB500001D20920FEBD231D2A463146384600F0A9
:10AB600042F9A01D831C00902A463146384600F069
:10AB7000F9F9FEBD70B5156800244D1B022D01D2F8
:10AB8000092070BD00F02FF9204670BDF8B50746CA
:10AB900010680E4615461C46B04201D10920F8BD8A
:10ABA000384600F049F92078012803D0022808D05F
:10ABB0000720F8BD231D2A4631463846FFF7ADFF72
:10ABC000F8BD231D2A4631463846FFF7D3FFF8BDAE
:10ABD00029A6010023A70100FDAB0100F8B51D4621
:10ABE00016460F46044600F0DBF8002805D12B4638
:10ABF00032463946A01C00F005F9F8BDF8B5074605
:10AC000010681546081A0E461C46032801D2092072
:10AC1000F8BD384600F0E7F8A31C2A46314638460E
:10AC200000F00AF90020F8BD70B514460246184637
:10AC300023680025C91A102901D2092070BD99186E
:10AC4000102201F0F2FE206810302060284670BD0E
:10AC5000F8B51D4617460E000FD0002D0DD0002868
:10AC60000BD0044600F09CF8002805D12B463A464C
:10AC70003146A01C00F094F8F8BD0E20F8BDF8B5E0
:10AC800015460F4606000FD0002D0DD0002B0BD01F
:10AC90001C4600F096F8002805D1A31C2A46394628
:10ACA000304600F08EF8F8BD0E20F8BDFFB581B03B
:10ACB0001D460E0012D0002D10D000280ED00446E4
:10ACC000039AFFF7C5FF070006D128680399228879
:10ACD000091A8A4204D9092005B0F0BD0E20FBE70D
:10ACE0008019211D01F0A1FE2188286840182860E4
:10ACF0003846F1E710B514688C4201D1092010BD27
:10AD0000611C1160005D1870002010BD10B51C465C
:10AD10000B46002A06D0002C04D02168052903D256
:10AD2000092010BD0E2010BD1070511C184600F0F7
:10AD3000E5F9401C2060002010BD10B51C4600291C
:10AD400009D0002807D0002C05D02368D21A042A85
:10AD500003D2092010BD0E2010BD5918006800F064
:10AD6000CDF9216840182060002010BD70B5144650
:10AD700000280AD0002C08D0002B06D022681D46DF
:10AD8000891A042903D2092070BD0E2070BD101845
:10AD900000F0BDF928602068001D2060002070BD13
:10ADA00010B51C68121B022A01D2092010BD0088B0
:10ADB00061180870000A48701868801C186000202C
:10ADC00010BD10B51468091B022901D2092010BD5D
:10ADD0002018417804780802204318801068801CED
:10ADE0001060002010BD30B51468A51C8D4208D835
:10ADF0002018417804780802204318801068801CCD
:10AE0000106030BD10B51C68944201D1092010BDFE
:10AE1000007808551868401C1860002010BD10B557
:10AE200014688C4201D1092010BD005D18701068B3
:10AE3000401C1060002010BD30B51468651C8D42A8
:10AE400004D8005D18701068401C106030BDFFB55C
:10AE500081B00A9C9C460D46060001D0012000E00E
:10AE60000020694608702346624668460399FFF74A
:10AE7000C9FF070007D1002E10D020686146091ACB
:10AE8000A94202D2092005B0F0BD03992A46401814
:10AE9000314601F0CAFD2068401920603846F2E7CB
:10AEA000F8B50F46844600206946079E0870106872
:10AEB0001D461446B8421AD00B4639466046FFF785
:10AEC000BBFF68460078012805D0002D01D0002086
:10AED00028600020F8BD002D0BD02868002808D07D
:10AEE00006998E4203D821687A1AB24203D2092009
:10AEF000F8BD0E20F8BD6144324601F096FD206891
:10AF000080192060E5E7FFB583B00C9C1E4617460C
:10AF10008C46257823460398FFF781FF002808D147
:10AF20002078019033463A46614600950398FFF732
:10AF3000B7FF07B0F0BDFFB581B01D4616460A9CAD
:10AF4000074623462A46314602A8FFF729FF002874
:10AF500099D16846009401892B4632463846FFF75E
:10AF600076FF90E7FFB583B00C9C1E4617468C46D3
:10AF7000258823460398FFF724FF0028D9D120888D
:10AF8000019033463A46614600950398FFF788FFE3
:10AF9000CFE7FFB582B000240B9E684604801D46B3
:10AFA00017468C460471002E0CD0002D0AD028685C
:10AFB000002807D039686046401A032804D20920C7
:10AFC00006B0F0BD0E20FBE76B4661460298FFF726
:10AFD0000AFF694630880988884201D20C20EFE7D1
:10AFE00001AB3A4661460298FFF726FF68460079B2
:10AFF000002801D000240BE02C600EE028686100DE
:10B0000043183A4661460298FFF7EDFE641CA4B26D
:10B01000684600888442F1D334800020D0E7FFB531
:10B0200083B00C9C1E4617468C46002C0ED0206820
:10B0300000280BD0002E09D03068002806D03968CF
:10B040006046401A022803D2092072E70E2070E7FA
:10B0500000256846057101AB61460398FFF7ECFED9
:10B0600068460079002808D02068009033463A46A8
:10B0700061460398FFF776FF5BE725603868401C60
:10B0800038600020356054E770B5049C1D460E46BC
:10B09000002A0AD0002D08D0002C06D02968236889
:10B0A000C91A052903D2092070BD0E2070BD591C94
:10B0B0002160D05420688118304600F01FF82168C4
:10B0C000401820602860002070BDFFB581B00A9D47
:10B0D0000B9E2C680F462B460096049AFFF7D4FF70
:10B0E00000280AD1002F08D12C602246334603A83D
:10B0F0000499FFF755FE31682960C4E60870020A1A
:10B100004A70020C8A70000EC8700420704710B597
:10B11000044601F0F4FC0002E178000A0906084345
:10B1200010BDF8B51E680025069C964201D1092085
:10B13000F8BD002801D0012700E000278F551E68C8
:10B14000761C1E60002803D0002C01D0A0470546C5
:10B150002846F8BDFFB581B01168029800250A9E07
:10B160001C461746814202D1092005B0F0BD0146B8
:10B170006B460198FFF760FE68460078012804D00E
:10B18000002811D00B252846EFE7002C0AD02368B1
:10B19000002B07D0002EF6D03A4602990198B0470E
:10B1A0000546F0E70E20E0E7002CECD00020206000
:10B1B000E9E700001CB50C4601210191002812D0DE
:10B1C000002A10D0116800290DD00E4913460091B5
:10B1D00001AA2146FFF7BEFF002803D10199A14231
:10B1E00000D009201CBD0E201CBD1CB500230193FE
:10B1F00001AB009313460A4601466020FFF744FF67
:10B200001CBD0000F5AC0100F8B500261C46174631
:10B2100005460096002809D0002F07D0002C05D045
:10B220002068002802D0062920D101E00E20F8BDB8
:10B23000287869280FD10120134600906A462846D5
:10B24000FFF794FD0028F2D13868202805D0212886
:10B2500003D0222801D00720F8BD0099685C491C62
:10B260000091002800D12660062901D00920F8BDF0
:10B270000020F8BDFFB581B014460D0006461BD076
:10B28000002C19D013460A46014669202768FFF7AB
:10B290003DFD002802D1002E02D0002005B0F0BDF7
:10B2A0000A98002808D00498202807D0212805D023
:10B2B000222803D00720F1E70E20EFE72068009056
:10B2C0006B463A46294604A8FFF737FD0028E5D12A
:10B2D0000498202804D0212809D0222816D10DE076
:10B2E0006B463A4629460A98FFF725F80CE06B466C
:10B2F0003A4629460A98FFF75CF805E06B463A465D
:10B3000029460A98FFF772F80028C7D100982060F4
:10B31000C3E708B500230093002805D0002A03D016
:10B32000052903D2092008BD0E2008BD0378682B2B
:10B3300001D0072008BD0123009313466A46FFF79A
:10B3400015FD08BDF8B5054600201C4616460F46FB
:10B350000090002D0CD0002E0AD0002C08D02068C0
:10B36000002805D0062F3ED32878682812D101E0A6
:10B370000E20F8BD0120134600906A462846FFF7CC
:10B38000F5FC0028F5D13168202905D0212903D00A
:10B39000222901D00720F8BD009AAB5C521C009214
:10B3A000002B06D0202907D021290CD0222917D123
:10B3B00010E00021216013E06A46394628462368E0
:10B3C000FEF7D8FF0CE06A46394628462368FFF7A7
:10B3D00000F805E06A46394628462368FFF71EF85C
:10B3E0000099B942D7D00920F8BD10B5044600290C
:10B3F00009D0002A07D013460A4601466920FFF704
:10B4000085FC002810BD0E2010BD7CB51C461546DD
:10B41000002813D0002D11D0002C0FD001AA0092CB
:10B4200089B26A46FEF7F8FA002806D1009862DF72
:10B4300022462946009BFEF712FB7CBD0E207CBDF8
:10B4400030B587B01C461546002818D0002D16D000
:10B45000002C14D002AA019206AA009289B26B466F
:10B4600001AAFEF703FC002807D10099019863DFC9
:10B4700022462946009BFEF724FC07B030BD0E2073
:10B48000FBE730B589B01C46154600281ED0002DBC
:10B490001CD0002C1AD010226B461A7204AA0392F8
:10B4A00008AA019201AA009203AB02AAFEF7FAFAD7
:10B4B000002809D16846007A019A039964DF224680
:10B4C0002946019BFEF723FB09B030BD0E20FBE7A8
:10B4D00030B58BB01C461546002823D0002D21D056
:10B4E000002C1FD010226B461A7303AA029205AAE1
:10B4F000019209AA049201AA009289B202AB04AA9D
:10B50000FEF72EFB00280BD1019A0299049865DF03
:10B510000199009169460B7B22462946FEF774FB90
:10B520000BB030BD0E20FBE73EB51C46154600288B
:10B5300013D0002D11D0002C0FD001AA009289B297
:10B540006A46FEF7E9FB002806D1009866DF22462E
:10B550002946009BFEF7F8FB3EBD0E203EBD7CB5A4
:10B560001C461546002811D0002D0FD0002C0DD000
:10B5700001AA00926A46FFF71DFE002805D1009837
:10B5800060DF22462946FFF730FE7CBD0E207CBDE1
:10B5900030B585B01C461546002818D0002D16D0B1
:10B5A000002C14D003AA019289B201AB02AAFFF7C2
:10B5B0002BFE002809D10199029869DF01990091B9
:10B5C00022462946029BFFF755FE05B030BD0E20EE
:10B5D000FBE7F0B58BB01D4616460C4607001CD0A5
:10B5E000002E1AD0002D18D00020C043009000205B
:10B5F0000490059006900790A1B26A463846FFF77E
:10B6000088FE00280AD102A801900098202807D0BF
:10B61000212808D022280AD107E00E200BB0F0BD67
:10B620000AA8039003E008A800E004A80290A1B2D1
:10B6300001AB6A463846FFF785FE0028EED1019936
:10B64000009868DF2A463146FFF7CFFEE6E77FB570
:10B650001C461546002815D0002D13D0002C11D003
:10B6600002AA00926B4601AAFCF73EF8002807D117
:10B6700068460079009970DF22462946FCF759F8A0
:10B6800004B070BD0E20FBE73EB51C4615460028F1
:10B6900013D0002D11D0002C0FD001AA009289B236
:10B6A0006A46FBF7DEFF002806D1009871DF2246CC
:10B6B0002946009BFBF7ECFF3EBD0E203EBD70B55A
:10B6C00096B01C4615460E46002823D0002D21D0EA
:10B6D000002C1FD006A902911F216A4611730EAAE1
:10B6E00004926A46117505AA04A90192009103AB60
:10B6F00002AA3146FCF72CF8002809D16846037DE0
:10B70000017B049A029872DF22462946FCF746F82C
:10B7100016B070BD0E20FBE7FFB5CBB01D468C46C2
:10B7200000282FD04D9900292CD0002D2AD000219F
:10B7300038AA2AABCC00641A8E00E418491C945134
:10B740000829F7D3002440AB0AAE21018F19A100CC
:10B75000641C5F50082CF8D348A9019105A90391F6
:10B76000694605920991079309AA6146FCF71EF8FC
:10B77000002805D1099873DF2A464D99FCF700F996
:10B780004FB0F0BD0E20FBE770B51D4614460028F3
:10B7900009D0002C07D0002D05D074DF2A462146A1
:10B7A000FCF7F6F870BD0E2070BD7FB51C4615463F
:10B7B000002814D0002D12D0002C10D002AA009224
:10B7C0006B4601AAFCF7C2F9002807D168468088B9
:10B7D000009975DF22462946FCF70AFA50E70E2049
:10B7E0004EE77CB51C461546002812D0002D10D01F
:10B7F000002C0ED001AB6A46FCF7E0FA002807D116
:10B8000068460179008876DF22462946FCF706FB68
:10B810007CBD0E207CBD38B51C461546002810D0D6
:10B82000002D0ED0002C0CD06A46FCF75EFE0028DE
:10B8300006D16946085677DF22462946FCF76DFE99
:10B8400038BD0E2038BD38B51C461546002810D02E
:10B85000002D0ED0002C0CD06A46FCF7E2F8002830
:10B8600006D16846008878DF22462946FCF7EFF8C3
:10B8700038BD0E2038BD7CB51C461546002813D0B7
:10B88000002D11D0002C0FD001AA009289B26A4677
:10B89000FCF786F8002806D1009879DF2246294671
:10B8A000009BFCF795F87CBD0E207CBD3EB51C4688
:10B8B0001546002811D0002D0FD0002C0DD001AA64
:10B8C00000926A46FCF7C5FC002805D100987ADF93
:10B8D00022462946FCF701FD3EBD0E203EBD3EB589
:10B8E0001C461546002813D0002D11D0002C0FD077
:10B8F00001AA009289B26A46FCF754FC002806D1DE
:10B9000000987BDF22462946009BFCF765FC3EBD84
:10B910000E203EBD30B58DB01C461546002819D00E
:10B92000002D17D0002C15D004AA019203AA029270
:10B9300002AB01AAFCF7BCF9002809D102990198D1
:10B940007DDF694600948A892B460199FCF7DDF971
:10B950000DB030BD0E20FBE730B58DB01C4615464E
:10B9600000281CD0002D1AD0002C18D00CAA01924F
:10B9700004AA02921F226B469A8103AA009202AB8C
:10B9800001AAFCF7E7F90028E2D16846828902990A
:10B9900001987CDF22462946FCF706FAD8E70E20FC
:10B9A000D6E77FB51C461546002814D0002D12D0CE
:10B9B000002C10D002AA00926B4601AAFCF794F862
:10B9C000002807D16846808800997EDF22462946F4
:10B9D000FCF7B1F854E60E2052E630B587B01C46AD
:10B9E0001546002818D0002D16D0002C14D004AA1B
:10B9F000019201AA009203AB02AAFCF7F5FC002811
:10BA000008D16846017B0089019A7FDF22462946DA
:10BA1000FCF763FD07B030BD0E20FBE730B589B001
:10BA20001C461546002819D0002D17D0002C15D023
:10BA300004AA019201AA009289B203AB02AAFCF700
:10BA40000EF8002808D16846017B0089019A80DF42
:10BA500022462946FCF73FF809B030BD0E20FBE72F
:10BA600030B58DB01C46154600281AD0002D18D0D0
:10BA7000002C16D004AA019209AA029202AA0092EE
:10BA800089B201AB03AAFCF76FFC002808D1684615
:10BA90008089029A019981DF22462946FCF797FCAA
:10BAA00056E70E2054E73EB51C461546002815D033
:10BAB000002D13D0002C11D002AA00926B4601AACF
:10BAC000FCF79EF8002808D168468088009982DF3C
:10BAD00023462A460099FCF7C4F83EBD0E203EBD21
